:020000040800F2
:100000000050002069E2000815E3000875CD0008E3
:1000100015E3000815E3000815E3000800000000E0
:1000200000000000000000000000000015E30008D0
:1000300015E300080000000015E3000865CD000886
:1000400015E3000815E3000815E3000815E30008B0
:1000500015E3000815E3000815E3000815E30008A0
:1000600015E3000815E3000815E3000815E3000890
:1000700015E3000815E30008C5CB000815E30008E8
:1000800001CC000815E3000815E3000815E300089B
:1000900015E3000815E3000815E3000815E3000860
:1000A00015E30008D5CA000815E30008E5CA0008F2
:1000B000C5CA0008B5CA0008A5CA000815E30008AB
:1000C00015E3000815E3000815E3000815E3000830
:1000D00015E3000881CB000815E30008F5CA000805
:1000E00015E3000815E3000815E300080000000010
:1000F0000000000000000000000000000000000000
:0C01000000000000000000005FF808F1A3
:100110002DE9F04F674B684CA3B023600023636068
:1001200005F05AFC18B90AF0E1FC05F077FC0BF079
:1001300099FD00230B93614D0C930D934FF4E01345
:100140000E932B685E4943F480338A7B2B60AB6946
:10015000884643F01003AB612B6803F400330C9323
:100160000B9B01330B930C9B1BB90B9BB3F5A06F3F
:10017000F2D12968514B11F4003101D0022315E06E
:10018000186840F0010018600B912B6803F002031F
:100190000C930B9B01330B930C9B1BB90B9BB3F57F
:1001A000A06FF2D12B68990739D501230D93454BE8
:1001B000454F196841F010011960196821F00301D9
:1001C0001960196841F0020119606B686B606B6817
:1001D0006B606B6843F480636B603C4B1968043B55
:1001E00021F0704159603A493960696821F47C1105
:1001F0006960596841F000415960D96821F40041B3
:10020000D9609B681B0449BF324B4FF4E0133B603D
:100210004FF480130E930D9B012B01D117E0FEE7E5
:10022000022B18D16AB10E9BB3F5801F02D14FF497
:10023000A01305E00E9BB3F5E01F02D14FF40013AD
:100240000E936A680E9B134343F4803302E06B689D
:1002500043F460136B602B6843F080732B602A6853
:10026000164B9601FBD55A6822F003025A605A6871
:1002700042F002025A606B68104A03F00C03082B2C
:100280000893F8D15168144B01F00C01042903D0F4
:10029000082904D00E4A00E03A681A6028E0516844
:1002A0005068C1F38341C00301F1020118D40B4A25
:1002B0001CE000BF2D390008D005002000100240CE
:1002C000B81D00200020024024000020041001403E
:1002D00000127A00001BB7008400002000093D00D6
:1002E000526812F4003F3A6818BF5208514319602F
:1002F0006A68DFF890C1C2F303123A4492F804B07E
:100300001A6822AE22FA0BFBC3F800B04F4B4FF62F
:10031000FF72CCF808304E4BDFF864A1CCF80C30FB
:10032000AB694FF0000943F00103AB616B6A4948C8
:1003300043F080736B62AB6943F01C03AB6126F83A
:100340002C2D3146CDF814C08DF85E900CF068FB72
:10035000504631460CF064FB3F4831460CF060FBE0
:100360003E4A3046516841F00071516006F0FCFD94
:10037000179A3B49DDF814C0B2FBF1F24FF47A71E1
:10038000A260BBFBF1FB374A0BF1FF315160F0215A
:100390008CF823100721C2F808901160324A92E8C5
:1003A0000300AA6986E8030042F00802AA61082255
:1003B000CAF8102018A917980CF032FBD8F80810CA
:1003C0002A4A0B0769D592F81811012965D82849DE
:1003D000284892F819E1B0F800C00A888A4642EA33
:1003E0000C4C254A9445934640F0BB814B46002B6C
:1003F00053D0224BDFF88890186831461790484652
:100400000CF00EFB4FF40062C9F810203C2003F002
:100410006CF94FF0000998F81931994534DA184B06
:1004200008224FF400611A61782059610591049205
:10043000039303F04FF9049A039B05995A617820BE
:10044000196103F047F909F10109E4E70000000828
:100450000005FA05000801400010014000000140BD
:1004600040420F0010E000E064200108B81D0020A9
:10047000086C0040106C004007B0F7506C20010879
:10048000000C014000ED00E0BD49BAF800300A88D8
:1004900043EA02435B4540F06B81642003F025F999
:1004A000A022B84800210FF04CFFB74A536823F44C
:1004B000406343F0706343F400635360EB690022D0
:1004C00043F00703EB61AB6943F4006343F00C03B3
:1004D000AB61AE4B4FF0000903F10C0102F8019043
:1004E00001320C2AF5D1FF221A765A769A76DA76FC
:1004F000AA694FF40043ADF85C3042F004021423C3
:100500004FF0020B8DF85E308DF85FB0A048AA6105
:1005100031460CF085FA9F499F4A4846116003F026
:10052000EEF89E4ADFF894A292E80300AA6986E8F2
:10053000030042F00802AA61179818A90CF070FA9B
:1005400008F026FCD8F80830494603F40062069209
:100550005046102203930FF0F4FE07228AF803207E
:10056000039B8DF8479018044FF001098DF846B0B1
:10057000ADF844908AF802900BD503218AF80490D4
:100580008AF805908AF80690ADF844108AF807209A
:10059000D9467F4811A906F031FD069BABB1022375
:1005A0007F4811A9ADF8443006F028FD0923012247
:1005B0008AF80C308AF80E2009F1010307228AF824
:1005C0000D908AF80F205FFA83F96B69754843F044
:1005D00001036B61AB69DFF8CCB143F40073AB612D
:1005E00006F089FD704B00251793704BB9F1010F90
:1005F00018930CBF2B4680231C934FF480731D93DC
:100600004FF480631E93202331461F9358464FF4C6
:10061000005320931995CDF868901B95219506F00D
:100620004CFDDBF80030624A43F00103CBF80030A8
:100630005368B9F1010F23F4702394BF0021012105
:1006400023F4807343EA012353609168594B284691
:100650000B4043F4602343F002039360D16A09F135
:10066000FF3321F47001DBB241EA0353D36201236B
:100670000AEB00018A78002A5BD01AF800205D1C82
:10068000092A91F803E0EDB2494911D9A2F10A060D
:1006900006EB46064FF0070C0CFA06FC0EFA06FEB7
:1006A000D1F80C9029EA0C0C4CEA0E06CE600EE054
:1006B00002EB42064FF0070C0CFA06FC0EFA06FE9F
:1006C000D1F8109029EA0C0C4CEA0E060E61062BAC
:1006D00037490ED8013B03EB83034FF01F0E0EFA90
:1006E00003FE9A404E6B26EA0E0646EA02034B636F
:1006F00020E00C2B0ED8073B03EB83034FF01F0EBB
:100700000EFA03FE9A400E6B26EA0E0646EA020334
:100710000B630FE00D3B03EB83034FF01F0E0EFA4C
:1007200003FE9A40CE6A26EA0E0646EA0203CB6230
:1007300000E01D460430102801D02B4698E71C4BE2
:100740009A6842F480729A609A6842F001029A6054
:100750009A6842F008029A609968154A09072FD5ED
:10076000FAE70EF1FF33092B8CBF002301233EE68D
:10077000114B002283F819210BF07CFD8DE600BFA0
:10078000106C0040681C002000000140D0050020D3
:1007900000080140293200086C2500207020010863
:1007A000000C0140080002404C240140580C00207D
:1007B00000240140FDF7F1FFB81D0020480C002087
:1007C000936843F004039360A64A936813F004030C
:1007D000FAD19168B8F8E60041F4A0019160A24A0C
:1007E00050B9B2F9E83033B9B2F9EA30D3F10103C4
:1007F00038BF002300E0034613F001037FD13B75AF
:1008000000B20CF0EBFF99490DF03CF8964F06460C
:10081000B7F9E8000CF0E2FF94490DF033F8054613
:10082000B7F9EA000CF0DAFF90490DF02BF8814699
:1008300030460FF0B5FF0746304610F025F88046E9
:1008400028460FF0ADFF0646284610F01DF8054675
:1008500048460FF0A5FF8246484610F015F8394685
:10086000814650460DF00EF83946834648460DF055
:1008700009F85146069040460DF004F849460790A5
:1008800040460CF0FFFF3146099050460CF0FAFF4D
:100890004946E06106F100400CF0F4FF2946206271
:1008A000656207980CF0EEFF014606980CF0E2FE38
:1008B0002946A06209980CF0E5FF014658460CF065
:1008C000D7FE3146E06208F100400CF0DBFF29461C
:1008D000206358460CF0D6FF014609980CF0C8FE7C
:1008E0002946606306980CF0CDFF014607980CF08E
:1008F000C1FE3946A06330460CF0C4FFE0635C4E95
:100900005C4A3368584D43F002033360136894F82F
:1009100040B0B3F8563000210793574BB5F8EEA01E
:1009200095F8ED7095F8F58019709946BBF1000FB8
:1009300008D00023A4F84230BBF1000F08D103F027
:10094000F7FF05E00AF0CCFA002800F01981F0E783
:10095000BAF1140F19D009D8BAF1050F19D0BAF1AC
:100960000A0F14D0BAF1000F0DD114E0BAF1BC0F88
:1009700013D0BAF5807F04D0BAF1620F03D10221FF
:100980000CE000210AE0032108E0042106E0052133
:1009900004E0062102E0072100E00121374B1A2084
:1009A0001A8822F040021204120C1A801A8822F0CF
:1009B00038021204120C42F030021A801A8892B2E5
:1009C00042F040021A8003F0A5FF012002F082FEEF
:1009D00017A805F0CBF99DF95E30013303D19DF9DD
:1009E0005C30013303D0B4F842309BB21BB100231A
:1009F000A4F84230C4E0224C224B64202360224BF6
:100A0000A2466360214BE36002F06FFE042389F885
:100A10000030336801210B43069133601C4C0023E6
:100A2000062F2370DFF870B009D0092F02D0002FF5
:100A300041D104E0336823F0020333603BE0154A00
:100A400092F8403033B10021A2F8421033BB03F0DA
:100A50006FFF23E0049203930AF042FA049A039B87
:100A600048B3F0E700240140B81D002035FA8E3C61
:100A7000440200204C0200206602002000300140A9
:100A800050020020D1C400086D5D000890C1793D7E
:100A9000CE020020D00500206A250020AD4BAE4AD2
:100AA00064201A60AD4A5A6002F01FFE04232370CE
:100AB00006238BF800309BF8003043B9013F072F25
:100AC00001D81F46AAE7336823F002033360336876
:100AD00023F0040232609A0702D59E4B1B689847A8
:100AE000DAF8003098479E4BB8F1030F1A78336854
:100AF00008BF23F008033AB133609A4B002283F811
:100B000044200CE04FF0000808F1FF38B8F1010F65
:100B1000F8D9944923F0080381F84420336095F80C
:100B2000E2300BB189F8003095F8E3300BB18E4A12
:100B3000137095F8E4308B4C0BB184F84430336873
:100B40001B071AD5079B64270FFA83F898FBF7F663
:100B500030460CF043FE814607FB168000B20CF0D5
:100B60003DFE82490CF08EFE014648460CF082FDA7
:100B70007F490CF087FEA06405E00023A36402E037
:100B8000032002F0E9FD7B4B08221A610A27794E07
:100B90001920F368013F83F00803F36002F0A5FD1C
:100BA000012002F0ACFD192002F09FFD002002F0B0
:100BB000A6FD17F0FF07EAD1082333616E4B6F4E95
:100BC0001B6893F90C000CF009FE6D490CF05AFEFD
:100BD0000FF0E6FD074630880CF000FE39460CF0B9
:100BE00051FE0FF013FE674B188030880CF0F6FDB5
:100BF000014665480CF0FAFE64490CF0F7FE6049C6
:100C0000E064DAF80C000CF03DFE61490CF03AFEAD
:100C1000604B6A791860604B604E1A70604B2365B8
:100C2000604B03EBC202527D3260AA68970644BF54
:100C30000123336007F0ACFA11A8002116220FF04F
:100C400080FB6B790E2B01D0082B02D101238DF88C
:100C50005030AB683068C3F340028DF84A20C3F3CC
:100C600080128DF84C20C3F340328DF84420C3F33A
:100C7000C0328DF84720C3F3C02200308DF84820E1
:100C8000494EC3F3004218BF01208DF84D20C3F335
:100C900080428DF84B208DF84E0003F00101306842
:100CA000C3F3C0028DF845108DF8462090F8B401CA
:100CB000B5F8E060C0F380008DF84F00ADF85460E7
:100CC000B5F8DE004FF47A76ADF85660DE04ADF884
:100CD000520004D5354BB3F8DA30ADF85630B0F5E4
:100CE000FA7F84BF0023ADF85630B5F81A3130488A
:100CF000ADF8583095F8223184F85430002384F848
:100D0000553043709DF85030002B14BF0223002350
:100D100001B902B1013323494FF0000901EB83030C
:100D2000D3F8D430CB460793079E4FF6FF7236F8C0
:100D300009009042C3B23DD194F8553084F8573041
:100D4000154B93F80080B8F1170F40F0B7810026DB
:100D500089E100BFBC020020C1C40008D15D0008C9
:100D600069250020D0050020CE0200208988883C1B
:100D700000002041000C014008030020000000207A
:100D800035FA8E3C2C0300200AE81C4100401C462A
:100D9000BD378635040300201C0400201804002001
:100DA000C81D0020642001084C020020B81D00204E
:100DB00025060020B24A9DF849104FEA031802EBBD
:100DC000080619B1991E012940F238819DF84C108E
:100DD00029B152F80810AB4FB94200F02F819DF8AD
:100DE0004D1029B152F80810A64FB94200F02681E3
:100DF0009DF8471011B1012B00F020819DF84A7039
:100E000017B1042B00F01A819DF8487017B1032B1D
:100E100000F0148111B1052B00F01081000A0228A6
:100E200002D19DF8441003E0012804D19DF845103B
:100E3000002900F003819DF84F1031B19DF850104A
:100E400019B9043B032B98BF04209DF84430ABB183
:100E5000C31EDBB2012B09D852F80830B3F1804F22
:100E600000F0EC8087498B4252D1E7E0022805D19F
:100E700052F8083084498B424CD1DFE0012847D139
:100E80009DF84B303BB152F808307F498B4204BF8C
:100E9000032384F85830FF23F17B84F8A03084F8D2
:100EA000A130B3680027706884F8A470C4F8B060FB
:100EB000ADF85C308DF85E10022317A98DF85F3015
:100EC00084F85C7027666766A766C4F89C7084F82F
:100ED000A27084F8A37004920BF0A2FD049A317BF7
:100EE00052F808003A4605F0F3FF30463946012231
:100EF00004F09CFB654B6649C4F8B430654BC4F8FC
:100F0000BC70C4F8B83030460A1D09F0BBF995E052
:100F1000022841D15FFA8BF31C2159435E484FF000
:100F2000000A47184FF0010C87F801B087F802A0BB
:100F300087F80AA000F801C0B16896F80FE0ADF894
:100F40005C1002217068FE608DF85F1017A98DF8A3
:100F50005EE0CDF814C004920BF062FD049A317B80
:100F600052F80800524605F0B3FFDDF814C03046D1
:100F70006246514604F05AFB484AC7F818A03A6145
:100F8000474A30467A6107F1100107F1140209F06F
:100F900079F90BF1010B51E0032836D19DF84B3064
:100FA00033B194F85670304608214FF6FF721CE0BA
:100FB000BDF8523094F85670B3F5FA7F0FD9394A1C
:100FC0003046B2FBF3F20821BDF8563092B205F07C
:100FD000FDFA04EB8707C7F88401334B0EE0334A70
:100FE0003046B2FBF3F2012192B2BDF8563005F063
:100FF000EDFA04EB87072E4BC7F88401C36094F821
:101000005630013384F8563018E0042816D1BDF864
:101010005430264A304692FBF3F20121BDF8583095
:1010200092B294F8557005F0D1FA94F8553004EB6B
:1010300087070133C7F8B40184F8553009F1020974
:10104000B9F1180F7FF470AE76E61A4F99E80F00E9
:10105000374487E80F00184B10361A78C02E02F17B
:1010600001021A7008D0236D0021985903EB06097C
:101070000CF09CFD0028E8D0AB68D8043CD436E0E6
:10108000683A0108000400400008004099C30008C5
:10109000840600207DC40008740600200D6F00083F
:1010A0006BC3000800127A009DC4000840420F0084
:1010B0008DC40008A407002070250020B449B54A5B
:1010C00001EBC80393F814E0D3F818C082F800E0ED
:1010D000BCF1000FD0D000267645CDDAAE4F3301FB
:1010E0001F4463440FCB013687E80F00F4E7B8F1E3
:1010F000080FAA4F26D128E0A64B93F80090B9F12B
:10110000010FF4D9A64E00274F4506F11006EEDA7E
:1011100056F8100C4FF07C510CF0B4FB4FF07C51A2
:1011200046F8100C56F8140C0CF0ACFB4FF07C5148
:1011300046F8140C56F80C0C0CF0A4FB013746F8DA
:101140000C0CE1E7B8F10E0F03D13B7843F010032C
:1011500002E03B7823F010033B7003F017F8914A4C
:1011600091489249924B02609248C4F898320160CB
:101170000023B5F81A01C4F89412A4F89E3284F83A
:10118000A032C4F8A4228C4958520233242BFAD13D
:101190008A4B1A608A4B9A68984612F0080F00F042
:1011A000968093F818310022052B00F28A80DFE840
:1011B00003F00303284D5C6D012B4FF00301814ABE
:1011C00008D184F8A812072184F8AA3284F8A91259
:1011D0000C2308E0022384F8A832002384F8AA3202
:1011E00084F8A91207231370002300931020012311
:1011F00075494FF4E13207F017FD744BC4F8AC02A7
:1012000059E00123724A734900931020052307F027
:101210000BFDC4F8B4020546B8F81A010CF0DEFA6A
:101220006D490CF02FFB6D490CF022FA0CF016FD05
:1012300000236B4A98500433402BFAD1694B10229B
:10124000C4F8B0325F4B281C1A7037E000920123BB
:101250004FF4E1321020644907F0E6FC634BC4F818
:10126000B802C4F8B03210220DE0009201234FF40E
:10127000E13210205E4907F0D7FC5E4BC4F8BC0297
:10128000C4F8B03208224F4B1A7016E04D4B0C22B6
:101290001A70594A0023137084F8C03284F8C1329E
:1012A00010200093554901234FF4E13207F0BCFCB4
:1012B000534BC4F8C402C4F8B032003018BF012048
:1012C00028B908200BF038F90023C4F8B032D8F858
:1012D00008303C4A13F4804F04D00821117049496A
:1012E000C4F8B01242F20101194003F0010003F406
:1012F000005541B14449C4F8B0120DB10821117034
:1013000008B10C211170117804395170190640F19F
:1013100099803E4BD8F83C113D4EC4F8C8320023AA
:101320003C4A02EB031040689246884204D00133E5
:10133000DBB2042BF4D900230025294615223648B8
:101340007370DFF8E4907560B5600EF0FAFF334B10
:101350002846C9F8003008F02BFE314B72781B6824
:101360000AEB0212F360D9F8003020201B782946DE
:10137000AB420CBF012303230095526807F054FCD5
:10138000284B1860002851D180200BF0D5F850E090
:101390006420010870250020A407002041020020DD
:1013A000AC070020680800206C0C0020C81E00203C
:1013B00048210108040100208E0500200C020020B5
:1013C000B81D00207B140020593500081D3100088D
:1013D000A086010065360008CDCCCC3F0000B044AB
:1013E00028010020D1310008F1350008C131000882
:1013F000A5350008AD31000808020020B9680008D2
:10140000F9300008FD31000809320008E81E00200C
:101410001C020020881E01089C080020E11E0020FC
:10142000B41D0020180200203C020020012008F01A
:10143000BFFD8C4B18688C4B00F5DB7204301A60D2
:101440000BF0FCF9894B8A49D4F8A4220B60803355
:10145000C4F8E432874B884D1A60D8F8083000266B
:10146000DA032E7040F1BB800BF02AF90BF062F921
:101470000BF03EF9814BDFF834B240F22A3A4FF0DC
:10148000010818463146524685F8008003930EF055
:1014900058FFDBF818204FF0100942F00802CBF893
:1014A000182018228DF83F20754803220FA98DF8C7
:1014B0003E20ADF83C9005F0A1FDDBF81C20714DFD
:1014C00042F00202CBF81C206F4AABF6947B116805
:1014D0006E4AB1FBF2F12A88013922F45C7202FAF9
:1014E00009F222FA09F289B22A801D22AA852985E9
:1014F000A5F814802A8C22F0010202FA09F222FADD
:1015000009F22A842A8CA888298B22F0020221F071
:10151000730101FA09F102FA09F221FA09F122FA3A
:1015200009F241F0600180B242EA0802A8802983F2
:10153000AE862A842A8B22F0080202FA09F222FAE5
:1015400009F242F008022A83B5F844206FEA4242C9
:101550006FEA524292B2A5F84420DBF8A82F42EA83
:101560000802CBF8A82F584605F0C5FD484A039B52
:10157000179280221C924FF480721D9258464FF4AD
:10158000005217A920921B961E961F96219618931B
:10159000CDF86490CDF868A005F08FFDAA8910A859
:1015A00092B242F40072AA81DBF8002042F00202FB
:1015B000CBF800208DF840908DF841808DF8426086
:1015C0008DF8438007F0B6FC324B1A68324BF2506C
:1015D0000436802EF8D108F015FC08F013FC2F4BD0
:1015E0009A68984612F4806F00F092800BF05EF8D3
:1015F00008B1082000E00420012104F0BAFFD8F867
:10160000083084F8120613F4806F254D02D10026AD
:1016100006961DE02B681B78032B0FD12B681B78D7
:10162000032B15D1082004F059F90146082004F0D5
:101630004FFF003018BF0120069009E0042004F09D
:101640004DF90146042004F043FF0028E6D1DEE70F
:10165000144B069E2D681E702B784BBB124B1D60E1
:101660004AE000BF4C02002008040020101F0020A8
:1016700008050020B8050020FE040020B80800205E
:10168000000C0140000400408400002000366E0180
:1016900034040040242001080C050020B81D00205F
:1016A00028040020240400204C04002000100240E4
:1016B000012B21D13C4E002130462C22C4F8145677
:1016C0000EF03FFE8E2373704FF07C0AE0234FF044
:1016D0007D09F37086F800A086F82B90334E002128
:1016E00030462C220EF02DFE8A237370A02386F83C
:1016F00000A0F37086F82B902B78022B08BFC4F85B
:1017000018560AF0D3FF08B1C4F81C5606F0FEFDC7
:10171000D8F8083013F4002300D0012384F82036D1
:1017200001F000FF224B186098F80530052B03D11B
:10173000204B4FF4C8721A801F4B4FF47A721A80F4
:101740003B7843F008033B701C4B1A7822F00202EE
:101750001A70D8F808309B0723D5194B194A1C4634
:101760001A6005F0F5FD282001F0BFFF089E013E3C
:101770000896F6D12268144B50781D780146012353
:101780008D4203D30133082B0144F9D10F49D0789E
:1017900092780B709BB2584353430D490D4A088011
:1017A000138023B0BDE8F08F600400208C0400207B
:1017B00078030020D0020020642500206825002046
:1017C00038040020BC1E00203C04002080000020C3
:1017D000B6050020B4050020AC4B2DE9F04FB3F95D
:1017E0000600AB4B87B01D682B8998420EDBB0F525
:1017F000FA6FAF7907DAC21A5743A3F5FA6397FB7A
:10180000F3F7643703E0C7F1640700E06427A14BF6
:10181000A14AB3F81A1193F9EC3016685B420491AF
:101820009BB20021059334460A46984BDDF810C060
:10183000CB5E40F2E63E0393CCEB030303F2F31CD2
:10184000F44503D8002BB8BF5B4201E04FF4FA73B4
:10185000022ADFF8548231D096F861E1BEF1000F20
:1018600004D07345CCBFCEEB030300234FF0640ECE
:10187000DFF82CA293FBFEFC6FF0630B3AF81C9090
:101880000BFB0C3B0CF1010C3AF91CA00FFA89FC84
:10189000CCEB0A0C0CFB0BFC9CFBFEFCCC4428F8AC
:1018A00001C095F804C003FB0CFC7C4B9CFBF3F3DC
:1018B00073449BB27B4393FBFEFE1BE096F862E110
:1018C000BEF1000F04D07345CCBFCEEB0303002361
:1018D000DDF814C003FB0CFEA8F804E095F805E061
:1018E000002BB8BF5B4203FB0EFE6C4B9EFBF3FE6E
:1018F0000EF1640EB31893F80480DFF8C8C10EFB34
:1019000008F8642398FBF3F802F80C8094F80E9022
:101910000CF103080EFB09F999FBF3F902F80890A2
:1019200094F818800CF1060C0EFB08FE9EFBF3F3F6
:1019300002F80C30DDF80CE0049B9E45DFF868E10E
:1019400004DA3EF801305B422EF801300132032AFE
:1019500001F1020104F101047FF467AF4D4EB6F8C6
:101960001C31984205DBB0F5FA6FA8BF4FF4FA605E
:1019700000E01846C01A4FF47A725043C3F5FA6378
:10198000B0FBF3F36427464C93FBF7F204EB420100
:101990006FF0630000FB0233098B04EB4202B2F9E3
:1019A0001A000AB2821A534393FBF7F739443D4FAA
:1019B0003D4D3B88AEF806105A063CD53B4B188887
:1019C000238EC01A00B20BF009FF39490BF05AFF01
:1019D00080460EF0E5FE814640460EF055FF8046FB
:1019E000B5F902000BF0FAFE8246B5F900000BF0E3
:1019F000F5FE494683460BF045FF414603465046F7
:101A000002930BF03FFF029B014618460BF030FE9D
:101A10000CF0FEF84946288050460BF033FF414653
:101A2000814658460BF02EFF014648460BF022FE39
:101A30000CF0EEF86880B26840F602031340002B09
:101A40007ED01C4B06211D88636B1D4494F83830F2
:101A500065630133DBB2B3FBF1F084F8383001FB8E
:101A6000103313F0FF0F6BD1930730D505F070FCE6
:101A7000114B124A1B7812889A4225D2104A1288BA
:101A80009A4234BF002301231FE000BF8E050020CF
:101A900014040020B81D00204C0200200CFEFFFFA3
:101AA000080C002080030020FA03002048030020D7
:101AB00035FA8E3C740300203C040020B40500205D
:101AC000B6050020160C0020022384F83930B368D4
:101AD000180533D594F84D30E16B04EB4303B3F8AC
:101AE0005000082391FBF3F280B28A1A0244E263A9
:101AF00092FBF3F292B240F6E4435A438C4B40F629
:101B0000FF71B2FBF1F219684FF47A73C8888988C3
:101B1000121A5A4392FBF1F25543864995FBF3F3AF
:101B20000A60D4E91601C01841EBE371C4E916015B
:101B30000023814A0CF0B2F8804B186000236363E5
:101B40007F49804A0B6894F839A013F4805318BF7A
:101B5000012382F86030B368894613F4807F7A4DA0
:101B60002AD0636E28781B68C0F380005B68DFF8BA
:101B7000D481984758B1012388F86830D8F8643088
:101B80001B68DB68984710B1022388F86830636EE1
:101B90001B689B68984730B12B78590703D4694B71
:101BA000022283F86820636E1B689B69984718B10E
:101BB000644B002283F86820644B1A6892060DD5A6
:101BC000D9F8003013F4C06F05D0614B1B789B0728
:101BD00001D4012300E0002384F8693094F86820E0
:101BE000584B022A02D14C204E2126E0012A06D170
:101BF00053204D214C220B4608F014FA31E093F8A3
:101C00006920012A03D1532001464E2206E093F8B1
:101C10006020012A04D15320014602464D23EBE700
:101C2000BAF1020F04D1532001464D224423E3E7C9
:101C3000BAF1010F03D153204D210A46F6E73A8845
:101C4000170603D553204D210246D4E7414A1078A8
:101C500018B1192008F0BAF903E083F86A0001F01E
:101C60004EFD2A78500703D53B4B08225A6155E0B8
:101C7000D9F80030D90703D4334942F001020A7081
:101C8000364A12881AB131490A68920705D4344A93
:101C90001288003218BF012200E0012242B12E4A10
:101CA000D16881F00801D1602A7822F001022A70FF
:101CB000274A1278170703D42A7822F001022A70E3
:101CC000D80203D52B7823F001032B702B78254AFB
:101CD00013F0010F05D00023E3661F4B08211961A3
:101CE0000BE0E16E136841B9164903F5F42303F5DF
:101CF0009073CB66184B08215961E36E12686BB183
:101D0000D21A002A0ADB144A03F5F423D16803F53A
:101D1000907381F00801D1600A4AD36606F0F6FAA2
:101D2000114B1B7813B309F023FD00F086BC00BFF4
:101D30003804002040040020407E050044040020B8
:101D40007C030020080C00206825002044020020AD
:101D500041020020FE020020000C0140D0020020C1
:101D6000642500205825002067250020012004F06C
:101D700011FC002800F06184DFF83C9399F84A30A8
:101D8000012B40F05484DFF834A3C34FD9F800305E
:101D9000CAF800903B60D046386801F00DFD00287D
:101DA00000F03784BC4B186801F001FDD8F8003012
:101DB00093F84820D2B9B0F124014A424A4183F84D
:101DC0004820002AE8D12B785B07E5D4232802D1EC
:101DD00009F0CEFCE0E7D4F808311B7D8342DBD16B
:101DE000AE4AAF4B1A6003F0DDFED5E7012A04D1FD
:101DF0004D2814BF002202221AE0022A04D13C28F6
:101E000014BF0022032213E0032A09D140284FF017
:101E100000020DD81A71DA7158719871042207E026
:101E2000042A08D19A7983F8490050409871052214
:101E300083F84820B0E7052AAED11A795979914242
:101E400007D9997941409971511C1971134418723D
:101E5000A2E79A79824240F0D78393F8490005F0CF
:101E6000BFFA002840F0CB83DAF8002092F849301E
:101E7000442B00F0BE8340D82D2B00F00E8321D8D8
:101E8000252B00F0F48206D8212B00F04682232B6C
:101E900000F0CB80EDE3292B00F0F1822B2B00F03A
:101EA000F782272B40F0E58301F066FA7D4FA7F813
:101EB000E60001F061FAA7F8E80001F05DFAA7F882
:101EC000EA0099E3352B00F095810CD8312B00F016
:101ED0006083332B00F0F6822F2B40F0CA83714FC2
:101EE00007F1400845E3412B00F0F282432B00F05C
:101EF000FA82372B40F0BD8319E3D02B00F01B8210
:101F000060D8CC2B00F0A18109D8C92B00F0358214
:101F1000CA2B00F0D580C82B40F0AB837CE0CE2BE1
:101F200000F01D8240F2128201F026FA6FF4AF6ECB
:101F300000EB0E039BB25B4FC62B98BFA7F81A01AC
:101F400001F01AFAA7F8D00001F016FAA7F8D200AB
:101F500001F012FADFF85C81A7F8D400D8F800B0DD
:101F600001F00AFAABF8AC0101F0FCF987F829019D
:101F700001F0F8F901F0F6F987F82A0101F0F2F919
:101F800087F80C0101F0EEF987F8200101F0EAF979
:101F9000D8F8008001F0F0F900EB80004000A8F8CC
:101FA000560001F0DFF987F8040101F0DBF987F84A
:101FB000060101F0D7F987F8050101F0D3F987F898
:101FC000070119E3D42B00F0728108D8D22B10D06E
:101FD00040F2108201F0D0F9A4F80C010CE3EF2BD1
:101FE0004DD0FA2B00F0C581D62B40F0428300275C
:101FF00055E12B7803F0040303F0FF07002B40F0BA
:10200000FB8201F0AFF9274B022883F8640740F206
:10201000988183F8647794E192F805804FEA580834
:10202000B8F1120F1CD800271DE001F09BF92728FA
:1020300016D8DFF8808000F11E02D8F8003003EBDC
:10204000820B01F08FF9184B0BF1010703F58A7130
:1020500093F808E0864500F0B9800C338B42F7D145
:1020600004F020FEC8E2474506D201F085F90F4B87
:1020700023F817000137F6E701220D4B77E10D4FEA
:10208000D7F8008001F078F9A8F85A003F6801F00D
:1020900073F9A7F85800AFE2DC040020EFBEADDE14
:1020A000F04F0020B81D00208C2601088E0500206E
:1020B000090200204C020020780C0020D8040020E7
:1020C000C04B00271A6898461278022A65D1D8F8C2
:1020D00000B001F047F907F108020BEB820B0BF09F
:1020E00079FBB9490BF082FCCBF80400D8F800B0BA
:1020F00001F038F907F10A020BEB820B0BF06AFBD7
:10210000B2490BF073FCCBF80800D8F800B001F02E
:1021100029F907F10E020BEB820B0BF05BFBAC49CC
:102120000BF064FC0137032FCBF80400CFD1072F4D
:10213000D8F800B01AD101F015F90BF04BFBA24909
:102140000BF054FCCBF84800D8F800B001F00AF9C5
:102150000BF040FB9C490BF049FCCBF84C00D8F845
:1021600000B001F0FFF88BF8500012E001F0FAF82F
:102170000BEB07031871D8F800B001F0F3F80BEB84
:1021800007039873D8F800B001F0ECF80BEB0703E5
:10219000187601370A2FCAD12EE2D8F800B001F024
:1021A000E1F80BEB07031871D8F800B001F0DAF88A
:1021B0000BEB07039873D8F800B001F0D3F80BEBE2
:1021C000070301370A2F1876E7D115E21B788BF841
:1021D000013001F0C7F8787001F0C4F8B87001F070
:1021E000C1F8F870D8F8001001F17900043104F05A
:1021F000B3FC01E201F0B6F80B283FF631AF4FF027
:10220000060808FB00F06F4B00F58C701B6803EBB1
:10221000000801F0A7F803283FF622AF88F806006F
:1022200001F0A0F888F8010001F09CF888F802009D
:1022300001F098F888F8030001F094F888F8040099
:1022400001F090F888F80500D6E1624FD7F80080D9
:1022500001F088F888F80000D7F8008001F082F8D3
:1022600088F80100D7F8008001F07CF888F80400B5
:10227000D7F8008001F076F888F80500D7F80080DC
:1022800001F070F888F80600D7F8008001F06AF8CD
:1022900088F802003F6801F065F8F870ACE101F0E1
:1022A0006BF84D4BD8530237102FF8D1A4E14FF003
:1022B0000008444F08F12D0B3968019101F05CF8DA
:1022C00001994FEACB02114448803968029201918A
:1022D00001F052F8029A019911448880029201F0AB
:1022E0004BF80728029A02D839680A445072A0F5C0
:1022F0007A7292B2B2F57A7F03D83A6802EBCB02D7
:10230000D0803F6801F02EF808F1010807EBCB03FD
:10231000B8F1080F1872CCD16EE10027294BD3F821
:10232000008001F01FF808EBC7030137082F83F87E
:102330007101F3D160E12B785F0700F15D8108F056
:10234000D5FB03F06BFB09F08DFC55E12B785807AA
:1023500000F15281214B4FF4C8721A804CE12B7866
:10236000590700F149811E4B1A7842F004021A7095
:1023700042E12B785A07E4D57BE100F0F3FF184BDC
:102380001A7810B142F0020201E022F002021A7043
:1023900000F0E8FF134B144F187000F0F7FF38609F
:1023A00000F0F4FF786000F0E7FF104B188000F0B9
:1023B000E3FF0F4B188094F8263143F0020384F8B2
:1023C000263119E14C020020000020410000C842E3
:1023D00000007A4414040020160D0020D0020020D2
:1023E0004102002040020020540400204A04002042
:1023F0004804002000F0B6FF019000F0C7FF0290F3
:1024000000F0C4FF804600F0C1FF074600F0B4FFB3
:1024100000F0B2FF00F0A6FF0199994B029A99B91A
:10242000C3F82821974AC3F82C81118821F01001A4
:102430001180954A117841F001011170002F00F0D0
:10244000DB80C3F83071D7E0102940F0D580C3F8A5
:102450003421C3F8388117B1894AC2F830718B48EA
:102460000222011D83F83C2103F0ECFFC4E00023AD
:10247000B36000F08BFFB3681843B060BCE000F0BD
:102480007BFFA6F8080100F077FFA6F80A01B3E089
:1024900000F068FF7E4B5871AEE000F063FF86F8F5
:1024A000180100F069FFA6F81E0100F065FFA6F80C
:1024B0001A0100F061FFA6F81C0100F053FF86F836
:1024C000190199E000F04EFF714B83F8200193E071
:1024D000002700F047FF6E4B3B440137082F83F87D
:1024E0001001F6D188E000F03DFF694F0023BB608A
:1024F000787100F04BFFBB681843B86000F032FF02
:1025000087F8180100F038FFA7F8E60000F034FF64
:10251000A7F8E80000F030FFA7F8EA0000F02CFF71
:10252000A7F8080100F028FFA7F80A0164E0537932
:10253000132B7FF495AD00F015FF554F87F8300150
:1025400000F010FF87F8310100F00CFF87F832012E
:1025500000F01CFFC7F8340100F018FFC7F838017D
:1025600000F014FFC7F83C0100F010FFC7F840016D
:1025700042E000F001FFA7F8D80100F0F3FE87F871
:10258000DA0100F0EFFE043787F8D7014745F0D1B4
:1025900032E000F0E7FE1F283FF662AD3D4B1B68BE
:1025A0005B79072B7FF45CAD394F00F1560807EBE0
:1025B0008803029300F0E0FE029B00F03F00588089
:1025C000029300F0D9FE029B8001598800F4F86262
:1025D0000A435A8000F0C6FE000107F8280000F008
:1025E000C1FE17F8283000F00F00184307F8280044
:1025F00002E0012384F83D31002001F023F9DAF8EC
:102600000030987901F0EFF8DAF80030002283F812
:10261000482094F83D3153B1D9F8000001F0BDF8DD
:1026200018B9322001F061F8F6E703F0BBFA1A4A54
:1026300009F14C0991457FF4A1AB18490B689B0641
:1026400011D5174BD4F840211B689A1A002A0ADBCF
:10265000144A1278042A06D903F51233084A03F5FE
:10266000F873C2F84031104B9B682BB10F48984764
:1026700002E004F017FBC2E707B0BDE8F08F00BF2F
:10268000080C002080030020410200203C0D0020A7
:10269000B81D0020D8040020100D002044020020A6
:1026A000582500204002002050020020360400205F
:1026B0009F4A2DE9F04F13689E4903F59C439E4DB8
:1026C00020330B60AB6887B013F4807F174604D0CB
:1026D0009A4B1B681B681B699847AB6842F2010460
:1026E0001C405CB9964E337873B1944B1B681B68E1
:1026F0001B68984703F074FA347005E0914B1A7820
:1027000001321A7003F06CFAAB68DA0405D58E4B0F
:102710001B68DB0701D40AF08BFA8C4B3C68186805
:10272000037C83B18A4A013B32F91300A0F57A7029
:10273000B0F57A7FA8BF4FF47A7020EAE0700BF012
:102740004DF884492FE0AA68160435D57D4A5168B2
:10275000611A002930DB04F59C41203151607E492B
:102760004E797E4931F81660417CB6B296FBF1F0A5
:10277000117A013101F00F0111720A4450721846AA
:10278000774A9A5C01331044102B80B2F8D100B222
:1027900090FBF3F000B26428A8BF642020EAE07048
:1027A0000BF01CF86F490BF021F96F490BF06AF838
:1027B0000BF054FA6D4B1880AB68D80510D56C4BF4
:1027C0009C426C4C08D923681B681B6A984718B94F
:1027D00023681B685B6A984723681B685B69984796
:1027E000A968DFF86CB111F4805F534BB5F8DC00D9
:1027F000BBF9062007D0B3F81A311C1AA24207DD34
:102800001844824202E0B3F81C319A42C0F25C8460
:102810000126594B1A78984612F0040F1CD0C906AD
:102820001AD5564B1B78DA0616D495F825219AB19D
:10283000534B1B7883B1434B52493EB90A68DB695D
:102840009B1A002B08DA0AF0F3F905E009684FF447
:102850007A7000FB0212DA61002295F8239195F854
:102860002411B5F81C41B5F81E7113463BF902005E
:102870009B08A042C4BF63F07F03DBB20232B842C0
:10288000B8BF43F04003082AF0D12E4C94F8202022
:102890009A4205D194F82120F92A04D8013200E0A7
:1028A000002284F8212084F82030354B264F1A78F6
:1028B0009A46A2B93B68DB0707D586B998F800307D
:1028C000DE070CD505F0B0FE09E098F80030580797
:1028D00005D511B10AF0ACF901E0002EFAD094F858
:1028E0002130184A142B284E40F09B8098F8003075
:1028F00019F1000903F0040318BF4FF0010903F0B8
:10290000FF00002B42D09AF80030002B00F08980A5
:1029100092F820305F2B01D10AF08AF9B9F1000F4B
:102920007FD094F820307D2B7BD10AF081F978E0BC
:102930005825002010020020B81D00200C020020A5
:1029400000010020500D00207C0300200401002025
:102950008E05002000007A44480C0020580C00200E
:10296000590D00200000C84200C07F447E140020A2
:10297000404B4C00740800206825002041020020D4
:102980003C000020B41D00204C02002092F82030B2
:10299000572B0BD1AC4B4FF47A721A80AB4B1B68A0
:1029A00013F008033DD1AA4A13803AE0A968490709
:1029B00014D55A2B12D1A74B197819B118700122CE
:1029C000A54B1CE092F82210A44B81F0010182F883
:1029D000221009B1042212E0062210E05D2B00F063
:1029E000FF825B2B00F0FE825E2B0AD10322FAE20B
:1029F000A72B40F018839A4B1A7842F004021A7001
:102A00000FE0562B01D109F035FC9AF80030002B6D
:102A100000F0FF8294F820306F2B40F0F48205F034
:102A200003FEAB685B0733D594F82230A3B198F866
:102A30000030580710D58B4BBBF90620B3F81C317A
:102A40009A4209DD3B6813F0010305D1864A322121
:102A50001180864A82F822303B68D9030AD5844B1C
:102A60001A782AB97B4A127812B97F4A322111802A
:102A700001220CE0774B1A7852B198F8002002F04E
:102A8000040202F0FF011AB91970734B01221A7087
:102A9000D6F80090002309F1790A3B6009F17B0622
:102AA00098460AF1020303EB080113F808204B785B
:102AB00016F8010C9A420AD2314607F03DFB30B1BC
:102AC00016F8023C01229A403B6813433B6008F130
:102AD0000408B8F1A00F06F10406E2D1654B1B789B
:102AE00043B13B68DFF8648113F0020F624E40F09F
:102AF000A28197E109F21912039209F58D769846A1
:102B0000039A16F8010C531C03EB080113F8082074
:102B10004B789A422DD2314607F00EFB48B396F817
:102B200002C0564B0CF1FF3C0CEB4C0C6344019380
:102B300033794FF00C09009300984C4B09FB00F9D6
:102B400003F1240A0AEB09014A68019896F803C0C8
:102B500082420ED000220AF809C048608A600099BB
:102B6000012202FA01F093F8542022EA000083F8CF
:102B7000540008F10608B8F1480F06F10606BFD167
:102B80003F4B404A1E68D2F800A0DFF8FC804FF0AF
:102B90000009D8F80030002B00F03B81197800299B
:102BA00000F03781D8F80420C2EB0A02002A0CDBBF
:102BB0000AF5FA72C8F80420012202FA09F294F820
:102BC000540020EA020284F8542018F8042C5878A3
:102BD0000432D2B2002840F0E180B5F81A013BF986
:102BE000122000F1C80C624501DD9B7813E0C83863
:102BF000824202DA9B785B420DE0012303FA09F37B
:102C000094F8542022EA030384F854300AF5FA7346
:102C1000C8F80430FDE094F8542042FA09F2D207D3
:102C200000F1F780002B0D4ACCBF022001200139B2
:102C300010700A2900F2E580DFE801F028313D4AF2
:102C4000535C6E80929CA600642500204402002004
:102C500048030020FD020020FF020020FE020020A9
:102C600041020020B81D0020E4020020500D002089
:102C7000FC0200206725002080030020A027010817
:102C800014040020B41D0020780D00203278134475
:102C9000FA2BA8BFFA2323EAE373337007E07278B4
:102CA0001344642BA8BF642323EAE3737370304694
:102CB00000F010FCA5E0F27830461344642BA8BF66
:102CC000642323EAE373F370A16D00F0BFFB98E087
:102CD00032791344642BA8BF642323EAE37333716E
:102CE0008FE072791344642BA8BF642323EAE37353
:102CF000737186E0E16D4A781A44C82AA8BFC822D9
:102D000022EAE2724A700A781344C82BA8BFC8238B
:102D100023EAE3730B7074E0E16DCA7A1A44C82A9F
:102D2000A8BFC82222EAE272CA728A7A1344C82B68
:102D3000A8BFC82323EAE3738B7262E0E16D4A7D8A
:102D40001A44C82AA8BFC82222EAE2724A750A7D3C
:102D50001344C82BA8BFC82323EAE3730B7550E0C4
:102D6000E26D91780B44C82BA8BFC82323EAE37314
:102D7000937046E0E26D117B0B44C82BA8BFC823BB
:102D800023EAE37313733CE0E26D917D0B44C82B9F
:102D9000A8BFC82323EAE373937532E0012830D13A
:102DA0003BF912209878B2F5617F05DB40F63303DA
:102DB0009A42B8BF134601E04FF461730C2920D149
:102DC0004FF4966292FBF0F0A3F5617393FBF0F37E
:102DD00094F86020DBB29A4213D0032BA84994BF29
:102DE0001A4602220A2084F8602000FB0212A5483D
:102DF00006320260029300F087FB029BA24A013375
:102E00001370012303FA09F394F85420134384F850
:102E1000543009F10109B9F1040F08F10C087FF4ED
:102E2000B8AE5EE6AB68D80514D5984B1B681B6836
:102E30009B68984770B1D8F800309B070AD5338853
:102E400013F001020CD1924943F001036266A266BD
:102E50000B8006E03388012223F00103338000E079
:102E600000223B68590710D57AB1328822F001015F
:102E700002F0020289B292B2318052B96266A26651
:102E8000834A41F00201118003E0328822F00202FD
:102E90003280D8F80020940607D43B68180540F12A
:102EA0009080338843F480738EE07A4A12789107D9
:102EB00052D5794A1278042A4ED913F400700ED0F4
:102EC0003388DA06E9D47548714A23F0200343F0C9
:102ED0001003011D138003F0B5FA022245E031888A
:102EE00001F0100292B232B1694A21F01001118052
:102EF0006B4A107001225C0528D56A4B1B68598902
:102F0000694BB3F900000028B8BF4042884209DA93
:102F1000B3F90230002BB8BF5B428B42ACBF002339
:102F2000012300E000238BB13388980620D4584A4F
:102F300043F0200313805D4B5D481A685B68011DF8
:102F40000260436003F07EFA01220EE033889906A6
:102F50000ED523F0200305E0338813F0300F9CD00A
:102F600023F030034A4A138000224D4B1A7001E0CF
:102F7000002A92D000231A464E49002050524E4952
:102F80004E4C50524E4904EB030C50520021195143
:102F90000232CCF80400CCF8081004F1280C5034AC
:102FA00043F80C1019519C441C44042ACCF804002A
:102FB000CCF808106060A16003F114033FF46DAF1A
:102FC000DAE7338823F4807333806B79082B02D0DF
:102FD0000E2B40F08C80338823F04003338086E052
:102FE000012200E002225FFA82F909F1FF3385F83D
:102FF000643702F013FD08F035FE022028214A460E
:1030000000F084FB0DE5B9F1000F02D07E2B3FF4F8
:1030100006AD94F82030972B7FF4EAAC294B4FF49F
:10302000C8721A80FDE40022BB2B059201D1022355
:1030300003E0B72B04D14FF6FE73ADF816300AE06B
:10304000BE2B01D1022304E0BD2B7FF4EAAC4FF686
:10305000FE73ADF814303368BDF81410B3F858207F
:103060000A44A3F85820BDF81610B3F85A200A44B1
:10307000A3F85A2009F0FEF8002384F82130D0E4A8
:103080001825002014040020FE02002074080020EF
:10309000800300204102002040020020300D00206B
:1030A000440D002008040020FA03002054040020EE
:1030B0003C0D00205C2500200C040020BC0D0020ED
:1030C00010040020D00200200A4B002600225E6679
:1030D0009E66C3F8E460C3F8E860C3F8EC60C3F828
:1030E000F020C3F8F420C3F8F820FFF792BB07B034
:1030F000BDE8F08F500D0020064B1A780AB100226F
:103100001A7003788B4286BF034B33F811000020FE
:10311000704700BF080200201C1400201E4B2DE940
:10312000F0431A781D460AB31C4B07781E781C4BD7
:1031300093F800C002231B4A03F10108D45C344118
:1031400004F00F04BC420CD20B2C0AD812F80390E6
:1031500012F8088002EB840209EA0C0408EB04244C
:1031600014610233102BE6D100232B7003788B42BD
:103170000FD90C4B93F8400060B10B4A89001278CC
:103180000B44186902B1400800F5777080B2BDE8C1
:10319000F0830020BDE8F0830801002078080020BB
:1031A000790800204C0E00207A08002007299ABFD9
:1031B000024B33F821000020704700BFE8010020D7
:1031C000024B53F82100C0F3CF007047900100205C
:1031D00008B5074B53F821000AF0FCFA05490AF03C
:1031E00051FB05490AF046FA0AF038FD80B208BDE5
:1031F000280100200000203F00005C44014B33F810
:10320000110070478E050020014B33F81100704704
:1032100034140020034B4FF4004208B11A61704788
:103220005A61704700080140034B4FF4004208B157
:103230005A6170471A61704700080140032810B5B1
:10324000114B0FD8114A126894888C420AD2D28846
:103250008A4207D9012202FA00F093F84120104374
:1032600083F8410093F841300F2B0CD1064B00221C
:1032700083F84120064B998808B2142802DD1439DE
:10328000998010BD9A8010BD4C0E0020B01D00200A
:1032900068080020024B9A8801329A80704700BF6C
:1032A00068080020074B1A68074B1178B3F904002F
:1032B00053780B4403EB83039842D4BF00200120D2
:1032C000704700BFB01D002068080020064BB3F90E
:1032D0000400064B1B681B7803EB83039842D4BFA2
:1032E00000200120704700BF68080020B01D0020AA
:1032F00010B50446FFF7EAFF002814BF204600205F
:1033000000F0010010BD024B01221A72704700BF8D
:1033100068080020014B187A704700BF6808002039
:10332000034BB3F90400D0F1010038BF002070470F
:1033300068080020014B00229A807047680800202E
:1033400003685A1C02601970704738B50C6805464E
:1033500020460DF037F8214602462868BDE838407F
:103360000DF038B8034B1B68DA79511CD97113443E
:10337000187A7047D804002010B5FFF7F3FF044611
:10338000FFF7F0FF04EB002080B210BD10B5FFF78F
:10339000F3FF0446FFF7F0FF04EB004010BD094BBC
:1033A0005A6882420AD01A69824206D0DA69824299
:1033B00008BF183302D0002300E00C3300225A72F9
:1033C0005A6070475400002038B50E4D04462B68F3
:1033D000834207D10121FFF7E2FF284600214C225A
:1033E0000CF0AFFFEB6CA3420AD120460121FFF79E
:1033F000D6FFBDE83840044800214C220CF0A1BFA4
:1034000038BD00BF780C0020C40C00200E4B1A7A87
:10341000824215D01A7D82420FD093F8202082423A
:103420000DD003F124011A7A024001D043B909E01A
:103430000C338B42F7D1104670470C3300E0183341
:103440005868704718467047540000202DE9F0472F
:103450008278C6781E4BC2F1640802EB820C54429B
:103460005FFA88F84FEA4C0CC6F16409A4B203F184
:103470001807A5B228B2002804DC002D14BF154699
:10348000012500E0454600FB00FA6D430AFB06FA01
:103490009AFBF5F54D4468434FF00A0A90FBFAF0A9
:1034A000604480B258800D88B1F802A000B2C5EB2C
:1034B0000A0A00FB0AF04FF47A7A90FBFAF005440E
:1034C00023F8025F0A34BB42A4B2D2D1BDE8F08730
:1034D0001E0C002010B544780078002303FB03F194
:1034E0001939614301F6C4115943414340F6C412EE
:1034F00091FBF2F1034A22F813100133072BEDD1AF
:1035000010BD00BF080C002010B5044C2068FFF768
:10351000E1FF20680249BDE8104097E7140400204D
:10352000881E002010B5094A094913688C68126882
:103530009342F8D1074A106811684FF47A725043E9
:10354000001BB0FBF1F002FB030010BDB41D002016
:1035500010E000E0D805002038B5104C01230546E6
:1035600084F84030FFF7DEFF636C41F28832C31A03
:103570009342A36484BF002384F84C3094F84C3009
:10358000EDB20F2B6064E55403D1054B01221A7094
:1035900038BD024A013382F84C3038BD4C0E002051
:1035A0000801002010B50446FFF7BCFF0D4B41F2A7
:1035B00088311A6D1865821A8A425A6584BF0022C2
:1035C00083F8582093F85830074A142BD45403D169
:1035D000064B01221A7010BD024A013382F858309E
:1035E00010BD00BF4C0E0020D1010020D0010020F2
:1035F00010B50446FFF796FF164AD36DD065C31A7F
:10360000B3F57A6F84BF002382F8603092F860309F
:1036100023B9A82C1CD110490B7006E0022B02D153
:103620000E490C7001E0242B01D80D49CC54013314
:10363000DBB282F86030094A1278520005329342B8
:1036400006D1044B002283F86020034B01221A703C
:1036500010BD00BF4C0E0020680100208E0100202C
:103660006901002010B50446FFF75CFF164B1749AF
:103670005A6E121A002ABCBF002283F8682093F801
:10368000682000F6C41058668C5408460AB90F2CFE
:1036900019D10132D2B2192A0B4983F8682008D116
:1036A000027E12B90A4A01211170002283F86820B3
:1036B00010BD074B1A7822B191F86920013281F8C8
:1036C000692000221A7010BD4C0E00200A01002053
:1036D0000901002038B50446FFF724FF0546FFF72F
:1036E00021FF401BA042FAD338BD10B504462CB1CF
:1036F0004FF47A70FFF7EEFF013CF8E710BD08B514
:10370000014B1B68984708BD6C2500202DE9F0414E
:1037100006460F4690460025EBB2434518D20024DA
:10372000E3B2B3420FD20B4B0120DA68013482F0CE
:103730000802DA60FFF7E3FF3846FFF7D6FF002004
:10374000FFF7DDFFECE73C20FFF7CFFF0135E3E7B4
:10375000BDE8F081000C014040F2DB14604308B585
:103760000A4B08221A61841E084B2046DA6882F050
:103770000802DA60FFF7B9FF0120FFF7C0FF192048
:10378000FFF7B3FF0020FFF7BAFFEDE7000C0140A1
:1037900008B503685B69984708BD08B503681B69ED
:1037A000984708BD08B50368DB68984708BD08B5A9
:1037B00003689B68984708BD08B503685B6898472D
:1037C00008BD10B5044C2068FFF7F6FF18B120685B
:1037D000FFF7EDFFF6E710BDC004002008B5036851
:1037E0001B68984708BD064B10B50446214618686B
:1037F000FFF7F4FF034B1B689A7954409C7110BD8E
:10380000DC040020D804002038B5044624200D46EE
:10381000FFF7E9FF4D20FFF7E6FF002C084C0CBF37
:103820003E202120FFF7DFFF2368002228469A71FF
:10383000FFF7D9FF236893F84900BDE83840D2E785
:10384000D804002001460020DEE7F8B50E4E0F4CEC
:103850000F4DC1B20746306884F86A10FFF7BEFF0B
:103860002B6894F86A109A7930684A409A71C7F3C5
:10387000072184F86A10FFF7B1FF2B6894F86A10EB
:103880009A794A409A71F8BDDC0400204C0E002061
:10389000D8040020F8B51B4D1B4C1C4F0646C1B286
:1038A000286884F86B10FFF799FF3B6894F86B1059
:1038B0009A7928684A409A71C6F3072184F86B10F8
:1038C000FFF78CFF3B6894F86B109A7928684A40A0
:1038D0009A71C6F3074184F86B10FFF77FFF3B68CE
:1038E00094F86B109A7928684A409A71310E84F8DE
:1038F0006B10FFF773FF3B6894F86B109A794A409E
:103900009A71F8BDDC0400204C0E0020D804002081
:1039100010B5441E14F8011F21B1034B1868FFF7BE
:103920005DFFF7E710BD00BFD4140020014B1868FD
:1039300054E700BFFC1B002038B50546044620466E
:1039400014F8011B21B1034B1868FFF747FFF6E796
:10395000401B38BD1C100020014B014618683DE794
:103960001C10002010B504467F2C06D964F07F009F
:10397000C0B2FFF7F1FFE409F6E7E0B2BDE810409E
:10398000EAE738B5184B05461B780C46082B2AD1B8
:103990004520FFF7E1FF2846FFF7DEFF0A2D0BD099
:1039A00001D82DB138BD0B2D0BD0FF2D14D038BD53
:1039B0002068BDE83840D5E72078FFF7CDFF607874
:1039C00000E02078FFF7C8FFA078FFF7C5FFE07898
:1039D000FFF7C2FF207903E00448FFF7ADFF0020A6
:1039E000BDE83840B8E738BDF00B0020E13B0108E6
:1039F000430083EAE070B5E770B5134E134C144DE5
:103A00004720FFF7A9FF3078FFF7ACFF236828684D
:103A1000C01AFFF7EDFF63686868C01AFFF7E8FF98
:103A20000C4B1888FFF79EFF0B4B1888FFF79AFF87
:103A30000A4B1888FFF796FF337823742B68A3602E
:103A40006B68E36070BD00BF4002002008100020DA
:103A5000540400204A040020480400208014002060
:103A6000014B1868BAE600BF1C100020A0F17D03CE
:103A7000012B70B504460D460A4E05D830687D21ED
:103A8000FFF7ACFE84F0200430682146FFF7A6FE65
:103A900035B12B881C4404EB142404F0FF042C8063
:103AA00070BD00BFE804002038B5054C05465E2116
:103AB0002068FFF793FE20682946BDE838408DE670
:103AC0002C040020014B5E21186887E62C0400209E
:103AD00010B50A4C5E280146206805D15D21FFF72C
:103AE0007DFE20683E2105E05D2903D1FFF776FECB
:103AF00020683D21BDE8104070E600BF2C04002086
:103B000010B50446C0B2FFF7E3FFC4F30720BDE8D9
:103B10001040FFF7DDBF064B1B6803EBC00090F9B8
:103B2000063019420CBF01204FF0FF30704700BF34
:103B30002C1C00200A4B1A6802EBC002D379FF2B21
:103B400007D008490978994203D9074A32F8130087
:103B500004E00728D4BF908840F2DC5000B27047E0
:103B60002C1C00207B1400208E05002010B5054C75
:103B70000020218808F049FF61880120BDE810403D
:103B800008F043BF120000202DE9F04F0C68836855
:103B900089B0D0F800A0D0F80480064620460393F0
:103BA0008B460CF0FDFD074620460CF06DFEDBF861
:103BB0000440814620460CF0F3FD054620460CF0FB
:103BC00063FEDBF808200446104601920CF0E8FD85
:103BD000019A834610460CF057FE3946029058462B
:103BE00009F050FE39460490029809F04BFE594600
:103BF0000590484609F046FE02990690484609F0AD
:103C000041FE29460790584609F03CFE01465046C1
:103C100009F038FE21468346069809F033FE014636
:103C2000059809F027FD0146404609F02BFE0146A4
:103C3000584609F01FFD21468346049809F022FEEC
:103C40000146079809F014FD0146039809F01AFE91
:103C50000146584609F00EFD3060029905F100401A
:103C600009F010FE0146504609F00CFE214683463D
:103C7000079809F007FE0146049809F0F9FC01468F
:103C8000404609F0FFFD0146584609F0F3FC214685
:103C90008346059809F0F6FD0146069809F0EAFC0E
:103CA0000146039809F0EEFD0146584609F0E2FC92
:103CB00021467060504609F0E5FD2946044609F1A9
:103CC000004009F0DFFD0146404609F0DBFD0146FA
:103CD000204609F0CFFC39460446284609F0D2FDBB
:103CE0000146039809F0CEFD0146204609F0C2FCCA
:103CF000B06009B0BDE8F08F2DE9F84F2E4E0446B4
:103D0000376838460CF04CFD054638460CF0BCFDD3
:103D10007668804630460CF043FD834630460CF012
:103D2000B3FDD4F8049006462946484609F0AAFD9A
:103D3000A76882464146384609F0A4FD0146504630
:103D400009F096FC21688246584609F09BFD4146E1
:103D50000446484609F096FD314609F093FD0146B8
:103D6000204609F087FC31460446384609F08AFDB2
:103D7000294609F087FD0146204609F07BFC0146F3
:103D800050460CF00FFE0D4909F07CFD0C4909F07E
:103D90002DFE0C4B196809F06DFC0B4909F026FE4D
:103DA0000CF034FD83B21A0444BF00F5B4739BB227
:103DB00018B2BDE8F88F00BF300300200000E144D6
:103DC000DB0F49401806002000002041064B1B78FD
:103DD00003F0040303F0FF001BB1044B1888C0F389
:103DE000C01000F00100704768250020800300200B
:103DF0002DE9F04102780346202A00F10100F9D0B4
:103E0000092AF7D02D2A02D10346414D04E02B2A7E
:103E100008BF03464FF07E551E460024334616F871
:103E2000012BA2F13007F9B209290DD839492046F2
:103E300009F028FD0446384609F0D0FC014620462A
:103E400009F018FC0446E9E72E2A17D1314F334612
:103E500016F8010B3038C2B2092A0FD809F0BEFC9F
:103E6000394609F0C3FD0146204609F003FC294903
:103E70000446384609F006FD0746E8E71A7802F0DE
:103E8000DF02452A38D15A782D2A02D10233012681
:103E900004E02B2A14BF013302330026013B002724
:103EA00013F8012F303AD1B2092903D80A2101FBB6
:103EB0000727F5E7B7F59A7F28BF4FF49A77B846FA
:103EC0004FF07E51B8F1070F07D90846124909F0A3
:103ED000D9FCA8F108080146F4E707F0070737B155
:103EE00008460C4909F0CEFC013F0146F7E72EB128
:103EF000204609F07BFD04E04FF07E51204609F09A
:103F0000C1FC0146284609F0BDFCBDE8F08100BFB8
:103F1000000080BF0000204120BCBE4CF0B5012451
:103F2000B0FBF4F58D4201D34C43F9E70026DCB138
:103F3000B0FBF4F504FB1500B4FBF1F41EB9002D41
:103F400001DC002CF3D1092D03F101075FFA85FC98
:103F500004DD002A0CBF5725372500E030256544D5
:103F60001D7001363B46E2E71C70F0BDF0B5012440
:103F7000B0FBF4F58D4201D34C43F9E70026DCB1E8
:103F8000B0FBF4F504FB1500B4FBF1F41EB9002DF1
:103F900001DC002CF3D1092D03F101075FFA85FC48
:103FA00004DD002A0CBF5725372500E03025654485
:103FB0001D7001363B46E2E71C70F0BD70B5064649
:103FC000B6FBF2F40846154614B12046FFF7F6FF9B
:103FD00005FB1464024B1B5D00F8013B70BD00BF84
:103FE000EC3B0108224B70B519684FF47A73B1FBB2
:103FF000F3F1204B20481A78204B214D1B7805F017
:1040000043F8204B20481968204B2E68B1FBF3F190
:1040100005F03AF800241E4BE2B253F8221049B1E1
:10402000012303FA02F2324202D01A4805F02CF8BA
:104030000134F0E72A6892070DD5174A174812781D
:1040400003EB8203196A05F01FF8154B197A11B1B9
:10405000144805F019F81448FFF75AFCBDE8704001
:10406000124B1348198800224FF4F16305F00CB885
:10407000B41D00203C040020113C010880000020F9
:1040800044020020840000204F3C010840420F0001
:10409000C42701086D3C01086A250020713C010815
:1040A000BC0200207B3C0108C046010874030020CC
:1040B0007F3C010808B540F2E9330D4A11898907B0
:1040C00009D5908140F2E933094A1189C9070AD517
:1040D0009089C0B208BD013B9BB2002BEDD108F026
:1040E000D8FCFF2008BD013B9BB2002BECD1F6E7CA
:1040F000003001402DE9F043214C137CA468814637
:1041000004F0400C022B37D80C255D431D4C0133C5
:104110002E19377A19EA070F2CD02D5D3DB1022DEB
:1041200004D01E2D14BF0325022500E00125164FE3
:104130004FEA051808EB0704BCF1000F03D118F88B
:1041400007701E2F16D04F7B94F80C8007EA0808E2
:10415000B8450FD148686768B8420BD38868A7682C
:10416000B84207D8157094605660D1601374104639
:10417000BDE8F083DBB2C5E70020BDE8F08300BFF7
:10418000B81D002054000020382B0108094B30B521
:104190009D68094B05F480551868084B1C6800237E
:1041A0000DB1828800E0A28805495A520233182BCB
:1041B000F6D130BDB81D0020301C0020341C00207A
:1041C000160D0020F8B50024204BE0B21F78B8424D
:1041D0000CD21F4B33F810101E4B53F820301BB17C
:1041E0000B2801D8DB6898470134EDE71A4B9B6830
:1041F0005B032AD50025194E2B46EAB2BA4224D2D7
:10420000726854689C4218D0204608F0BCFBEFF35B
:104210001283502282F3128811494FF0280CA28C8D
:104220000CFB001092B201324262A28ADBB292B25F
:1042300042F00102A28283F3118856F8043F002263
:104240001B6801351A802346D7E7F8BD702500208A
:104250004025002054070020B81D002050070020F2
:10426000681C00202DE9F04FAE4E85B03778032F43
:1042700014D9AD4BAD48B3F90410B0F904200029AE
:10428000B8BF49426FF063035B1A9A4204DB01F145
:1042900064039342A8BF134683801FE0012F1DD8FB
:1042A000A34BA44C1B78013B142B00F2E181DFE807
:1042B00013F09100DF01DF0168009F00DF01DF01E3
:1042C0002F01DF01DF01DF01DF01DF01BD00DF01C1
:1042D000DF01DF01DF01DF01A101B801924B964947
:1042E000B3F806A0914B0968B3F80280B3F80090C8
:1042F000B3F904B0914C02910025BD4204F11004C1
:10430000CED20FFA8AF009F069FA54F8101C09F0BD
:10431000B9FA03460FFA88F0019309F05FFA54F8EE
:10432000081C09F0AFFA019B0146184609F0A2F9F2
:1043300003460FFA89F0019309F050FA54F80C1C67
:1043400009F0A0FA019B0146184609F093F9029A78
:10435000034692F90000019340420BFB00F009F084
:104360003DFA54F8041C09F08DFA019B01461846E9
:1043700009F080F909F04CFC714B23F81500013568
:10438000BBE702210420FFF7C6FB684D0121AF887F
:1043900078431FFA80F80420FFF7BDFB6D8800FB0F
:1043A00005801FFA80F80420FFF7C4FB40442081F9
:1043B00002210520FFF7AFFB7843012187B20520DA
:1043C000FFF7A9FB00FB057087B20520FFF7B2FBE2
:1043D00038440BE005200121FFF79DFB534B9D88DE
:1043E000684385B20520FFF7A5FB284460813FE1C3
:1043F000544B00201D68FFF79DFBDFF8648195F9A1
:104400000630B8F902203227534393FBF7F31844E0
:1044100020800120FFF78EFB95F90E30B8F90020BF
:10442000534393FBF7F73844608021E1464B1B78F8
:1044300013F0040F454B02D11B689B880BE01968F1
:10444000394A0B88B2F9062049889A4203DB914227
:10445000B4BF0B461346E381E289394B394F1A80CA
:104460003B4B1B681D7845B30220FFF763FB3A689E
:10447000B2F91030518A984203DB0BB29842B8BFB0
:104480000346344909684889C3EB000E324B0FFAE2
:104490008EFE19880FFA81FCF44501DA0D4401E023
:1044A00001DD4D1B1D8092F91620B3F900305343F6
:1044B000642293FBF2F31844A080284B1B88DB0591
:1044C0000CD5194B1A88D7F80090E28022819A887F
:1044D000184F62815B880325A38101E0134BF1E74C
:1044E00009EBC50393F90630B7F90680284608FBA7
:1044F00003F8642398FBF3F8A7F80680FFF71AFB8C
:1045000001354044072DF88007F10207E8D1AFE0FC
:104510000D4B1B7813F0040F0C4B23D11B689B88A9
:104520002CE000BF70250020FA030020241C00208E
:104530001C0400201200002020040020A4070020FA
:10454000402500202C1C002068250020341C002061
:10455000381C00203C1C0020B80E002080030020E6
:10456000380300201968AD4A0B88B2F90620498843
:104570009A4203DB9142B4BF0B461346E381E289C2
:10458000A74BA84D1A80A84B03201B880121DF05EB
:1045900003D5FFF7C0FAA14F02E0FFF7BCFAA34F23
:1045A000B7F80280022100FB08F01FFA80F903200F
:1045B000FFF7B1FA3F88012100FB0790E880042053
:1045C000FFF7A9FA00FB08F002211FFA80F8042087
:1045D000FFF7A1FA00FB078028810320FFF7AAFA62
:1045E000E3881844E0800420FFF7A4FA23891844E4
:1045F00020813DE001210420FFF78DFA8B4D6F886B
:10460000784387B204202781FFF794FA3844208149
:1046100001210520FFF77FFA2D88684385B2658167
:10462000E0E6824B0325B3F8049098462846022121
:10463000FFF771FA00FB09F0012187B22846FFF766
:104640006AFAC5F106035B0838F8133000FB037003
:1046500087B224F815702846FFF76CFA384424F81E
:1046600015000135072DE1D16C4BDA886C4B1A80AF
:104670006F4DDFF8E491AB6813F0200F34D00020C9
:10468000FFF758FA208080460120FFF753FA694B64
:10469000644F1B6860801A0626D5674B1B681B7821
:1046A00013F0020F654B23D0D9F800C0B3F9001006
:1046B0009CF90E209CF906C0B3F902304A43CCF1B4
:1046C000000C03FB0CF3322192FBF1F26FF0310C82
:1046D00092B293FBFCFC9444E04493FBF1F1A7F805
:1046E00000800A4410447880D9F80010002319E0B3
:1046F000D9F80010B3F902C091F90620B3F90030DF
:104700000CFB02FC32229CFBF2FCE044A7F8008088
:1047100091F90E104B4393FBF2F2E3E7E2520233BE
:10472000102B0CD0E05E31F9232001EB830790427F
:104730007F88F3DB3AB28242A8BF0246EEE73E4BE7
:104740001B681B785B0704D435493478088801233B
:104750001BE03B4B00241F780423043FFFB25FFAA9
:1047600087F84FFA88F2D4420BD4364A03F1010994
:10477000381932F813105FFA89F9C0B208F045F918
:104780004B460134042CECD1DEE7A34208D231F9C8
:10479000132000B28242A8BF104680B20133F4E772
:1047A000294B4FEA44081A68AB6803F48055039517
:1047B000244D03F01009254BB5F90660244D1B78F4
:1047C0002F68244D03F00403DBB2D5F800C0029338
:1047D0000023434562D0B2F802A004B2544505DD7F
:1047E0000F4CC0EB0A0A1D5B55441D53039D0C4C36
:1047F000002D33D07D8931F903A0AE42CBBFBCF888
:1048000002509588B2F802B0BCF800B0AA4503DBAC
:10481000DA45B4BF55465D46E55238E0FA0300205C
:10482000402500201200002080030020241C0020CE
:10483000B81D00207C030020401C0020380300200D
:10484000270600208E050020341C0020682500204B
:104850003C1C0020301C00202C1C002031F903A03F
:104860001588B2F802B0AA4503DBDA45B4BF554655
:104870005D46E55204EB030ABC89A64207DAB9F1AA
:10488000000F01D1148800E09488AAF80040029C2F
:1048900014B9044C1C5BCC5202339AE705B0BDE856
:1048A000F08F00BF160D002070B5184E10237361F5
:1048B00040F080000C461546FFF7FCFB144B9B892B
:1048C0004FF47A737DB1124A1189880706D5FF210A
:1048D00091810F4A1189C90711D509E05A1E92B278
:1048E00023B908F0D6F81023336170BD1346EAE708
:1048F000928992B20CB122700134013DE2E75A1E56
:1049000092B2002BEDD01346E3E700BF0008014050
:104910000030014070B5054C10250E466561FFF76B
:10492000C9FB3046FFF7C6FB256170BD000801409A
:1049300008B5284B80211A886B2022F0400212040F
:10494000120C1A801A8822F038021204120C42F05B
:1049500030021A801A8892B242F040021A80FFF7A1
:10496000D9FF9620FEF7C1FE03216820FFF7D2FF92
:104970009620FEF7BAFE03216B20FFF7CBFF012044
:10498000FEF7A8FE10216A20FFF7C4FF0120FEF702
:10499000A1FE00216C20FFF7BDFF0120FEF79AFE6B
:1049A00000211920FFF7B6FF0120FEF793FE10212A
:1049B0001C20FFF7AFFF0120FEF78CFE1B20182103
:1049C000FFF7A8FF0120FEF785FE034B01221A70B6
:1049D00008BD00BF0030014010060020144B13B585
:1049E0009B681B0321D5134B134C1B7813498DF87F
:1049F0000030134B20681B788DF8013008F042FF1F
:104A000009F02CF90F498DF80200606808F03AFFB0
:104A100009F024F98DF80300A06809F01FF9694630
:104A20008DF804000A20FEF7ACFF02B010BD00BFF5
:104A3000B81D002082030020EC030020000020416C
:104A4000DA03002000007A44054B1A7882F0010254
:104A50001A70044A00231360034A1360BEE700BFC4
:104A6000D9030020DC030020E0030020826A816972
:104A7000436B1144D960416A914203D98A1A5A6042
:104A8000816204E001698A1A5A600022826200226F
:104A900080F844201A6842F001021A60704700BF93
:104AA0002DE9F04F924D8BB02B78023B072B00F293
:104AB0004684DFE813F008002E004F0066007A00FD
:104AC00003015B012F048B4B8B4E1A6873686433B0
:104AD0009A4240F234840024884B894A1B789C42D5
:104AE0000ADA3368844FD05C30B1FEF735FF3B689B
:104AF000013401333B60EFE731687F4B525C002AA1
:104B000040F01D841A604FF0FF325A60032300F01A
:104B100015BC1F2300937B4B062103F10C0201936C
:104B20000292A3F12100A3F10902033300F03AFE3F
:104B3000002840F00484744B9B6813F080026E4B95
:104B400005D04FF0FF3218605A600423F6E31A6074
:104B50000623F3E302236D4800930023019302939D
:104B6000042100F1100200F1180300F01BFE0028E0
:104B700040F0E583604B4FF0FF3218605A60052328
:104B8000DCE363480023062401930293009404218C
:104B900000F1100200F1180300F004FE002840F0BC
:104BA000CE83554B2C701860C9E3534C236813B95E
:104BB000636001232360514B1A7863681344402BD0
:104BC000A8BF4023132B636040F3B9834A4B1B6893
:104BD0000C2B00F2B283DFE803F06D070D141C27E5
:104BE00031363F474F5865004A4804F03BFA636846
:104BF0001C3B5EE04848494904F034FA63681E3BB8
:104C000057E047484749484A04F02CFA6368293B73
:104C10004FE03D4B454893F8841793F8852704F0FF
:104C200021FA6368133B44E0374B0A2193F8642769
:104C30003F4801FB023393F8661718E0324B3D48BA
:104C4000B3F8D01003E0304B3B48B3F8D21004F077
:104C500009FA6368113B2CE0384B3948D96804F0F5
:104C600001FA6368183B24E0364B3748198804F092
:104C7000F9F963680C3B1CE0234B344893F80411AA
:104C800004F0F0F963680F3B13E01F4B304893F8D2
:104C9000061193F8072193F8053104F0E3F96368EE
:104CA0001B3B06E02B4B2C48198804F0DBF96368AA
:104CB0000D3B636023680133236040E3274B0024EE
:104CC0001C60274B1C60274B1C6008232B70FEF7D1
:104CD00029FC0AAD45F8140D0120FEF710FD224B0A
:104CE0000122204629461A70FEF74BFE27E300BF3B
:104CF000F00B0020B41D0020000C00203D0000201F
:104D000010280108A5280108B81D0020102A010854
:104D1000302A0108153D0108323D01084A3D0108CD
:104D2000523D0108693D0108753D01087E3D0108BD
:104D3000923D01089F3D0108B13D0108500200204D
:104D4000C33D010800000020D63D0108E33D0108F5
:104D5000F33D0108BC0E00200F3E0108FC0B0020B3
:104D6000F80B0020F40B0020FE020020BB4B18685B
:104D7000002840F09D80BA4D07F0E6FB49206C68A2
:104D8000FEF7EAFDB74B0D261868FEF7EBFD20682D
:104D9000FEF7E8FD6068FEF72BFEA068FEF728FE30
:104DA000E068FEF725FE2069FEF722FE6069FEF747
:104DB0001FFEA069FEF71CFE0122B2402B691A42B9
:104DC00005D004EB860353F8180CFEF711FE0136EC
:104DD000102EF1D1B4F92800FEF70AFEA24EB4F964
:104DE0002A00FEF705FEB4F92C00FEF701FEB6F826
:104DF000D030B4F92E00C01AFEF7B4FD2B69DF04E1
:104E000008D5974B1888B4F86430C01AC0F30D0069
:104E1000FEF7A8FDB4F93000FEF7EAFDB4F9320060
:104E2000FEF7E6FDB4F93400FEF7E2FDB4F9360012
:104E3000FEF7DEFDB4F93800FEF7DAFDB4F93A000A
:104E4000FEF7D6FDB6F8D030B4F93C000126C01A02
:104E5000FEF788FD854B1B789E420ADA04EB460379
:104E6000B3F93C00B4F93C300136C01AFEF7C0FD7E
:104E7000F0E72B699C0507D5794B5B68B3F95E00B9
:104E8000A0F2DC50FEF7B4FD6B68794A7949AB605B
:104E9000EB609B1ADB104B430321013393FBF1F1D1
:104EA00001EB41015B1A682101FB03226A6021E2E8
:104EB0006D4B013893F8842793F885171044B0FBA5
:104EC000F1F401FB1401914280F0D881644D07F0A8
:104ED0003BFB5020D5F80480AF68FEF73DFDEA6843
:104EE0006B6810681B6800241844AB681B68A0EB53
:104EF0004300FEF77DFD08EB04023B1950685B6838
:104F00000434C01AFEF774FD0C2CF4D1002308EB16
:104F10000301FA180969126905AC8A1A1A51043397
:104F20000C2BF4D100221346A15801F120003F2898
:104F300020D801F108000F2806D80231032904D92E
:104F4000002B08BF012300E0022304320C2AEBD11E
:104F5000012B059813D0022B1FD0069B00F00300F5
:104F600003F003039B0043EA0010079B03F00303D5
:104F700018431EE007AB04A94FF0000B1DE000F042
:104F80000F0040F04000FEF7E7FC079B03F00F0224
:104F9000069B42EA0310C0B20BE000F03F0040F075
:104FA0008000FEF7D9FC9DF81800FEF7D5FC9DF8AF
:104FB0001C00FEF7D1FC0D265EE053F804294FEAF1
:104FC0008B0B02F18000FF2810D902F50040B0F5EC
:104FD000803F02D24BF0010B08E002F50002B2F173
:104FE000807F34BF4BF0020B4BF0030B8B42E4D1BC
:104FF0006BF03F00C0B2FEF7AFFC00260BF00303DE
:10500000022BA05D09D0032B12D0012B1ED1FEF77D
:10501000A3FCA059C0F3072018E0FEF79DFCA0599F
:10502000C0F30720FEF798FCA059C0F307400DE03D
:10503000FEF792FCA059C0F30720FEF78DFCA059A3
:10504000C0F30740FEF788FCA059000E0436FEF7B7
:1050500083FC0C2E4FEAAB0BD0D1ACE7F80B002051
:10506000BC0E0020FC0B0020B81D00207025002085
:10507000D00E0020C54EECC40122B2402B691A426A
:105080000AD0B30008EB03023B4452F8180C53F863
:10509000183CC01AFEF7ACFC0136102EECD10023F0
:1050A00008EB0302B2F92810FA18B2F928208A1A7C
:1050B00044F813200233082BF2D108AA04A84FF0B9
:1050C000000952F804194FEA89035FFA83F969B1BC
:1050D00001F108060F2E02D849F0010906E08031DF
:1050E000FF2994BF49F0020949F003098242E8D13F
:1050F0004846FEF731FC0026B246B34609F00301EC
:10510000022916D003291DD0012936D1BBF1000F89
:1051100005D1A2598B4612015FFA82FA2DE0A059FF
:105120004FF0000B00F00F0040EA0A00FEF714FCFD
:1051300023E0BBF1000F0DD0A059C0F3031040EAEB
:105140000A0014E0A059BBF1000F07D1C0F30720FB
:10515000FEF702FCA05DFEF7FFFB0EE0C0F303309C
:1051600040EA0A00FEF7F8FBA059C0F30710FEF76B
:10517000F3FBA25912015FFA82FA0436102E4FEAAD
:105180009909BBD1BBF1010F02D15046FEF7E4FBF8
:105190002B69D80407D5B8F86400B7F86430C01A92
:1051A0000590FEF725FC00246A6804F1180332F923
:1051B0001300AA68013432F91310EA6832F9133087
:1051C00002220B4493FBF2F3C01AFEF711FC032CEE
:1051D000EAD100246A6804F118035B001A44B2F9AA
:1051E0000600AA6801341A44B2F90610EA681344AA
:1051F000B3F9063002220B4493FBF2F3C01AFEF718
:10520000F7FB032CE6D100244E4B1B789C4217DAA7
:105210006A6804F11C035B001A44B2F90400AA682E
:1052200001341A44B2F90410EA681344B3F90430A3
:1052300002220B4493FBF2F3C01AFEF7D9FBE3E71B
:105240002B69990506D5B8F95E00B7F95E30C01A2A
:10525000FEF7CEFBAB686A68EB603B4B3B49AA604C
:10526000D21AD2104A430321013292FBF1F101EB31
:105270004101521A682101FB02336B6034498B688B
:105280001A0637D5334C344D2268D5F84C319A4242
:105290000CD16268D5F850319A4207D12F4A136871
:1052A000102B13D12E4B1B685B060FD14820FEF745
:1052B00053FB2068FEF79CFB6068FEF799FB2368B0
:1052C000C5F84C316368C5F8503111E0254A224BCE
:1052D000117895F85C2191420AD1234AD3F85411F0
:1052E0001068884204D15268D3F858319A4201D0EC
:1052F000FEF782FB1D4B1A6801321A60174B1A68C1
:105300000132202A04D100221A60154B1A6801329A
:105310001A6014E0164B1A68164B5B68C8339A4241
:1053200003D902F015FF012308E00B4BD3F860010D
:10533000FEF733FA0028F4D101E007232B700BB0FD
:10534000BDE8F08F70250020D00E0020C54EECC4C3
:10535000B81D0020300D0020BC0E0020F80B0020EE
:10536000F40B00204002002054040020FC0B00201D
:10537000B41D0020000C00201FB50123ADF808303B
:10538000ADF80410002301A9ADF80A30ADF80C30D7
:10539000ADF8062001F08AFC05B05DF804FB10B5FD
:1053A000A0F513746379DB074CD594F8383213B346
:1053B000236B1868828DC2F34E02828494F83C22DB
:1053C00022B1B4F842220132A4F84222A279197B18
:1053D000012A0CBF02220022FFF7CEFF012384F82E
:1053E0003B32002384F8393284F83A3284F8383278
:1053F000A4F8403210BD94F83B322046012B04BF84
:1054000094F8393284F83A3207F0DAFA94F83B1219
:10541000236BA27949B9012184F83B128A421868AA
:10542000197B0CBF0222002208E0002184F83B1205
:10543000012A1868197B14BF02220022BDE810401F
:10544000FFF79ABF10BD10B5A0F5127494F83C2276
:10545000C2B9A36A616A994229D0591CA069A162A4
:10546000C05C2369C0B299424FEA400343F4007321
:10547000A4F83E324FF00A0384F83D3228BFA262FE
:10548000012312E094F93D327BB1B4F83E1220467C
:105490004B08A4F83E3201F0010107F0A6FA94F897
:1054A0003D32013B84F83D3201E084F83C3294F80F
:1054B0003832002B4FD194F839320133DBB2092B4B
:1054C00084F8393204D12046BDE8104007F078BA9C
:1054D0000A2B40D194F83B322BB9B4F8403243F058
:1054E0000103A4F840326379D9071CD5B4F840020F
:1054F000820501D4C30705D4B4F844320133A4F8BB
:10550000443210E0E36AC0F347000BB198470AE069
:10551000E3696269D054E269E3680132B2FBF3F1F6
:1055200003FB1123E361012284F8382294F83B2223
:105530000023012A84F839320DD1A27984F83B3254
:10554000236B012A1868197B14BF02220022BDE8D0
:105550001040FFF711BF10BD436A8269D154436AFE
:1055600002690133934228BF00234362436B23B196
:105570001B68DB0706D4FFF779BA036DDA6842F0DF
:105580008002DA607047254B10B55343244A254CFE
:1055900012680139B2FBF3F20388013AA04289B2E2
:1055A00092B29BB212D004F50064A0420ED0B0F1CA
:1055B000804F0BD0A4F59834A04207D004F5806446
:1055C000A04203D004F58064A04202D123F070030E
:1055D0009BB2154CA04206D004F58064A0421CBFCB
:1055E00023F440739BB203800E4B81859842028561
:1055F0000FD003F5006398420BD003F54063984247
:1056000007D003F58063984203D003F58063984286
:1056100001D1002303860123838210BD40420F0085
:1056200084000020002C01400010004013B5044607
:105630000068FFF7A8FF236801A81A8892B242F019
:1056400001021A80637B00228DF8043001238DF85B
:1056500005308DF806208DF8073003F06BFC02B0A2
:1056600010BD2DE9F34706461F464FF414737343EC
:1056700045489246C418804626B9444A2263103AE7
:10568000C4F83421424A0025C250032363714FF409
:1056900080734FF00109E3602361D4F8343184F85A
:1056A0003C5284F8389284F8395284F8466258683B
:1056B00004F134029B68626104F59C72A261E162AC
:1056C0002562E561A5626562A4F84252A4F84452DD
:1056D000ADF804300225102301A9C4F808A0A77171
:1056E0008DF806308DF8075007F09AF9236B01A961
:1056F00058689B688DF80750ADF8043048238DF842
:10570000063007F08DF94946204607F06EF9322041
:10571000FDF7EBFF1F4BD4F834911B681D46B5FB1A
:10572000FAF1B1F5803F03D3012DF8D96D08F6E702
:10573000194A4846B3FBF2F289B2D2B2FFF776FFBC
:105740004FF414735E43154B06F5127608EB06050D
:1057500048F8063048462946002204F093FD266B9F
:10576000012F14BF022200223068317BFFF704FEB4
:105770000B4B30466B60291D002204F083FD204650
:1057800002B0BDE8F08700BF20100020883A010871
:10579000F02A01088400002040420F00475400080E
:1057A0009F5300082DE9F84FC2EB030A16460C9BE5
:1057B0000B9A444DC2EB030B6B68044601338946D8
:1057C00018D12B688B4279D23F48FEF7B5F82B6889
:1057D000074654F82300FEF7AFF83C183B48FEF7A5
:1057E000ABF86B68002201336B60394B044483F8DB
:1057F000502213E0002411E0364B1B789C4256DA0D
:105800000B9A92B108FB0BF3D35C01219940324B08
:105810001B68194209D16B6801336B60D5F80480AD
:105820000A9A284F9045E7DB37E0294B93F850124E
:1058300021B12C20FEF790F8013402E0012183F819
:10584000501208FB0AF22B6806EB020823B9B05885
:10585000FEF772F80444DEE74344D878092816D9E5
:105860000A27B0FBF7F03030C0B2FEF775F8154AE2
:105870000234126808EB0201CA78B2FBF7F007FBAA
:10588000102303F13000C0B2FEF766F8C3E73030F2
:10589000C0B2FEF761F80134BDE708D10A20FEF777
:1058A0005BF83A6801323A604FF0FF327A6028685C
:1058B00048452CBF00200120BDE8F88F0020BDE83E
:1058C000F88F00BF000C0020494001085240010839
:1058D000201000203D000020CC0E0020F8B5002252
:1058E000074636491301585CB84204D00132082AF1
:1058F000F7D10020F8BD324E0B4406F51575082F80
:105900000FCB344685E80F001BD009D8022F0ED0EC
:10591000042F16D0012F4FD12A4B1B685B6847E03C
:10592000202F42D0402F06D0102F45D122E0254B0A
:105930001B689B6802E0234B1B681B69C6F8583242
:1059400036E0214B1B681B7853B1013B012B0AD970
:1059500006F0ACFE002814BF4FF46143002304E0BE
:105960004FF4165301E04FF49643C4F85832C4F88C
:105970005C3221E0154B1B681B7A052B1CD8DFE835
:1059800003F00A0A030A0A0A114BC6F85832C6F88D
:105990005C32032306E04FF4E133C6F85832C6F810
:1059A0005C32012384F8613206E0064B1B68DB6839
:1059B000C6F85C322846F8BD0648F8BD702A0108D2
:1059C00020100020100D00202804002004010020D9
:1059D000A0860100741200200E4B1A78582A16D1A6
:1059E0005A88B2F5F16F12D11A79BE2A0FD193F805
:1059F00086270020EF2A0CD113F8012B5040064ACD
:105A00009342F9D1D0F1010038BF00207047002047
:105A10007047704700F8010888FF01084A4B582278
:105A20002DE9F3411A704FF4F1625A80BE221A71C7
:105A3000EF2283F88627002283F8872711461E4627
:105A4000B35C0132B2F5F16F81EA0301F8D13E4B4C
:105A50003E4A83F887173E4B04275A6002F188328A
:105A60005A600020013F17F0FF075DD0384B342209
:105A7000384CDA60C4F309037BB1331903F178437E
:105A8000A3F5FC33D3F800804FF4005000230193BA
:105A900001F002FB0428E5D11BE04FF4302001F0B7
:105AA000FBFA0428DED12A4D4FF430202B6943F055
:105AB00002032B616C612B6943F040032B6101F001
:105AC000EBFA2A6941F6FD73134004282B61D4D008
:105AD000C8E71F4D4FF400502B6943F001032B61C1
