:020000040800F2
:100000000050002045F90008F1F9000845E3000818
:10001000F1F90008F1F90008F1F90008000000000A
:10002000000000000000000000000000F1F90008DE
:10003000F1F9000800000000F1F9000835E30008BC
:10004000F1F90008F1F90008F1F90008F1F90008E8
:10005000F1F90008F1F90008F1F900087DE2000863
:10006000F1F90008F1F90008F1F90008F1F90008C8
:10007000F1F90008F1F900083DE20008F1F9000883
:1000800081E20008F1F90008F1F90008F1F900082F
:10009000F1F90008F1F90008F1F9000879E2000827
:1000A000F1F900084DE10008F1F900085DE10008F0
:1000B0003DE100082DE100081DE10008BDE2000857
:1000C000B5E20008B9E20008B1E20008F1F9000861
:1000D000F1F90008F9E100086DE10008F1F9000804
:1000E000C1E20008F1F90008F1F900080000000081
:1000F0000000000000000000000000000000000000
:0C01000000000000000000005FF808F1A3
:100110002DE9F04F734B744EA3B03360002373602E
:1001200008F09AF818B905F023FD08F0B9F809F0BD
:1001300095FB00230B930C930D934FF4E0130E9358
:100140006A4B6B4F1968BA7B41F480311960996929
:100150001F4641F0100199613B6803F400330C9392
:100160000B9B01330B930C9B1BB90B9BB3F5A06F3F
:10017000F2D139685D4B11F4003101D0022315E052
:10018000186840F0010018600B913B6803F002030F
:100190000C930B9B01330B930C9B1BB90B9BB3F57F
:1001A000A06FF2D13B68990739D501230D93514BCC
:1001B000514D196841F010011960196821F00301CF
:1001C0001960196841F0020119607B687B607B68E7
:1001D0007B607B6843F480637B60484B1968043B19
:1001E00021F07041596046492960796821F47C11F9
:1001F0007960596841F000415960D96821F40041A3
:10020000D9609B681B0449BF3E4B4FF4E0132B6041
:100210004FF480130E930D9B012B01D117E0FEE7E5
:10022000022B18D16AB10E9BB3F5801F02D14FF497
:10023000A01305E00E9BB3F5E01F02D14FF40013AD
:100240000E937A680E9B134343F4803302E07B687D
:1002500043F460137B603B6843F080733B603A6813
:10026000224B9401FBD55A6822F003025A605A6867
:1002700042F002025A607B681C4A03F00C03082B10
:100280000793F8D15168204B01F00C01042903D0E9
:10029000082904D01A4A00E02A681A6011E051685F
:1002A0005068C1F38341C00301F1020101D4174A30
:1002B00005E0526812F4003F2A6818BF5208514303
:1002C00019607A68C2F303122A4492F804A01A68EB
:1002D00022FA0AFA0A4AC3F800A02B68934217D1FF
:1002E000012219E0452700084006002000100240C6
:1002F000B82000200020024014000020041001401B
:1003000000127A00001BB700A000002000093D0089
:10031000994A934202D10222984B1A70DFF8AC92AC
:10032000974B22ACC9F80C30BB694FF0000843F082
:100330000103BB617B6A934843F080737B62BB69B6
:1003400043F01C03BB614FF6FF7324F82C3D21469C
:100350008DF85E8002F016FF8B48214602F012FFF6
:100360008A48214602F00EFF894B20465A6842F027
:1003700000725A6006F012FC179B864AB3FBF2F338
:100380004FF47A72B360BAFBF2FA834B0AF1FF3290
:100390005A60F02289F823200722C3F808801A60E7
:1003A0007E4B9A68120743D593F81821012A3FD84B
:1003B0007B4A7C4993F81901B1F800E01388924612
:1003C00043EA0E4E784B9E459B4640F0578243468B
:1003D00073B3764BDFF8AC8118682146179040461E
:1003E00002F0D0FE0823C8F810303C2002F007F9D4
:1003F0004FF00009694991F8192191450FDA082257
:10040000C8F814207820059202F0EEF8059A7820BA
:10041000C8F8102002F0E8F809F10109EAE7614B99
:100420001A88BAF8003043EA02435B4540F02E8256
:10043000642002F0E4F8A0225D48002111F071FC74
:10044000FB69002243F00703FB61BB6943F40063CF
:1004500043F00C03BB61574B002003F10C015054D7
:1004600001320E2AF7D1FF229A76DA761A775A7776
:10047000514B0FCB84E80F00BB69082243F00803FF
:10048000BB61BB69179843F00803BB613E4B18A9D9
:100490001A6110221A6102F075FE19981AA902F069
:1004A00071FE364B37481A789846012A8CBF1023C4
:1004B00014238DF85E304FF002038DF85F30BB6976
:1004C0004FF4805243F00403ADF85C208CBF4FF032
:1004D00001094FF00009BB61214602F053FE374B82
:1004E000B9F1000F01D0364A00E0364A00201A6008
:1004F00002F08FF8344B93E80300BB6984E80300F3
:1005000043F0080318A9BB61179802F03BFE08F0FE
:10051000BDFF9F238DF84430322000238DF84530F5
:100520008DF846308DF8473002F069F8164B4FF4DD
:1005300080525A61A3F5544311AA9B8905204FF4B8
:100540007A7321469146013848D01AB192F800A03A
:10055000013208E04FF0FF0A05E003F1FF3E1FFA09
:100560008EFEBBB37346DFF868E0BEF808B01BF040
:10057000020FF2D091E100BF001BB7006E280020EF
:100580000005FA0500080140000C01400010014080
:100590000000014040420F0010E000E0B8200020C1
:1005A000086C0040106C004007B0F7509C450108F3
:1005B000681F002040060020A04501086828002090
:1005C000E51E0008F91E0008B045010800ED00E036
:1005D00000380040F38B01339BB2F383BD4E4FF4E0
:1005E000805AC6F810A09DF85E209DF85D3012027A
:1005F00042EA03429DF85F301A43B74B9A4212D049
:10060000C6F814A0F5200CF09FFFFF200CF09CFF13
:100610007028C6F810A006D198F80030022B02D13D
:10062000AE4B03221A7098F80030032B02D0012041
:1006300006F0D6FDAA49AB4E8B6898F800B04FF093
:1006400010080021424603F4004A304603F40063D8
:10065000069311F066FB00238DF8473004233370B6
:100660000123022207219B458DF84620ADF84480E6
:10067000B370F17009D93020ADF844000520307214
:100680007372B372F172904600E09846BAF1000FAF
:1006900010D0BDF8443086F8058043F00203ADF871
:1006A0004430012308EB03023371B3710723F37164
:1006B0005FFA82F88C48494606F0C2FA069B93B16D
:1006C000022384484946ADF8443006F0B9FA0923BC
:1006D00001223373B27308F10103072286F80D80FB
:1006E000F2735FFA83F87B69804843F001037B6112
:1006F000BB69DFF8F89143F40073BB6106F05DFB62
:100700007B4B002717937B4BB8F1010F18930CBF5D
:100710003B4680231C934FF480731D934FF48063FA
:100720001E93202321461F9348464FF400532093E5
:100730001997CDF868801B97219706F020FBD9F810
:100740000030B8F1010F43F00103C9F800306A4BE3
:1007500098BF00215A6888BF012122F4702222F438
:10076000807242EA01225A609968644A38460A4017
:1007700042F4602242F002029A60D96A08F1FF3224
:1007800021F47001D2B241EA0252DA620123311837
:100790008A78002A5AD0325C5C1C092A91F803E05E
:1007A000E4B2554911D9A2F10A0707EB47074FF008
:1007B000070C0CFA07FC0EFA07FED1F80C8028EAA9
:1007C0000C0C4CEA0E07CF600EE002EB42074FF034
:1007D000070C0CFA07FC0EFA07FED1F8108028EA85
:1007E0000C0C4CEA0E070F61062B43490ED8013B57
:1007F00003EB83034FF01F0E0EFA03FE9A404F6B7C
:1008000027EA0E0747EA02034B6320E00C2B0ED8C1
:10081000073B03EB83034FF01F0E0EFA03FE9A40D3
:100820000F6B27EA0E0747EA02030B630FE00D3B4D
:1008300003EB83034FF01F0E0EFA03FE9A40CF6ABC
:1008400027EA0E0747EA0203CB6200E01C460430A9
:10085000102801D023469AE7274B9A6842F4807209
:100860009A609A6842F001029A609A6842F008021F
:100870009A609968204A0F0744D5FAE700F1FF38DB
:10088000B8F1090F8CBF00230123A1E5144B00220E
:1008900083F819210BF034F9CAE5AEF80CA0DFF8A3
:1008A00060E0BEF808A01AF0010F08D103F1FF3E86
:1008B0001FFA8EFE002B3FF48DAE7346EFE7BEF8B5
:1008C0000CE01FFA8EFE00293FF43DAE81F800E0F7
:1008D000013138E6000C0140152020006E28002070
:1008E000B8200020200E002000080140080002402F
:1008F0004C240140300E002000240140FDF7F1FFA0
:1009000000380040936843F004039360A74A93685B
:1009100013F00403FAD1916841F4A0019160A44A54
:10092000B2F8E60050B9B2F9E83033B9B2F9EA30BA
:10093000D3F1010338BF002300E0034613F00103A5
:1009400040F081802B7500B20EF02EFA99490EF01E
:100950007FFA974C0646B4F9E8000EF025FA95495F
:100960000EF076FA0546B4F9EA000EF01DFA914948
:100970000EF06EFA0446304611F002FC074630468F
:1009800011F072FC8046284611F0FAFB0646284614
:1009900011F06AFC0546204611F0F2FB8246204623
:1009A00011F062FC3946814650460EF051FA394644
:1009B000834648460EF04CFA5146069040460EF0EB
:1009C00047FA4946089040460EF042FA31460990EF
:1009D00050460EF03DFA784C4946206206F1004040
:1009E0000EF036FA29466062A56208980EF030FAD9
:1009F000014606980EF024F92946E06209980EF0A7
:100A000027FA014658460EF019F93146206308F1DD
:100A100000400EF01DFA2946606358460EF018FAA1
:100A2000014609980EF00AF92946A06306980EF0CF
:100A30000FFA014608980EF003F93946E063304694
:100A40000EF006FA20645A4F5B4CBB6813F4003F6B
:100A50001AD0C82001F0D3FD0CF02EFEC82001F002
:100A6000CEFD07F5887300210C2204F14800636471
:100A700011F057F9022384F84B3005F06BFA01F0BE
:100A800099FD4E4B034423654D4B00211A6899464E
:100A900042F00E021A604B4A4B4B1268B7F8EE60F8
:100AA000B2F8522097F8ED800692484A97F8F5A0E0
:100AB00011704749A3F10C0208788B46012898BFB2
:100AC0001346636506F0E6FD424D0346DFF824C198
:100AD00000B3414B414ABB2E1A60414AC3F80CC0D7
:100AE0005A6001D901230EE0612E01D902230AE0E8
:100AF000292E01D9032306E0132E01D9042302E095
:100B0000092E05D90523314A6B75012313702CE09A
:100B10000623F8E71920CDF810C0039301F06FFD0C
:100B2000039B68201A46152106F054FC039BDDF850
:100B300010C0002801F0B481274A2A49622E1160B2
:100B40002949C2F80CC051602849916000F03D83EA
:100B500040F23483BC2E00F03683B6F5807F40F03F
:100B600036831A49AB7501230B70D9F8003043F076
:100B70000103C9F800301E4D00232B70B8F1090F96
:100B800000F2F080DFE818F0380038005900B500B6
:100B9000D700EE00EE00EE00EE000A00D9F80030BB
:100BA00023F00203C9F80030DCE000BF002401405C
:100BB000B820002035FA8E3C40060020404B4C0007
:100BC00050020020A802002090450108C202002027
:100BD0006E28002014000020AC020020F9D200088A
:100BE000557600082DD40008F1760008BF7600087D
:100BF0002A03002090C1793D9BF80030012B1CD8BE
:100C0000002622AB03F82C6D53203146012206F05A
:100C100021FC90B19DF85C30E52B0ED19D4B9E4A96
:100C200084F858601A609D4A5A60042301222B7090
:100C30009B4B90451A7000F095809A4B9BF80010E2
:100C4000A3F10C02012998BF1346974E636506F085
:100C500021FD00284DD0062117AB68200A4606F07A
:100C6000F9FB9DF85F309DF861C003F001035B0064
:100C70000CF0010C43EA8C0C9DF85D3003F001038D
:100C80005CEA030C08D0BCF1010F01D100231BE08A
:100C9000BCF1020F0FD116E011AB68200C2101222C
:100CA000CDF810C006F0D6FB9DF84430DDF810C03A
:100CB00013F00F0302D1052001F0F3B8042B02D189
:100CC00086F859C002E0012386F85930714B774A03
:100CD0001A60774A5A6094F85920002A14BF6E228D
:100CE0006F221A72012302222B706D4B90451A70ED
:100CF00038D09BF80030012B1DD8002222AB03F81E
:100D00002C2D1C200D21012206F0A4FB98B19DF88A
:100D10005C302A2B01D01A2B0DD15E4A654984F82C
:100D20005A3011606449022351602B7003225C4BDE
:100D300090451A7016D0002122AB03F82C1D182004
:100D4000012206F087FB68B19DF85C30FB2B09D1CE
:100D5000504B5A4A1A605A4A5A6001232B70504B22
:100D600004221A704E4B1B7863B908F1FF38B8F1B2
:100D7000070F01D89846FEE6D9F8003023F00203A9
:100D8000C9F800309BF80030012B05D10CF000FCB5
:100D90004C4B4FF400525A610A2001F030FC77208E
:100DA000A021012211AB06F055FB38B994F86CB0C4
:100DB0003D4DBBF1000F00F0918064E11E21012246
:100DC000772006F007FB4FF42F6001F00DFC0025A3
:100DD000A5F160010026C9B2022217AB77208DF879
:100DE0005C608DF85D6006F035FB9DF85D309DF828
:100DF0005C1043EA01212C4B03F15C02A95202353D
:100E0000102DE5D1B3F86AE001210EF00F050EF4C4
:100E10007F4EA3F86AE03246334622F001002044B8
:100E2000B0F85C00002818BF0021D60703D5C0B277
:100E30004340082002E083EA1023FAE71E0448BF7B
:100E400083F4C05301384FEA4303F7D10132102A2B
:100E5000E3D145EA0E0E144AA4F86AE00029A5D1B0
:100E6000C3F303339D42A1D142F21073A2F8943030
:100E7000A2F89630144BC2F89830144BC2F89C304C
:100E8000134BC2F8A030134BC2F8A430124BC2F877
:100E9000A830F8E018030020C5D00008CB77000880
:100EA00067280020904501084006002065D300080F
:100EB000157600089DD300082F770008A1D0000800
:100EC00087770008001001405FD000086D750008AA
:100ED00055D000087D7500083D220008BF4E0CF07B
:100EE00057FB4FF4804411A904233046ADF8444029
:100EF0008DF846304FF4005802F044F9B84BC6F86C
:100F000010805A6917A822F470625A615A694FF02A
:100F1000030942F400725A610823179401248DF8E2
:100F200061308DF860B08DF8624009F0EFFD282344
:100F300010A88DF840308DF841908DF842B08DF8B2
:100F4000434009F0C3FD142001F059FB11AB772099
:100F5000D021224606F07EFA9DF84430A5F8909004
:100F6000552B85F8873040F08780D121224611AB80
:100F7000772006F06FFA9DF84430772003F00F02D7
:100F80001B0985F8882085F88930162217ABAA211D
:100F900006F060FA9DF85C209DF85D3043EA02237C
:100FA000A5F870309DF85E209DF85F3043EA02237B
:100FB000A5F872309DF860209DF8613043EA022365
:100FC000A5F874309DF862209DF8633043EA02234F
:100FD000A5F876309DF864209DF8653043EA022339
:100FE000A5F878309DF866209DF8673043EA022323
:100FF000A5F87A309DF868209DF8693043EA02230D
:10100000A5F87C309DF86A209DF86B3043EA0223F6
:10101000A5F87E309DF86C209DF86D3043EA0223E0
:10102000A5F880309DF86E209DF86F3043EA0223CA
:10103000A5F882309DF870209DF8713043EA0223B4
:10104000A5F8843041F2707385F86C40A5F89430AF
:1010500046F67813A5F89630624BC5F89830624B87
:10106000C5F89C30614BC5F8A030614BC5F8A43081
:10107000604BC5F8A83006E05F4BC6F814801A68CC
:1010800022F004021A605C4B1A68984612F0020FB4
:1010900002D05A4B1B689847594C23689847594BC4
:1010A0001B78012B07D8082317934FF48053ADF812
:1010B0006030554B09E0102317934FF48043ADF88F
:1010C000603003F1804303F55043504C17AD199342
:1010D000C4F8AC500022BAF1010F4C4E84F8B02095
:1010E000DFF848B109D9BAF1030F21D1D8F800309F
:1010F00023F00803C8F800301AE022AB03F8442DAF
:101100001E200A210122C6F8B45006F0A3F978B1D6
:101110009DF84430482B0BD13D4BC6F8B8303D4BC1
:10112000C6F8BC30032384F8B03001238BF80030BC
:101130009BF8003063B90AF1FF3ABAF1010F01D808
:101140009A46C7E7D8F8003023F00803C8F8003003
:10115000314E96F8E2300BB1304A137096F8E33016
:101160000BB12F4A137096F8E4300BB184F8B0300D
:10117000D8F800301A071DD506994FF0640B0BB252
:1011800093FBFBFA504603930DF00EFE039B814642
:101190000BFB1A3000B20DF007FE22490DF058FE8D
:1011A000014648460DF04CFD1F490DF051FEC4F8B4
:1011B000C0003DE00023C4F8C03039E00A2E0AD058
:1011C000142E06D003E00123CBE40223C9E4032359
:1011D000C7E40423C5E40523C3E400BF00100140B5
:1011E000000001408DD00008DD75000869D00008BE
:1011F0008D75000895230008500200201803002078
:10120000AC0200206E280020000C014040060020A7
:101210001DD10008D1740008B8200020C2020020AF
:101220002A0300208988883C00002041662800208D
:10123000A04B10225A6108221A614FF00A0BDFF806
:1012400074A21920DAF80C300BF1FF3B83F0100385
:10125000CAF80C30DAF80C3083F00803CAF80C3006
:1012600001F0CDF9012001F0D4F9192001F0C7F9FE
:10127000002001F0CEF91BF0FF0BE0D10823CAF8E3
:1012800010301023CAF810308B4BDFF870A21B68A7
:1012900093F90C000DF088FD88490DF0D9FD10F090
:1012A0006FFF8346BAF800000DF07EFD59460DF041
:1012B000CFFD10F09BFF824B1880BAF800000DF0B4
:1012C00073FD01467F480DF077FE7F490DF074FEF7
:1012D0007E4AC4F8C4007949D0680DF0B9FD7C4954
:1012E0000DF0B6FD7B4B717918607B4B7B4A197012
:1012F0007B4B02EBC10191F83510C4F8C830794B33
:1013000092461960B168994611F0200F1CBF012365
:10131000C9F80030D8F800301B070DD5DFF89481EC
:101320004FF0100BD4F8B830C8F814B09847012328
:10133000C8F810B084F8CC300BF038F811A80021B0
:10134000162210F0EEFC73790E2B01D0082B02D17F
:1013500001238DF85030BB68D9F80000C3F3400278
:101360008DF84A20C3F380128DF84C20C3F340322D
:1013700000308DF84420C3F3C03218BF01208DF82F
:101380004720C3F3C0228DF848208DF84E00C3F3E8
:10139000004255488DF84D20C3F380428DF84B2014
:1013A00003F00101C3F3C00200688DF845108DF809
:1013B000462090F8B001C0F380008DF84F00B7F8D8
:1013C000DE00B7F8E070ADF85200ADF854704FF49D
:1013D0007A77ADF85670DF0404D5444BB3F8DA30B1
:1013E000ADF85630B0F5FA7F84BF0023ADF8563023
:1013F000B6F81A313E48ADF8583096F8223184F8E4
:10140000CD30002384F8CE3043709DF85030002B4F
:1014100014BF0223002301B902B101330AEB830395
:10142000D3F8F4304FF0000B0893CDF818B0089BB8
:101430004FF6FF7233F80B8090455FFA88F30CD1BA
:1014400094F8CE3084F8D030234B93F80090B9F163
:10145000170F40F0808100276FE1264A9DF8491060
:101460004FEA031A02EB0A0719B1991E012940F24B
:101470004E819DF84C1029B152F80A101E48814245
:1014800000F045819DF84D1029B152F80A101A4814
:10149000814200F03C819DF8471011B1012B00F012
:1014A00036814FEA1828B8F1020F29D19DF844106F
:1014B0002BE000BF000C01406403002035FA8E3C95
:1014C000880300200AE81C4100401C46AC020020B2
:1014D000BD378635600300207C0400208445010868
:1014E000C820002078040020A8020020B820002096
:1014F0000E070020206001080004004000000020CA
:10150000B8F1010F04D19DF84510002900F0FF80CB
:101510009DF84E1069B19DF8501051B9A3F1080122
:10152000012906D852F80A10B348814208BF4FF08B
:1015300004089DF84F1031B19DF8501019B9043BC3
:10154000032B40F2CD80B8F1010F40D1FF23F97B8E
:1015500084F8183184F81931BB684FF000097868B5
:1015600084F81C91C4F82871ADF85C308DF85E10D9
:10157000022329468DF85F3084F8D490C4F8D890BF
:10158000C4F8DC90C4F8E090C4F8149184F81A917F
:1015900084F81B91059201F0F5FD059A397B52F80C
:1015A0000A004A4605F0AEFA38464946424606F079
:1015B000B7F9924B9249C4F82C31924BC4F834914C
:1015C000C4F8303138460A1D09F02CFA9FE0B8F112
:1015D000020F4AD1DDF818E01C215FFA8EF359435F
:1015E0008948002300EB01094FF0010C89F8023013
:1015F00089F80A3089F801E000F801C0B96897F865
:101600000FE07868C9F80C70ADF85C1029468DF8C9
:101610005EE0CDF810C0059203938DF85F8001F075
:10162000B1FD059A039B52F80A00397B1A4605F072
:1016300069FA039BDDF810C019466246384606F089
:101640006FF9724A039BC9F81020714A09F1100121
:10165000C9F81420C9F81830384609F1140209F005
:10166000E1F906990131069151E0B8F1030F34D147
:101670009DF84B20BDF8563032B194F8CF803846F3
:1016800008214FF6FF721AE0BDF8522094F8CF807F
:10169000B2F5FA7F0DD95F493846B1FBF2F292B24A
:1016A00008210BF01FFA04EB8803C3F8FC015A4B26
:1016B0000CE05A493846B1FBF2F292B201210BF02C
:1016C00011FA04EB8803C3F8FC01554BC36094F88E
:1016D000CF30013384F8CF3019E0B8F1040F16D1C0
:1016E000BDF854304D4A384692FBF3F20121BDF863
:1016F000583092B294F8CE800BF0F4F904EB8803E2
:10170000C3F82C0294F8CE30013384F8CE300BF1BC
:10171000020BBBF11C0F7FF48AAE91E6414B07EB45
:10172000030E98E80F008EE80F003F4B10371A7831
:10173000C02F02F101021A7009D0D4F8C83000217C
:10174000D85903EB07080DF017FD0028E6D0B36861
:10175000DA0420D419E0354B334A03EBC90393F87C
:1017600034C0D3F8388082F800C0B8F1000FEED052
:1017700000276745EBDA2B4A3B0103EB020E43449B
:101780000FCB01378EE80F00F3E7B9F1080FDFF850
:10179000A48028D12AE0244B93F800A0BAF1010FCD
:1017A000F3D9234F4FF00008D04507F11007ECDACA
:1017B00057F8100C4FF07C510DF04AFB4FF07C5164
:1017C00047F8100C57F8140C0DF042FB4FF07C5109
:1017D00047F8140C57F80C0C0DF03AFB08F101080F
:1017E00047F80C0CE0E7B9F10E0F25D198F800305E
:1017F00043F0100324E000BF002C01401D2100082D
:101800006C070020F92100085C070020416B0008EC
:10181000F120000800127A001922000840420F004F
:10182000092200088C080020342800208445010883
:1018300094080020A102002098F8003023F0100343
:1018400088F8003006F078F98C4A8D488D498E4B27
:1018500002608E48C4F8103301600023B6F81A0104
:10186000C4F80C13A4F8163384F81833C4F81C23F6
:10187000874958520233242BFAD1864B1A60B36839
:101880001B0740F19780844B002293F81831052BF9
:1018900000F28A80DFE803F00303284D5C6D012B22
:1018A0004FF003017D4A08D184F82013072184F802
:1018B000223384F821130C2308E0022384F8203318
:1018C000002384F8223384F82113072313700023A4
:1018D00000931020012372494FF4E13207F070FDAC
:1018E000704BC4F8240359E001236F4A6F490093F9
:1018F0001020052307F064FDC4F82C030746B6F852
:101900001A010DF051FA6A490DF0A2FA69490DF079
:1019100095F90DF089FC0023674A98500433402B59
:10192000FAD1664B1022C4F828335C4B381C1A706D
:1019300037E0009201234FF4E1321020604907F0B4
:101940003FFD604BC4F83003C4F8283310220DE08B
:10195000009201234FF4E13210205B4907F030FD83
:101960005A4BC4F83403C4F8283308224B4B1A707E
:1019700016E04A4B0C221A70554A0023137084F863
:10198000383384F8393310200093524901234FF43F
:10199000E13207F015FD504BC4F83C03C4F828337E
:1019A000003018BF012028B9082001F0B2F9002347
:1019B000C4F82833B368394A13F4804F04D008219F
:1019C00011704649C4F8281342F20101194051B17F
:1019D00043499F04C4F8281344BF08211170D80755
:1019E00044BF0C211170117804395170190640F16F
:1019F00095803C4BD6F83C11DFF80091C4F8403399
:101A00000023394A02EB031040689346884204D011
:101A10000133DBB2042BF4D9002300273946152209
:101A2000324889F80130DFF8D8A0C9F80470C9F845
:101A3000087010F076F92E4B3846CAF8003008F0DE
:101A40005FFF2C4B99F801201B680BEB0212C9F8C1
:101A50000C30DAF8003020201B783946BB420CBF2E
:101A6000012303230097526807F0AAFC224B186059
:101A7000002847D1802001F04CF946E050090020B1
:101A8000440E0020C8210020884601083C010020A7
:101A9000FE05002044020020B8200020C9150020C7
:101AA000ED660008E5650008A086010029A300088E
:101AB000CDCCCC3F0000B04460010020A5660008FA
:101AC000956700089566000845670008816600086C
:101AD000400200200D650008C1650008D1660008BD
:101AE000DD660008E8210020A043010884090020E9
:101AF000E1210020B4200020780200207C02002098
:101B00009C020020012008F0FBFE8D4B18688D4BD5
:101B100000F5D97204301A6001F034FAB3689A05FE
:101B20000DD59F044CBF884888480BF0A7FC884B14
:101B30001A6842F010021A60864B00221A60864B27
:101B40008649D4F81C230B608033C4F85C33844B83
:101B5000844C1A60B3680027D803277040F1B28024
:101B600001F04CF901F086F901F060F97E4BDFF8E5
:101B7000289240F22A3B4FF0010A184639465A464D
:101B800084F800A0039310F0CCF8D9F81820774817
:101B900042F00402C9F818204022ADF83C20182277
:101BA0008DF83F200FA903228DF83E2005F048F85C
:101BB000D9F81C206E4C42F00202C9F81C206D4A74
:101BC000A9F6947911686C4AB1FBF2F122880139C7
:101BD00022F45C721204120C228089B21D22A285AA
:101BE0002185A4F814A0228C22F001021204120C08
:101BF0002284228CA088218B22F0020221F0730122
:101C000009041204090C120C41F0600180B242EA8E
:101C10000A02A0802183A7862284228B22F0080258
:101C20001204120C42F008022283B4F844206FEA36
:101C300042426FEA524292B2A4F84420D9F8A82F47
:101C400042EA0A02C9F8A82F484605F0B6F84B4AFE
:101C5000039B179280221C924FF4807218931D925E
:101C600010234FF4005248462946199320920393BB
:101C7000CDF868B01B971E971F97219705F07FF846
:101C8000A289039B92B242F40072A281D9F800208B
:101C900010A842F00202C9F800208DF840308DF8FB
:101CA00041A08DF842708DF843A008F00FFF344B2F
:101CB0001A68344BFA500437802FF8D10BF05EF8D5
:101CC0000BF05CF8B368590540F1988001F07CF89E
:101CD0002D4D08B1082000E00420012106F08EFA05
:101CE000B36885F88A0613F4806F284C01D1002070
:101CF0001DE023681B78032B05D123681B78032B79
:101D00000BD0012013E0042006F08DF901460420D9
:101D100006F07AF80028F0D1E9E7082006F083F908
:101D20000146082006F070F8003018BF0120184B5B
:101D30002468187023788BBB164B1C6052E000BFE0
:101D4000A802002068040020B0460108BC46010833
:101D500050020020A400002010220020780500205E
:101D6000280600206A050020A00900200008014084
:101D700000040040A000002000366E013404004042
:101D8000484501087C05002040060020880400200A
:101D900084040020B804002000100240012B21D14F
:101DA000424F002138462C22C5F88C460FF0B9FF6F
:101DB0008E237B704FF07C0AE0234FF07D09FB708F
:101DC00087F800A087F82B90394F002138462C2245
:101DD0000FF0A7FF8A237B70A02387F800A0FB7079
:101DE00087F82B902378022B08BFC5F8904600F0A7
:101DF000EBFF08B1C5F894460AF096FB00F0DAFB59
:101E00002C4B18607379052B03D12B4B4FF4C87200
:101E10001A802A4B4FF47A721A80294BC8221A80F2
:101E200098F8003043F0080388F80030254B1A7802
:101E300022F002021A70B3689A0723D5224B234A74
:101E40001C461A6005F0E8F8282000F0D8FB079936
:101E500001390791F6D122681D4B50781D78014653
:101E600001238D4203D30133082B0144F9D11949D1
:101E7000D07892780B709BB2584353431649174A57
:101E800008801380B3689B030DD5154B93F84B2046
:101E900042F0010283F84B20042283F84C2002E038
:101EA000032000F0BDFB23B0BDE8F08FCC04002080
:101EB000F8040020D80300202C0300205C28002018
:101EC0006C28002065280020A4040020BC210020EC
:101ED000A80400209C0000202606002024060020E4
:101EE00040060020034B4FF4805208B11A6170473E
:101EF0005A61704700080140034B4FF4805208B10B
:101F00005A6170471A61704700080140032810B5F4
:101F10000F4B0DD80F4A126894888C4208D2D28891
:101F20008A4205D9012202FA00F01A78104318708B
:101F30001B780F2B0BD1064B00221A70064B998889
:101F400008B2142802DD1439998010BD9A8010BDA2
:101F5000D80C0020AC1C002050090020024B9A88AD
:101F600001329A80704700BF50090020074B1A6861
:101F7000074B1178B3F9040053780B4403EB830348
:101F80009842D4BF00200120704700BFAC1C002045
:101F900050090020064BB3F90400064B1B681B7860
:101FA00003EB83039842D4BF00200120704700BF99
:101FB00050090020AC1C002010B50446FFF7EAFFD2
:101FC000002814BF2046002000F0010010BD024B85
:101FD00001221A72704700BF50090020014B187A85
:101FE000704700BF50090020034BB3F90400D0F143
:101FF000010038BF0020704750090020014B00222B
:102000009A8070475009002003685A1C02601970BA
:102010007047016B0346C26810B5406941B1196C45
:10202000541A005D013918BF0A46C0B21A6410BDC7
:10203000196A405C0131914228BF0021C0B2196287
:1020400010BD036B13B15A68036C01E0C269036AE7
:102050009A4237BFC068C3EB02008018C3EB000090
:10206000C0B27047436B13B190F844007047826A66
:10207000436AD31A58425841704743799B070AD59F
:10208000436A8269D154426A03690132B2FBF3F1B7
:1020900003FB112343627047437913F0010307D018
:1020A000C368C169026A013B881A1840C0B2704710
:1020B00018467047437910B513F0010304460DD05C
:1020C000FFF7EAFF58B1226A6369985CE36801325E
:1020D000B2FBF3F103FB1123236210BD184610BDC0
:1020E000426A806A131A58425841704741717047DA
:1020F00010F80A3C0133DBB20A2B00F80A3C0AD97B
:1021000010F8123C23B910F8131C034A22F81130BE
:10211000002300F80A3C7047EA0F0020334A10B54C
:10212000136C90681944081A40F68C239842916009
:10213000D060516013463CD9127893F945108A4219
:102140000BD1111F082908D893F84610182901D877
:10215000013103E083F8442002E0002183F84610B7
:1021600093F944108A421CD1204991F84710C1B11B
:10217000002191421E4806DA03EB8104246920F80D
:1021800011400131F5E7511E00EB4101163081424B
:1021900003D0002421F8024FF9E7164908780130EE
:1021A000087083F84520002201211A7083F8471037
:1021B00010BD92F84710B9B1A0F2EF2440F2DA5105
:1021C0008C4208D811780B2905D80B1D01311170EC
:1021D00042F8230010BD002283F8472099180432EA
:1021E0000020302A0861F9D110BD00BF140700207B
:1021F000EA0F00206F100020024B1A6C01321144CC
:102200001964704714070020024B53F820301B68F4
:10221000198070473C080020074BA1F57A7153F8EC
:1022200020304FF47A701A681B894B4393FBF0F30C
:102230009BB21380704700BF3C0800202DE9F04F8F
:10224000504A514E1768738984463089A7EB03279B
:1022500085B0039187FB0001B288CB111404C20939
:10226000F08842EA416287FB000114EB02087288A1
:102270004FF000054FEAC2344FEA1022B08945EB17
:10228000030942EA01620B1287FB000114EB020A08
:102290004FEAD05242EA41224FF0000545EB030BD2
:1022A00012F5FA604FEAE15343F10001CDE9000174
:1022B000B0F5FA6F71F1000147DAA2FB024502FBAB
:1022C00003F1052605EB4105A4FB060106FB0511FC
:1022D0004D104FEA3004B8EB040869EB0509840897
:1022E0002A4844EA81748D104FF0FF31BAEB040A9A
:1022F0006BEB050BDDE9004584428D4125DA40F6A4
:10230000AC5012184FF0000143EB010302FB03F144
:10231000A2FB02236FF0060003EB4103544200FBD3
:102320000344A2FB000118EB000821444FF00B040A
:1023300049EB0109A2FB040104FB031149104FEA18
:102340003000BAEB000A6BEB010B114B1A68A2FBD1
:102350000A0102FB0B11420D42EAC1224B15B2EBFE
:10236000080263EB0903D00B40EA4340BCF1000FC5
:1023700001D0CCF80000039808B10099016005B0C5
:10238000BDE8F08F5C1000209C06002024FAFFFFBF
:1023900060100020324B2DE9F0411C88314B0A2699
:1023A0005A89B3F91250A41A1A89ED025443B3F9A9
:1023B0001420E413224495FBF2F22244DA615643DE
:1023C000A2F57A6202FB02F4B3F90480B3F902C009
:1023D000B3F90E7002FB0CFC02FB08F2B3F90C809F
:1023E0002413674304FB08F4241404EB6232023222
:1023F000DC88921002F50042B3F920506243B3F931
:1024000000304FEAEC2404EBE72404EB8304AC40F7
:10241000154B02341B68D20BA3EBA4044CF25033CF
:102420002B41634355BF5B00B3FBF2F3B3FBF2F305
:102430005B001A12524340F6DE3462430B4C0836FE
:102440005C43241404EB224202F6CF62361103EB04
:10245000221300B1036001B10E60BDE8F08100BF3E
:102460006C100020B00600206810002043E3FFFF3E
:1024700038B50C68054620460FF094FC214602460C
:102480002868BDE838400FF095BC0B4AA2F1300334
:10249000197A81420BD00C339342F9D1074B197A48
:1024A000014004D10C339342F9D1084603E01846A9
:1024B0000BB15868704770477C0000204C0000202A
:1024C00000230549DAB2595C814203D001330A2B5B
:1024D000F7D11A4610467047D96501082DE9F04733
:1024E0008278C6781E4BC2F1640802EB820C54421B
:1024F0005FFA88F84FEA4C0CC6F16409A4B203F104
:102500001807A5B228B2002804DC002D14BF154618
:10251000012500E0454600FB00FA6D430AFB06FA80
:102520009AFBF5F54D4468434FF00A0A90FBFAF028
:10253000604480B258800D88B1F802A000B2C5EBAB
:102540000A0A00FB0AF04FF47A7A90FBFAF005448D
:1025500023F8025F0A34BB42A4B2D2D1BDE8F087AF
:10256000F60D002010B544780078002303FB03F13A
:102570001939614301F6C4115943414340F6C4126D
:1025800091FBF2F1034A22F813100133072BEDD12E
:1025900010BD00BFE00D002010B5044C2068FFF70F
:1025A000E1FF20680249BDE8104097E7740400206D
:1025B0008821002010B5094A094913688C681268FF
:1025C0009342F8D1074A106811684FF47A72504369
:1025D000001BB0FBF1F002FB030010BDB420002093
:1025E00010E000E04806002038B50446FFF7E2FF9F
:1025F0000546FFF7DFFF401BA042FAD338BD10B5F8
:1026000004462CB14FF47A70FFF7EEFF013CF8E777
:1026100010BD08B5014B1B68984708BD682800200D
:1026200040F2DB14604308B50D4B10225A610822BA
:102630001A61841E0A4B2046DA6882F01002DA60C2
:10264000DA6882F00802DA60FFF7D9FF0120FFF7AD
:10265000E0FF1920FFF7D3FF0020FFF7DAFFE9E7DB
:10266000000C014008B503685B69984708BD08B5D0
:1026700003681B69984708BD08B50368DB6898477D
:1026800008BD08B503689B68984708BD08B503688E
:102690005B68984708BD10B5044C2068FFF7F6FF4B
:1026A00018B12068FFF7EDFFF6E710BD2C050020FC
:1026B00008B503681B68984708BDF8B5174D184C56
:1026C000184F0646C1B228686170FFF7F1FF3B68FA
:1026D00061789A7928684A409A71C6F30721617037
:1026E000FFF7E6FF3B6861789A7928684A409A715B
:1026F000C6F307416170FFF7DBFF3B6861789A79A9
:1027000028684A409A71310E6170FFF7D1FF3B682B
:1027100061789A794A409A71F8BD00BF4805002057
:10272000D80C00204405002010B5441E14F8011FE9
:1027300021B1034B1868FFF7BBFFF7E710BD00BFDF
:10274000841C0020014B1868B2E700BF601A00200B
:10275000A0F17D03012B70B504460D460A4E05D845
:1027600030687D21FFF7A4FF84F020043068214603
:10277000FFF79EFF35B12B881C4404EB142404F0B2
:10278000FF042C8070BD00BF5405002038B5054CF7
:1027900005465E212068FFF78BFF20682946BDE8CB
:1027A000384085E78C040020014B5E2118687FE7E4
:1027B0008C04002010B50A4C5E280146206805D123
:1027C0005D21FFF775FF20683E2105E05D2903D1FB
:1027D000FFF76EFF20683D21BDE8104068E700BFAD
:1027E0008C04002010B50446C0B2FFF7E3FFC4F329
:1027F0000720BDE81040FFF7DDBF064B1B6803EB69
:10280000C00090F9063019420CBF01204FF0FF3094
:10281000704700BF641A00200A4B1A6802EBC0021E
:10282000D379FF2B07D008490978994203D9074A81
:1028300032F8130004E00728D4BF908840F2DC503F
:1028400000B27047641A0020C9150020FE05002060
:102850002DE9F04F0C68836889B0D0F800A0D0F85B
:1028600004800646204603938B460FF089FC0746FA
:1028700020460FF0F9FCDBF80440814620460FF0BB
:102880007FFC054620460FF0EFFCDBF808200446ED
:10289000104601920FF074FC019A834610460FF027
:1028A000E3FC3946029058460CF0D2FA39460490BF
:1028B00002980CF0CDFA5946059048460CF0C8FA3B
:1028C0000299069048460CF0C3FA294607905846EC
:1028D0000CF0BEFA014650460CF0BAFA2146834687
:1028E00006980CF0B5FA014605980CF0A9F90146D6
:1028F00040460CF0ADFA014658460CF0A1F92146CD
:10290000834604980CF0A4FA014607980CF096F957
:10291000014603980CF09CFA014658460CF090F9D9
:102920003060029905F100400CF092FA01465046E1
:102930000CF08EFA2146834607980CF089FA01467E
:1029400004980CF07BF9014640460CF081FA0146F0
:1029500058460CF075F92146834605980CF078FA34
:10296000014606980CF06CF9014603980CF070FAD9
:10297000014658460CF064F92146706050460CF050
:1029800067FA2946044609F100400CF061FA014655
:1029900040460CF05DFA014620460CF051F93946EC
:1029A000044628460CF054FA014603980CF050FAFD
:1029B000014620460CF044F9B06009B0BDE8F08F44
:1029C0002DE9F84F2E4E0446376838460FF0D8FBF5
:1029D000054638460FF048FC7668804630460FF0D2
:1029E000CFFB834630460FF03FFCD4F804900646F8
:1029F000294648460CF02CFAA768824641463846DC
:102A00000CF026FA014650460CF018F9216882466F
:102A100058460CF01DFA4146044648460CF018FA98
:102A200031460CF015FA014620460CF009F9314602
:102A3000044638460CF00CFA29460CF009FA014617
:102A400020460CF0FDF8014650460FF09BFC0D4966
:102A50000CF0FEF90C490CF0AFFA0C4B19680CF0B5
:102A6000EFF80B490CF0A8FA0FF0C0FB83B21A0480
:102A700044BF00F5B4739BB218B2BDE8F88F00BF35
:102A80008C0300200000E144DB0F494000070020D8
:102A900000002041064B1B7803F0040303F0FF0005
:102AA0001BB1044B1888C0F3C01000F00100704740
:102AB00065280020580200202DE9F04102780346E5
:102AC000202A00F10100F9D0092AF7D02D2A02D1DD
:102AD0000346414D04E02B2A08BF03464FF07E55C4
:102AE0001E460024334616F8012BA2F13007F9B236
:102AF00009290DD8394920460CF0AAF90446384670
:102B00000CF052F9014620460CF09AF80446E9E729
:102B10002E2A17D1314F334616F8010B3038C2B286
:102B2000092A0FD80CF040F939460CF045FA014655
:102B300020460CF085F82949044638460CF088F9FF
:102B40000746E8E71A7802F0DF02452A38D15A78BA
:102B50002D2A02D10233012604E02B2A14BF0133AF
:102B600002330026013B002713F8012F303AD1B27F
:102B7000092903D80A2101FB0727F5E7B7F59A7F52
:102B800028BF4FF49A77B8464FF07E51B8F1070F3F
:102B900007D9084612490CF05BF9A8F1080801466C
:102BA000F4E707F0070737B108460C490CF050F975
:102BB000013F0146F7E72EB120460CF0FDF904E095
:102BC0004FF07E5120460CF043F9014628460CF0A8
:102BD0003FF9BDE8F08100BF000080BF0000204148
:102BE00020BCBE4CF0B50124B0FBF4F58D4201D3FE
:102BF0004C43F9E70026DCB1B0FBF4F504FB15000B
:102C0000B4FBF1F41EB9002D01DC002CF3D1092D29
:102C100003F101075FFA85FC04DD002A0CBF57258C
:102C2000372500E0302565441D7001363B46E2E75C
:102C30001C70F0BDF0B50124B0FBF4F58D4201D35A
:102C40004C43F9E70026DCB1B0FBF4F504FB1500BA
:102C5000B4FBF1F41EB9002D01DC002CF3D1092DD9
:102C600003F101075FFA85FC04DD002A0CBF57253C
:102C7000372500E0302565441D7001363B46E2E70C
:102C80001C70F0BD70B50646B6FBF2F4084615465A
:102C900014B12046FFF7F6FF05FB1464024B1B5DE1
:102CA00000F8013B70BD00BF006101082DE9F04153
:102CB000069C002B06460F460CBF4FF020084FF035
:102CC0003008234613F8011B09B9154603E0002A12
:102CD000FBDD013AF6E7002D04DD30464146B847FA
:102CE000013DF8E714F8011B11B13046B847F9E788
:102CF000BDE8F08180EAE073A3EBE0738B4206DB72
:102D0000002801DD401A704702D0084470470020B7
:102D10007047034B9A6822EA00009860704700BF32
:102D2000B82000200E4B1B78BBB10E4B1B681A78E5
:102D3000032A06D10C4B187802288CBF00200120F2
:102D400070475B7823B1094B1868C0F3C0407047E7
:102D5000074B1878C0F3800070470120704700BF10
:102D6000CA0C0020880400205005002054020020D6
:102D700065280020114A30B50028B8BF4042104CE9
:102D800090FBF2F304FB03003C2568430D4D90FBE0
:102D9000F2F22D682D7B25B903EB830303EB83034C
:102DA00001E0C3EB031302EB830304FB02020B807D
:102DB0004FF47A7392FBF3F24A8030BD809698000C
:102DC000806967FFB8040020034B1B681878C31E96
:102DD00058425841704700BF8804002008B5064893
:102DE0000EF0E0FFC0B2142805D8034A431C20218E
:102DF0001154D8B2F7E708BD5D0F0020094A0A4810
:102E0000002310B5116803701A46CC1864880CB9F9
:102E1000CC5C24B104330132802BD2B2F5D10270E4
:102E200010BD00BF78050020FC05002010B50B4B3D
:102E30000B4819780B4B9A784B085C1E047001F014
:102E4000010109480B44037008495308581E0870D3
:102E500002F00102064913440B7010BD3906002030
:102E600034060020D80C002036060020370600204B
:102E700035060020F0B50F4A0F4816780F4A002398
:102E8000176883701A4619460546D0B2B0420CD274
:102E900017F82200013204099C4200F00F00A8BF7D
:102EA000631C8842A8BF411CEFE7AB70044B19704C
:102EB000F0BD00BFFC050020D80C002078050020E4
:102EC00039060020F8B5101A0C461F460BF06CFFAF
:102ED0000546381B0BF068FF174B079E19680BF06F
:102EE000B7FF2946044628460BF0B2FF21460746A5
:102EF00020460BF0ADFF014638460BF0A1FE0FF067
:102F0000CBFB0E490BF0A4FF0CF08EF9069B21467B
:102F1000186005F100400FF035FA09490BF098FFF1
:102F200008490BF08DFE0CF059F90028BCBF00F5E4
:102F30000C40A0303060F8BD440000202C7D8E3F56
:102F4000A00CB34500A00C4610B50BF02DFF0021DE
:102F500004460CF039F908B1204601E004F10040C4
:102F600005490CF029F805490BF072FF0FF008F93C
:102F7000034B186010BD00BF8096184B35FA8E3C8D
:102F80004400002070B5044600790BF009FF1E498B
:102F90000CF012F81D4D1E4E2860A07B0BF000FFB8
:102FA00019490CF009F8EE60686060790BF0F8FEE2
:102FB00018490CF001F8184D2860E07B0BF0F0FE8A
:102FC00011490BF0F9FF6860607E0BF0E9FE1349D0
:102FD0000BF0F2FFEE60A860A0790BF0E1FE0D4966
:102FE0000BF0EAFF0E4D2860207C0BF0D9FE06495D
:102FF0000BF0E2FF6860A07E0BF0D2FE07490BF0F9
:10300000DBFFEE60A86070BD0000C842101B00200E
:103010000000FA4400002041201B002000007A44F8
:10302000441B002044F25063984203DDA0F50C409D
:10303000A0387047034B9842BCBF00F50C40A0304D
:10304000704700BFB0B9FFFF2DE9F041038A8789BF
:103050000446BFB20D461F40002F36D0B7FA87F3A3
:103060004FF00042DA40D24391B21B3B218217401D
:10307000042BF1D8DFE803F0221F1C1903006B6A50
:1030800033B103F1FF3800231FFA88F86B6203E0C5
:10309000B4F82C801FFA88F82E6A002EDCD0336832
:1030A0003046414698477668F7E72868A18E08E0E1
:1030B0006868218F05E0A868A18F02E0E868B4F88D
:1030C0004010036889B29847C6E7BDE8F0810C4B11
:1030D000800A98420CD003D8B0F5801F0ED00BE0C8
:1030E000084B984206D04933984205D100207047DA
:1030F0000220704703207047FE2070470120704770
:10310000010010000200100090F83B3210B57BB9AE
:1031100090F83A3290F83922934209D2012199402D
:10312000B0F8404201332143A0F84012DBB2F3E78C
:1031300010BD8379012B03D1D1F1010138BF0021EA
:10314000D0F834315A681B8909B113617047536153
:103150007047044B53F820301BB107289CBF1B68F5
:10316000198070476C08002010B5054C002021889C
:10317000FFF7EFFF61880120BDE81040E9E700BFDD
:10318000880000202DE9F0410F88002347FA03F260
:10319000D2072BD58A7803F0070512F0100F18BF5D
:1031A00091F803C002F00F0618BF46EA0C06AD0006
:1031B0004FF00F0C0CFA05FC06FA05F5DC0850F888
:1031C0002480282A28EA0C0C45EA0C0540F82450F3
:1031D00005D101229A40C46824EA020205E0482A87
:1031E00004D101229A40C4682243C2600133102BEB
:1031F000CCD1BDE8F08100BF9F4A2DE9F04F1368A4
:103200009E4903F59C439E4D20330B60AB6887B00D
:1032100013F4807F174604D09A4B1B681B681B6908
:103220009847AB6842F201041C405CB9964E337873
:1032300073B1944B1B681B681B68984704F08BFBA9
:10324000347005E0914B1A7801321A7004F083FB58
:10325000AB68DA0405D58E4B1B68DB0701D409F097
:10326000EFFA8C4B3C681868037C83B18A4A013BB7
:1032700032F91300A0F57A70B0F57A7FA8BF4FF449
:103280007A7020EAE0700BF08FFD84492FE0AA6885
:10329000160435D57D4A5168611A002930DB04F5E2
:1032A0009C41203151607E494E797E4931F816604B
:1032B000417CB6B296FBF1F0117A013101F00F01B9
:1032C00011720A4450721846774A9A5C01331044CE
:1032D000102B80B2F8D100B290FBF3F000B264285A
:1032E000A8BF642020EAE0700BF05EFD6F490BF090
:1032F00063FE6F490BF0ACFD0BF096FF6D4B188031
:10330000AB68D80510D56C4B9C426C4C08D923682F
:103310001B681B6A984718B923681B685B6A984743
:1033200023681B685B699847A968DFF86CB111F4E2
:10333000805F534BB5F8DC00BBF9062007D0B3F82B
:103340001A311C1AA24207DD1844824202E0B3F887
:103350001C319A42C0F291840126594B1A78984642
:1033600012F0040F1CD0C9061AD5564B1B78DA068A
:1033700016D495F825219AB1534B1B7883B1434B52
:1033800052493EB90A68DB699B1A002B08DA09F03A
:1033900057FA05E009684FF47A7000FB0212DA610F
:1033A000002295F8239195F82411B5F81C41B5F841
:1033B0001E7113463BF902009B08A042C4BF63F094
:1033C0007F03DBB20232B842B8BF43F04003082AA1
:1033D000F0D12E4C94F820209A4205D194F8212067
:1033E000F92A04D8013200E0002284F8212084F870
:1033F0002030354B264F1A789A46A2B93B68DB0736
:1034000007D586B998F80030DE070CD504F08CFE9D
:1034100009E098F80030580705D511B109F010FA05
:1034200001E0002EFAD094F82130184A142B284ECF
:1034300040F09B8098F8003019F1000903F0040374
:1034400018BF4FF0010903F0FF00002B42D09AF89B
:103450000030002B00F0898092F820305F2B01D1E2
:1034600009F0EEF9B9F1000F7FD094F820307D2BF0
:103470007BD109F0E5F978E05028002048020020CF
:10348000B82000204402002038010020E00C002079
:10349000540200203C010020FE05002000007A4478
:1034A000200E0020300E0020E90C00200000C84251
:1034B00000C07F44CC150020404B4C005C0900202C
:1034C00065280020A10200202C000020B42000204C
:1034D000A802002092F82030572B0BD1AC4B4FF4B0
:1034E0007A721A80AB4B1B6813F008033DD1AA4ACD
:1034F00013803AE0A968490714D55A2B12D1A74B7B
:10350000197819B118700122A54B1CE092F822100D
:10351000A44B81F0010182F8221009B1042212E0CB
:10352000062210E05D2B00F02D835B2B00F02C8336
:103530005E2B0AD1032228E3A72B40F071839A4B1C
:103540001A7842F004021A700FE0562B01D108F0ED
:10355000D7FA9AF80030002B00F0588394F8203006
:103560006F2B40F04D8304F0DFFDAB685B0733D574
:1035700094F82230A3B198F80030580710D58B4B3F
:10358000BBF90620B3F81C319A4209DD3B6813F001
:10359000010305D1864A32211180864A82F8223001
:1035A0003B68D9030AD5844B1A782AB97B4A12782A
:1035B00012B97F4A3221118001220CE0774B1A7830
:1035C00052B198F8002002F0040202F0FF011AB98B
:1035D0001970734B01221A70D6F80090002309F17C
:1035E000750A3B6009F1770698460AF1020303EB7E
:1035F000080113F808204B7816F8010C9A420AD2F9
:10360000314607F079F830B116F8023C01229A40B1
:103610003B6813433B6008F10408B8F1A00F06F1C2
:103620000406E2D1654B1B7843B13B68DFF8648147
:1036300013F0020F624E40F0A28197E109F21512D9
:10364000039209F58B769846039A16F8010C531CE1
:1036500003EB080113F808204B789A422DD231462B
:1036600007F04AF848B396F802C0564B0CF1FF3CFD
:103670000CEB4C0C6344019333794FF00C0900932D
:1036800000984C4B09FB00F903F1240A0AEB0901ED
:103690004A68019896F803C082420ED000220AF8C8
:1036A00009C048608A600099012202FA01F093F88B
:1036B000542022EA000083F8540008F10608B8F10B
:1036C000480F06F10606BFD13F4B404A1E68D2F8AC
:1036D00000A0DFF8FC804FF00009D8F80030002B84
:1036E00000F03B811978002900F03781D8F80420D8
:1036F000C2EB0A02002A0CDB0AF5FA72C8F80420B1
:10370000012202FA09F294F8540020EA020284F835
:10371000542018F8042C58780432D2B2002840F013
:10372000E180B5F81A013BF9122000F1C80C62459E
:1037300001DD9B7813E0C838824202DA9B785B4255
:103740000DE0012303FA09F394F8542022EA03035D
:1037500084F854300AF5FA73C8F80430FDE094F8A0
:10376000542042FA09F2D20700F1F780002B0D4AEB
:10377000CCBF02200120013910700A2900F2E58037
:10378000DFE801F028313D4A535C6E80929CA60030
:103790005C28002050020020AA03002059030020CA
:1037A0005B0300205A030020A1020020B820002063
:1037B00040030020E00C0020580300206428002073
:1037C00058020020FC4B010874040020B4200020A3
:1037D000080D002032781344FA2BA8BFFA2323EAFD
:1037E000E373337007E072781344642BA8BF64233B
:1037F00023EAE37373703046FEF7B4FEA5E0F27877
:1038000030461344642BA8BF642323EAE373F370A8
:10381000A16DFEF763FE98E032791344642BA8BFD4
:10382000642323EAE37333718FE072791344642BCA
:10383000A8BF642323EAE373737186E0E16D4A78DD
:103840001A44C82AA8BFC82222EAE2724A700A783B
:103850001344C82BA8BFC82323EAE3730B7074E09A
:10386000E16DCA7A1A44C82AA8BFC82222EAE272C5
:10387000CA728A7A1344C82BA8BFC82323EAE37309
:103880008B7262E0E16D4A7D1A44C82AA8BFC82243
:1038900022EAE2724A750A7D1344C82BA8BFC823E6
:1038A00023EAE3730B7550E0E26D91780B44C82B6B
:1038B000A8BFC82323EAE373937046E0E26D117B4F
:1038C0000B44C82BA8BFC82323EAE37313733CE05F
:1038D000E26D917D0B44C82BA8BFC82323EAE37394
:1038E000937532E0012830D13BF912209878B2F577
:1038F000617F05DB40F633039A42B8BF134601E00F
:103900004FF461730C2920D14FF4966292FBF0F0D2
:10391000A3F5617393FBF0F394F86020DBB29A4255
:1039200013D0032BA14994BF1A4602220A2084F81F
:10393000602000FB02129E48023202600293FEF7F2
:103940002BFE029B9B4A01331370012303FA09F3F8
:1039500094F85420134384F8543009F10109B9F163
:10396000040F08F10C087FF4B8AE5EE6AB68D8052A
:1039700014D5914B1B681B689B68984770B1D8F8A9
:1039800000309B070AD5338813F001020CD18B4914
:1039900043F001036266A2660B8006E033880122D1
:1039A00023F00103338000E000223B68590710D563
:1039B0007AB1328822F0010102F0020289B292B299
:1039C000318052B96266A2667C4A41F002011180E0
:1039D00003E0328822F0020232803288784912F005
:1039E000030F4FF0100014BF48610861D8F80010B1
:1039F00011F00A0F21D0DC0609D550070AD442F095
:103A0000040232806F4A10886F4A108002E022F070
:103A1000040232809C06328806D5500607D46748D7
:103A200042F04002028002E022F0400232805A0658
:103A300003D5644A1088654A10808C0607D43B6819
:103A4000180540F19080338843F480738EE0604A1B
:103A50001278910752D55F4A1278042A4ED913F48E
:103A600000700ED03388DA06E9D45B48534A23F05D
:103A7000200343F01003011D138004F080F902229B
:103A800045E0318801F0100292B232B14B4A21F088
:103A900010011180514A107001225C0528D5504B4D
:103AA0001B6859894F4BB3F900000028B8BF40424A
:103AB000884209DAB3F90230002BB8BF5B428B426F
:103AC000ACBF0023012300E000238BB133889806AC
:103AD00020D43A4A43F020031380434B43481A68EA
:103AE0005B68011D0260436004F049F901220EE0A9
:103AF000338899060ED523F0200305E0338813F0B0
:103B0000300F9CD023F030032C4A13800022334B1B
:103B10001A7001E0002A92D000231A46344900208E
:103B200050523449344C5052344904EB030C505237
:103B3000002119510232CCF80400CCF8081004F12D
:103B4000280C503443F80C1019519C441C44042A8E
:103B5000CCF80400CCF808106060A16003F11403F5
:103B60003FF46DAFDAE7338823F4807333806B79E9
:103B7000082B02D00E2B40F09380338823F04003B3
:103B800033808DE0012200E002225FFA82F909F120
:103B9000FF3385F8583704F083FB05F05FFE022001
:103BA00028214A4603F07CFADFE400BF10280020F9
:103BB000740400205A0300205C09002058020020F1
:103BC000000C0140AA03002052040020100E002027
:103BD000A1020020A0020020080F0020180F0020E2
:103BE0006804002066020020C0040020100F00209E
:103BF000542800206C0400204C0D0020700400208C
:103C0000B9F1000F02D07E2B3FF4ADAC94F8203018
:103C1000972B7FF491AC244B4FF4C8721A80A4E424
:103C20000022BB2B059201D1022303E0B72B04D164
:103C30004FF6FE73ADF816300AE0BE2B01D1022319
:103C400004E0BD2B7FF491AC4FF6FE73ADF8143059
:103C50003368BDF81410B3F854200A44A3F8542074
:103C6000BDF81610B3F856200A44A3F8562007F002
:103C700047FF002384F8213077E40C4B0026002214
:103C80005E669E66C3F8E460C3F8E860C3F8EC6063
:103C9000C3F8F020C3F8F420C3F8F820FFF75DBBA9
:103CA00007B0BDE8F08F00BF2C030020E00C00201F
:103CB000AC4B2DE9F04FB3F90600AB4B87B01D6854
:103CC0002B8998420EDBB0F5FA6FAF7907DAC21A8A
:103CD0005743A3F5FA6397FBF3F7643703E0C7F1A3
:103CE000640700E06427A14BA14AB3F81A1193F9C5
:103CF000EC3016685B4204919BB200210593344678
:103D00000A46984BDDF810C0CB5E40F2E63E0393C6
:103D1000CCEB030303F2F31CF44503D8002BB8BF2C
:103D20005B4201E04FF4FA73022ADFF8548231D08B
:103D300096F85DE1BEF1000F04D07345CCBFCEEB29
:103D4000030300234FF0640EDFF82CA293FBFEFC6C
:103D50006FF0630B3AF81C900BFB0C3B0CF1010C61
:103D60003AF91CA00FFA89FCCCEB0A0C0CFB0BFCFB
:103D70009CFBFEFCCC4428F801C095F804C003FB72
:103D80000CFC7C4B9CFBF3F373449BB27B4393FB97
:103D9000FEFE1BE096F85EE1BEF1000F04D0734515
:103DA000CCBFCEEB03030023DDF814C003FB0CFEF5
:103DB000A8F804E095F805E0002BB8BF5B4203FBD0
:103DC0000EFE6C4B9EFBF3FE0EF1640EB31893F8DF
:103DD0000480DFF8C8C10EFB08F8642398FBF3F8F1
:103DE00002F80C8094F80E900CF103080EFB09F910
:103DF00099FBF3F902F8089094F818800CF1060C7E
:103E00000EFB08FE9EFBF3F302F80C30DDF80CE02D
:103E1000049B9E45DFF868E104DA3EF801305B421E
:103E20002EF801300132032A01F1020104F10104EC
:103E30007FF467AF4D4EB6F81C31984205DBB0F504
:103E4000FA6FA8BF4FF4FA6000E01846C01A4FF4AA
:103E50007A725043C3F5FA63B0FBF3F36427464C20
:103E600093FBF7F204EB42016FF0630000FB0233B7
:103E7000098B04EB4202B2F91A000AB2821A5343C8
:103E800093FBF7F739443D4F3D4D3B88AEF80610A4
:103E90005A063CD53B4B1888238EC01A00B20AF054
:103EA00083FF39490AF0D4FF80460EF069F9814654
:103EB00040460EF0D9F98046B5F902000AF074FFC9
:103EC0008246B5F900000AF06FFF494683460AF0C2
:103ED000BFFF41460346504602930AF0B9FF029BDA
:103EE000014618460AF0AAFE0BF078F949462880E8
:103EF00050460AF0ADFF4146814658460AF0A8FFF9
:103F0000014648460AF09CFE0BF068F96880B268EA
:103F100040F602031340002B7ED01C4B06211D8867
:103F2000636B1D4494F8383065630133DBB2B3FB37
:103F3000F1F084F8383001FB103313F0FF0F6BD130
:103F4000930730D503F068F8114B124A1B7812889A
:103F50009A4225D2104A12889A4234BF0023012384
:103F60001FE000BFFE05002074040020B8200020E0
:103F7000A80200200CFEFFFFE00D002058020020E8
:103F800066020020AA03002035FA8E3CD4030020EC
:103F9000A80400202406002026060020EE0D0020A4
:103FA000022384F83930B368180533D594F84D30BE
:103FB000E16B04EB4303B3F85000082391FBF3F2E9
:103FC00080B28A1A0244E26392FBF3F292B240F6A4
:103FD000E4435A438E4B40F6FF71B2FBF1F219688D
:103FE0004FF47A73C8888988121A5A4392FBF1F207
:103FF0005543884995FBF3F30A60D4E91601C018CC
:1040000041EBE371C4E916010023834A0BF02CF95C
:10401000824B1860002363638149824A0B6894F8DD
:1040200039A013F4805318BF012382F86030B368BD
:10403000894613F4807F7C4D2AD0636E28781B68F4
:10404000C0F380005B68DFF8DC81984758B101233A
:1040500088F86830D8F864301B68DB68984710B17E
:10406000022388F86830636E1B689B68984730B1FC
:104070002B78590703D46B4B022283F86820636EB8
:104080001B689B69984718B1664B002283F868202B
:10409000664B1A6892060DD5D9F8003013F4C06F3C
:1040A00005D0634B1B789B0701D4012300E000235C
:1040B00084F8693094F868205A4B022A02D14C20C7
:1040C0004E2126E0012A06D153204D214C220B46D9
:1040D00006F08CFB31E093F86920012A03D15320CC
:1040E00001464E2206E093F86020012A04D15320B5
:1040F000014602464D23EBE7BAF1020F04D15320EB
:1041000001464D224423E3E7BAF1010F03D15320C6
:104110004D210A46F6E73A88170603D553204D216C
:104120000246D4E7434A107818B1192006F032FB52
:1041300003E083F86A00FEF76CFA2B78580703D582
:104140003D4B08225A615AE0D9F80020D10703D428
:10415000354943F001030B7034490B6813F0020337
:1041600002D036490988A1B93549098801B12BB96E
:10417000344B1B88003318BF012300E0012343B1F7
:104180002D4BD96881F00801D9602B7823F0010309
:104190002B70274B1B781F0703D42B7823F00103C8
:1041A0002B70D00203D52B7823F001032B702B78D2
:1041B000254A13F0010F05D00023E3661E4B0821AA
:1041C00019610BE0E16E136841B9164903F5F42358
:1041D00003F59073CB66184B08215961E36E1268A2
:1041E0006BB1D21A002A0ADB134A03F5F423D16813
:1041F00003F5907381F00801D1600A4AD36608F094
:1042000093F9124B1B781BB305F096F900F06EBCC6
:10421000A4040020AC040020407E0500B00400206F
:1042200054020020E00D00206528002050020020EC
:10423000A10200205A030020000C01406C2800203D
:104240002C0300205C280020502800206428002037
:10425000012003F0E4FF002800F04884DFF8EC922E
:1042600099F84A30012B40F03B84DFF8E4A2AF4FCD
:10427000D9F80030CAF800903B60D0463868FEF7A5
:1042800005FA002800F01E84A84B1868FEF7F9F91B
:10429000D8F8003093F84820D2B9B0F124014A424E
:1042A0004A4183F84820002AE8D12B785B07E5D4FF
:1042B000232802D105F040F9E0E7D4F808311B7D4E
:1042C0008342DBD19A4A9B4B1A6007F0FBFBD5E790
:1042D000012A04D14D2814BF002202221AE0022A2A
:1042E00004D13C2814BF0022032213E0032A09D181
:1042F00040284FF000020DD81A71DA715871987188
:10430000042207E0042A08D19A7983F84900504032
:104310009871052283F84820B0E7052AAED11A79B2
:104320005979914207D9997941409971511C197174
:1043300013441872A2E79A79824240F0BE8393F840
:10434000490004F071F8002840F0B283DAF8002048
:1043500092F84930442B00F0A58340D82D2B00F073
:10436000FF8221D8252B00F0E58206D8212B00F012
:104370003682232B00F07081D9E3292B00F0E282F2
:104380002B2B00F0E882272B40F0D18302F0B8FEFF
:10439000694FA7F8E60002F0B3FEA7F8E80002F0C4
:1043A000AFFEA7F8EA0080E3352B00F084810CD83B
:1043B000312B00F05283332B00F0E7822F2B40F09B
:1043C000B6835D4F07F1400837E3412B00F0E382ED
:1043D000432B00F0EB82372B40F0A9830AE3D02B6C
:1043E00000F00B8261D8CC2B00F091810AD8C92B48
:1043F00000F02582CA2B00F0AD80C82B40F09783D7
:1044000000277CE0CE2B00F00C8240F2018202F00B
:1044100077FE6FF4AF6E00EB0E039BB2464FC62BD8
:1044200098BFA7F81A0102F06BFEA7F8D00002F0BF
:1044300067FEA7F8D20002F063FEDFF80C81A7F850
:10444000D400D8F800B002F05BFEABF8A80102F08F
:104450004DFE87F8290102F049FE02F047FE87F879
:104460002A0102F043FE87F80C0102F03FFE87F8B4
:10447000200102F03BFED8F8008002F041FE00EB84
:1044800080004000A8F8520002F030FE87F80401D6
:1044900002F02CFE87F8060102F028FE87F80501DD
:1044A00002F024FE87F80701FFE2D42B00F06181BF
:1044B00008D8D22B10D040F2018202F021FE1F4B0F
:1044C0001880F2E2EF2B24D0FA2B00F0B481D62B27
:1044D00040F02D83002744E12B7803F0040303F020
:1044E000FF07002B40F0E18202F000FE124B022891
:1044F00083F8580740F2878183F8587783E102F008
:10450000FFFD0F4BD8530237102FF8D101220D4B6E
:104510008FE10D4FD7F8008002F0F2FDA8F85600A9
:104520003F6802F0EDFDA7F85400BEE24805002008
:10453000EFBEADDEF04F0020B82000205204002076
:10454000FE05002041020020A8020020500E00209D
:1045500044050020CC4B00271A6898461278022A9E
:1045600061D1D8F800B002F0C1FD07F108020BEBF1
:10457000820B0AF015FCC5490AF01EFDCBF80400B9
:10458000D8F800B002F0B2FD07F10A020BEB820B83
:104590000AF006FCBE490AF00FFDCBF80800D8F877
:1045A00000B002F0A3FD07F10E020BEB820B0AF044
:1045B000F7FBB8490AF000FD0137032FCBF80400E0
:1045C000CFD1072FD8F800B016D102F08FFD0AF036
:1045D000E7FBAE490AF0F0FCCBF84800D8F800B091
:1045E00002F084FD0AF0DCFBA8490AF0E5FCCBF8F8
:1045F0004C0002F07BFD12E002F078FD0BEB0703AC
:104600001871D8F800B002F071FD0BEB0703987336
:10461000D8F800B002F06AFD0BEB070318760137FB
:104620000A2FCED141E2D8F800B002F05FFD0BEBCB
:1046300007031871D8F800B002F058FD0BEB070320
:104640009873D8F800B002F051FD0BEB0703013767
:104650000A2F1876E7D128E202F048FD27282ED845
:10466000DFF8248200F11C02D8F8003003EB820B43
:1046700002F03CFD884B0BF1050703F58A7193F8B6
:1046800008E0864503D00C338B42F8D117E01B7845
:104690008BF8053002F02AFD787002F027FDB87023
:1046A00002F024FDF870D8F8001001F17500043113
:1046B00007F00CF8F9E102F019FD0B2802D902F01D
:1046C00061FDF2E14FF0060808FB00F06E4B00F5CB
:1046D00088701B6803EB000802F008FD0328EED881
:1046E00088F80A0002F002FD88F8050002F0FEFCDE
:1046F00088F8060002F0FAFC88F8070002F0F6FCE1
:1047000088F8080002F0F2FC88F80900CDE1634F58
:10471000D7F8008002F0EAFC88F80000D7F80080A3
:1047200002F0E4FC88F80100D7F8008002F0DEFC1B
:1047300088F80400D7F8008002F0D8FC88F805005B
:10474000D7F8008002F0D2FC88F80600D7F8008085
:1047500002F0CCFC88F802003F6802F0C7FCF87059
:10476000A3E102F0CDFC4E4BD8530237102FF8D105
:104770009BE14FF00008444F08F12C0B3968019180
:1047800002F0BEFC01994FEACB021144C88039689F
:104790000292019102F0B4FC029A0199114408813D
:1047A000029202F0ADFC0728029A02D839680A4446
:1047B0005073A0F57A7292B2B2F57A7F03D83A6854
:1047C00002EBCB0250813F6802F090FC08F1010837
:1047D00007EBCB03B8F1080F1873CCD165E10027C4
:1047E000294BD3F8008002F081FC08EBC7030137A6
:1047F000082F83F86D01F3D157E12B785F0700F1A3
:10480000548101F0B5F903F04BFD05F027F84CE1B8
:104810002B78580700F14981224B4FF4C8721A8057
:1048200043E12B78590700F140811F4B1A7842F081
:1048300004021A7039E12B785A07E4D577E102F0C7
:1048400055FC194B1A7810B142F0020201E022F037
:1048500002021A7002F04AFC144B154F187002F055
:1048600059FC386002F056FC786002F049FC114BAC
:10487000188002F045FC104B188094F8243143F066
:10488000020384F8243110E1A80200200000204136
:104890000000C84200007A44204C01087404002043
:1048A000EC0E00202C030020A1020020A00200201A
:1048B000C0040020B6040020B404002002F016FC5E
:1048C000019002F027FC029002F024FC804602F0E6
:1048D00021FC074602F014FC02F012FC02F006FC78
:1048E0000199964B029A99B9C3F82821C3F82C81F3
:1048F000934B1A8822F010021A80924B1A7842F0D9
:1049000001021A70002F00F0D0808F4B1F60CCE0A6
:10491000102940F0CA80C3F83021C3F834810FB1A8
:10492000894A176089480222011D83F8382103F063
:1049300026FABAE00023B36002F0ECFBB368184338
:10494000B060B2E002F0DCFBA6F8080102F0D8FB90
:10495000A6F80A01A9E002F0C9FB7D4B5871A4E05A
:1049600002F0C4FB86F8180102F0CAFBA6F81E018B
:1049700002F0C6FBA6F81A0102F0C2FBA6F81C0161
:1049800002F0B4FB86F819018FE002F0AFFB704B28
:1049900083F8200189E0002702F0A8FB6C4B3B4420
:1049A0000137082F83F81001F6D17EE002F09EFB5C
:1049B000674F0023BB60787102F0ACFBBB68184303
:1049C000B86002F093FB87F8180102F099FBA7F892
:1049D000E60002F095FBA7F8E80002F091FBA7F8CB
:1049E000EA0002F08DFBA7F8080102F089FBA7F8A6
:1049F0000A015AE05379142B7FF461AE4FF000089E
:104A000002F074FB524F08EB070308F10108B8F1FC
:104A1000040F83F83001F3D102F07CFBC7F83401B6
:104A200002F078FBC7F8380102F074FBC7F83C01CC
:104A300002F070FBC7F8400137E002F061FBA7F815
:104A4000D80102F053FB87F8DA0102F04FFB04377C
:104A500087F8D7014745F0D127E03D4F07F180089F
:104A600002F04EFB00F03F00A7F85A0102F048FBAD
:104A7000B7F85A21800100F4F8631343A7F85A31BC
:104A800002F034FB000187F8580102F02FFB97F881
:104A9000583100F00F00184387F858010437474594
:104AA000DED102E0012384F83931002002F06EFBF0
:104AB000DAF80030987902F036FBDAF8003000229C
:104AC00083F8482094F8393153B1D9F80000FDF744
:104AD000CEFD18B93220FDF792FDF6E706F0F2FFA1
:104AE0001C4A09F14C0991457FF4BAAB1A490B688D
:104AF0009B0616D5194BD4F83C211B689A1A002A3C
:104B00000FDB174A1278042A0BD90C4A03F512332B
:104B100003F5F873C2F83C31124BDA6882F01002E8
:104B2000DA60114B9B682BB11048984702E002F005
:104B300029FBBDE707B0BDE8F08F00BFE00D002006
:104B400058020020A10200205C020020100F00206B
:104B5000B8200020E80E002050020020502800203D
:104B6000A0020020000C0140AC020020200F002019
:104B7000234B70B519684FF47A73B1FBF3F1214BF5
:104B800021481A78214B224D1B7806F093F9214BCE
:104B900021481968214B2E68B1FBF3F106F08AF920
:104BA00000241F4BE2B253F8221049B1012303FA4B
:104BB00002F2324202D01B4806F07CF90134F0E7E1
:104BC0002A6892070DD5184A1848127803EB820319
:104BD000196A06F06FF9164B197A11B1154806F0EB
:104BE00069F91548FDF7A0FDBDE87040134B144866
:104BF0001A88144B92B2198840F27C7306F05AB9A5
:104C0000B4200020A8040020DE6101089C000020E0
:104C100050020020A00000201C62010840420F004A
:104C2000344D01083A620108672800203E620108FD
:104C300018030020486201086E6D0108B0150020BD
:104C40004C620108D4030020F8B50024204BE0B2E8
:104C50001F78B8420CD21F4B33F810101E4B53F87C
:104C600020301BB10B2801D8DB6898470134EDE7F1
:104C70001A4B9B685B032AD50025194E2B46EAB2D6
:104C8000BA4224D2726854689C4218D02046FEF77B
:104C90001EFAEFF31283502282F3128811494FF06B
:104CA000280CA28C0CFB001092B201324262A28A44
:104CB000DBB292B242F00102A28283F3118856F86D
:104CC000043F00221B6801351A802346D7E7F8BD50
:104CD00034280020362800203C080020B82000207E
:104CE00038080020681F00202DE9F04FAE4E85B037
:104CF0003778032F14D9AD4BAD48B3F90410B0F990
:104D000004200029B8BF49426FF063035B1A9A423E
:104D100004DB01F164039342A8BF134683801FE0C4
:104D2000012F1DD8A34BA44C1B78013B142B00F280
:104D3000E181DFE813F09100DF01DF0168009F00EF
:104D4000DF01DF012F01DF01DF01DF01DF01DF0113
:104D5000BD00DF01DF01DF01DF01DF01A101B801DB
:104D6000924B9649B3F806A0914B0968B3F80280BC
:104D7000B3F80090B3F904B0914C02910025BD4204
:104D800004F11004CED20FFA8AF00AF00DF854F8AC
:104D9000101C0AF05DF803460FFA88F001930AF040
:104DA00003F854F8081C0AF053F8019B0146184612
:104DB00009F046FF03460FFA89F0019309F0F4FF6A
:104DC00054F80C1C0AF044F8019B0146184609F0FF
:104DD00037FF029A034692F90000019340420BFB11
:104DE00000F009F0E1FF54F8041C0AF031F8019BCF
:104DF0000146184609F024FF0AF0F0F9714B23F838
:104E000015000135BBE702210420FDF7F6FC684DD3
:104E10000121AF8878431FFA80F80420FDF7EDFCEC
:104E20006D8800FB05801FFA80F80420FDF7F4FC74
:104E30004044208102210520FDF7DFFC7843012159
:104E400087B20520FDF7D9FC00FB057087B205206D
:104E5000FDF7E2FC38440BE005200121FDF7CDFC15
:104E6000534B9D88684385B20520FDF7D5FC284447
:104E700060813FE1544B00201D68FDF7CDFCDFF859
:104E8000648195F90630B8F902203227534393FB29
:104E9000F7F3184420800120FDF7BEFC95F90E3091
:104EA000B8F90020534393FBF7F73844608021E1C1
:104EB000464B1B7813F0040F454B02D11B689B88AF
:104EC0000BE01968394A0B88B2F9062049889A42E2
:104ED00003DB9142B4BF0B461346E381E289394BB1
:104EE000394F1A803B4B1B681D7845B30220FDF7F4
:104EF00093FC3A68B2F91030518A984203DB0BB246
:104F00009842B8BF0346344909684889C3EB000E8C
:104F1000324B0FFA8EFE19880FFA81FCF44501DA44
:104F20000D4401E001DD4D1B1D8092F91620B3F9FF
:104F300000305343642293FBF2F31844A080284BC3
:104F40001B88DB050CD5194B1A88D7F80090E28036
:104F500022819A88184F62815B880325A38101E032
:104F6000134BF1E709EBC50393F90630B7F9068057
:104F7000284608FB03F8642398FBF3F8A7F806809B
:104F8000FDF74AFC01354044072DF88007F1020780
:104F9000E8D1AFE00D4B1B7813F0040F0C4B23D17D
:104FA0001B689B882CE000BF34280020660200208C
:104FB000A81D00207C040020880000208004002020
:104FC0008C08002036280020641A00206528002064
:104FD0006C1A0020701A0020741A0020280F00207C
:104FE00058020020940300201968AD4A0B88B2F9DA
:104FF000062049889A4203DB9142B4BF0B46134610
:10500000E381E289A74BA84D1A80A84B03201B8897
:105010000121DF0503D5FDF7F0FBA14F02E0FDF70D
:10502000ECFBA34FB7F80280022100FB08F01FFA47
:1050300080F90320FDF7E1FB3F88012100FB079089
:10504000E8800420FDF7D9FB00FB08F002211FFADD
:1050500080F80420FDF7D1FB00FB078028810320A6
:10506000FDF7DAFBE3881844E0800420FDF7D4FB69
:105070002389184420813DE001210420FDF7BDFB78
:105080008B4D6F88784387B204202781FDF7C4FBDE
:105090003844208101210520FDF7AFFB2D886843AE
:1050A00085B26581E0E6824B0325B3F8049098460B
:1050B00028460221FDF7A1FB00FB09F0012187B280
:1050C0002846FDF79AFBC5F106035B0838F8133054
:1050D00000FB037087B224F815702846FDF79CFB8F
:1050E000384424F815000135072DE1D16C4BDA88DE
:1050F0006C4B1A806F4DDFF8E491AB6813F0200F12
:1051000034D00020FDF788FB208080460120FDF789
:1051100083FB694B644F1B6860801A0626D5674B7A
:105120001B681B7813F0020F654B23D0D9F800C021
:10513000B3F900109CF90E209CF906C0B3F90230B7
:105140004A43CCF1000C03FB0CF3322192FBF1F249
:105150006FF0310C92B293FBFCFC9444E04493FB5F
:10516000F1F1A7F800800A4410447880D9F80010C3
:10517000002319E0D9F80010B3F902C091F9062014
:10518000B3F900300CFB02FC32229CFBF2FCE04441
:10519000A7F8008091F90E104B4393FBF2F2E3E77E
:1051A000E2520233102B0CD0E05E31F9232001EBE8
:1051B000830790427F88F3DB3AB28242A8BF02465F
:1051C000EEE73E4B1B681B785B0704D43549347807
:1051D000088801231BE03B4B00241F780423043F75
:1051E000FFB25FFA87F84FFA88F2D4420BD4364AFE
:1051F00003F10109381932F813105FFA89F9C0B2C6
:10520000FDF7A7FF4B460134042CECD1DEE7A342A7
:1052100008D231F9132000B28242A8BF104680B2F2
:105220000133F4E7294B4FEA44081A68AB6803F4EA
:1052300080550395244D03F01009254BB5F9066000
:10524000244D1B782F68244D03F00403DBB2D5F8FE
:1052500000C002930023434562D0B2F802A004B21A
:10526000544505DD0F4CC0EB0A0A1D5B55441D5328
:10527000039D0C4C002D33D07D8931F903A0AE4243
:10528000CBBFBCF802509588B2F802B0BCF800B0B1
:10529000AA4503DBDA45B4BF55465D46E55238E022
:1052A00066020020362800208800002058020020D6
:1052B000A81D0020B820002054020020781A0020E9
:1052C0009403002010070020FE0500206C1A002027
:1052D00065280020741A0020681A0020641A002033
:1052E00031F903A01588B2F802B0AA4503DBDA450C
:1052F000B4BF55465D46E55204EB030ABC89A6429D
:1053000007DAB9F1000F01D1148800E09488AAF8F7
:105310000040029C14B9044C1C5BCC5202339AE747
:1053200005B0BDE8F08F00BFEC0E0020F0B5884C52
:10533000884A23689D8AADB2E9B211F0010F32D0DC
:10534000198821F400610904090C1980198889B2AF
:1053500041F480611980002191707F4908787F496C
:10536000A8B1D07818B97E480078FF280FD1012065
:10537000D0707C480078022804D1188880B240F4AC
:1053800000601880097841F00101198202E1097872
:1053900001F0FE011982724B1B78FF2B00F0FA809E
:1053A000FF239370F6E08F073CD5BFF35F8F6D4905
:1053B0000878C0B2012814D1674D2D788DB1D57809
:1053C0007DB1198821F480610904090C1980BFF3AB
:1053D0005F8F198B1988107189B241F4007119809F
:1053E0001BE0188BBFF35F8F087802280BD15A4857
:1053F000007840B1D07830B1198821F48061090477
:10540000090C1980C0E00978032906D152490978AE
:1054100019B1D178002940F0B780998889B241F458
:105420008061B6E04E075BD5012111714A490978C8
:1054300000293AD0D178002937D04A4990780978A4
:10544000494D022919881ED921F480610904090CEB
:1054500019801F8A2E68C1B2FFB240B23754188833
:1054600080B240F4007018808B1C93702368286809
:105470001D8A013149B2EDB24554998889B241F48F
:105480008061998027E089B241F4007119801E8AF9
:105490002D68C1B2F6B240B22E541B8A481C40B2ED
:1054A000DBB203312B54917015E0D17811B92F493B
:1054B000097841B1198889B241F400711980937853
:1054C0000133937007E0198889B241F48071198023
:1054D000204B0121D97021680B88D805FCD459E0F4
:1054E00001F0400101F0FF061E48F1B11E49B3F87A
:1054F00010C00F6891785FFA8CFCCDB26E1C49B277
:10550000F6B207F801C09670077876B2F11C8F42A8
:1055100005D1998821F480610904090C99800378E8
:10552000B34237D10235957034E0290632D59178EF
:105530004DB26F1C1ED00E4E01313668C9B2755D7A
:105540009170EDB21D82007849B2884222D11BE0F1
:1055500044100020280F00204C100020491000208B
:105560004A10002058100020541000204B1000203A
:1055700050100020134996700978C9B21982124957
:10558000097809B9017829B9998821F48061090459
:10559000090C99800D4B92F9021018780C4B421CA3
:1055A00091420DD10022DA701B7933B122689388C1
:1055B00023F440731B041B0C9380064B00221A70CB
:1055C000F0BD00BF4A1000204C10002058100020F1
:1055D000280F00205910002010B5044620460CF07A
:1055E000E1FB10F0FF0F06D10C4B0D481978BDE818
:1055F000104005F05FBC20460CF029FC02280CD8B6
:10560000064B0A221870074B074C02FB0030074B71
:1056100002301860FCF7C0FFE0E710BD400D00202D
:10562000E2620108102800204A6501087404002085
:10563000954B2DE9F74F1B78013B012B00F22081A0
:10564000924B1E78864240F01B81914B1B78022BB7
:1056500000F016818F4B904D13F806808F4B83F826
:1056600000808F4B1A7801921AB18E4B33F91600D5
:1056700007E08C4A2B6832F9160003F100432B60D7
:10568000404209F091FB884909F096FCDFF838A206
:105690000446DAF800B00021584609F06DFD0027F5
:1056A000DFF82C92002859D0D9F800B0204659468E
:1056B00009F08AFD68B17D4B2A687B491A60C9F8F8
:1056C0000040204609F0C4FB09F088FD784BD880E3
:1056D000BDE05846394609F077FD002800F0B78054
:1056E000744B1A78002A31D12046296809F0A6FAAD
:1056F0004FF07E5109F04AFD6F4C28B160686F4948
:1057000009F0A6FB60600FE06D49606809F0A0FB3E
:10571000DFF8CCA18346514609F038FD10B9C4F832
:1057200004B001E0C4F804A0624A01231370654B81
:1057300000221B68C9F8007043449A72019A82F0F3
:105740000103574A1370604B1F6080E05F4BCAF83B
:1057500000401A68554BFA325A6078E020465946A4
:1057600009F014FD48B1584A4F491460204609F029
:105770006FFB09F033FD4E4BD880534BD9F80090A6
:10578000D3F800A04846514609F058FA4F4B8346DB
:105790001968464B5A688A1A002A0BDA4FF07E5174
:1057A00009F012FD002852D02046514609F00CFDA8
:1057B00000284CD03D4A4846116809F005FD3E4C92
:1057C00038B120683E4909F043FB3C492060A0689D
:1057D00007E058464FF0804109F0F6FC28B1A06878
:1057E000374909F035FBA06004E02068334909F02F
:1057F0002FFB2060334B2C492068D3F8009009F030
:1058000027FB09F011FD09F80800A06809F00CFD5C
:10581000019AC84482F00103214A88F814001370E9
:10582000294B1F602A4B1F60224B1A780132D2B2DB
:10583000032A01D01A700AE000221A701E4B254973
:10584000586809F005FB09F0EFFC88F80A001EB95A
:10585000174B1A8864321A80114A13780BB11E4B09
:1058600000E01E4B2B600F4B33F9160009F09CFA39
:105870000D4909F0A1FB0146286809F0DFF900E0B5
:10588000084603B0BDE8F08FDC03002030040020A0
:1058900040040020F8440108E003002041040020F7
:1058A000310400209403002000002041300F00202C
:1058B0001216002032040020440400200AD7833F3F
:1058C000EC51783F3C04002034040020B420002038
:1058D0003804002000007A440000A0410000A0C16C
:1058E0006F12833A2DE9F04F87B00593914B0492E4
:1058F000B3F90220B3F90030002AB8BF5242002B9E
:10590000B8BF5B429A42B8BF1A460024B2F5FA7F8C
:10591000A8BF4FF4FA72029001922646A14627468C
:105920000394A0462546DFF840A2BAF80030990754
:105930005AD0022D58D07F4BDDF810C0F25E7E4B5E
:10594000F35E03EB4202CCF100039A4203DB6346B1
:105950009A42B8BF1346794ADDF814C036F902B04E
:105960003CF90620CBEB030303EB020BFDF792F8A7
:1059700090B1734B584615F8038009F015FA714938
:1059800009F01AFB01464046FFF752FE6D4909F047
:105990005FFA09F023FC834602996423CA7902FB6B
:1059A0000BF292FBF3F2CB7E6FF0040101FB03F8E4
:1059B000424505DB03EB83039A42B4BF9046984609
:1059C000614A42F21071A3585B448B42A8BF0B4658
:1059D0005E498B42B8BF0B46A350029A92F811B0B1
:1059E0000BFB03F31B130393BAF8003003F003021D
:1059F000012A01D1022D3DD102994E4A11F805C06C
:105A00005349B75E895F534A81EAE170A0EBE170C8
:105A1000B0F5206F54F802901DDC022D15D05020F7
:105A2000784390FBFCFC042091FBF0F1C1EB0C0CE3
:105A3000E1444948B9F57A5FA8BF4FF47A598145E6
:105A4000ACBF42F80490105107E087EAE770A0EB82
:105A5000E7706428E3DD002111513E4AA1587D2200
:105A600091FBF2F9029A2A44927A02FB09F9402248
:105A700099FBF2F99A0716D5022D14D0019ADDF898
:105A800004C0C2F5FA730CFB09F07A43DDF80CC0D0
:105A900003FB082203FB0C034FF4FA7192FBF1F2B3
:105AA00093FBF1F308E0DB0701D5022D02D14B4651
:105AB0003A4601E0039B42462549DFF8B0B0715AEF
:105AC00004200FFA81FC15F80BB09CFBF0FA0BFBDD
:105AD0000AFB6FF04F0A9BFBFAFB93441F4A36F90F
