:020000040800F2
:1000000000500020D10B01087D0C0108CDF500083F
:100010007D0C01087D0C01087D0C0108000000002A
:100020000000000000000000000000007D0C01083E
:100030007D0C0108000000007D0C0108BDF50008E2
:100040007D0C01087D0C01087D0C01087D0C010868
:100050007D0C01087D0C01087D0C01081DF40008D1
:100060007D0C01087D0C01087D0C01087D0C010848
:100070007D0C01087D0C0108DDF300087D0C0108F2
:1000800021F400087D0C01087D0C01087D0C01089D
:100090007D0C01087D0C01087D0C010819F4000895
:1000A0007D0C0108EDF200087D0C0108FDF200084E
:1000B000DDF20008CDF20008BDF200085DF4000892
:1000C00055F4000859F4000851F400087D0C0108AB
:1000D0007D0C010899F300080DF300087D0C010860
:1000E00061F400087D0C01087D0C0108000000008F
:1000F0000000000000000000000000000000000000
:0C01000000000000000000005FF808F1A3
:100110002DE9F04F734B744EA3B03360002373602E
:1001200007F046F918B90DF04BFF07F063F90EF030
:100130001BFF00230B930C930D934FF4E0130E93CE
:100140006A4B6B4F1968BA7B41F480311960996929
:100150001F4641F0100199613B6803F400330C9392
:100160000B9B01330B930C9B1BB90B9BB3F5A06F3F
:10017000F2D139685D4B11F4003101D0022315E052
:10018000186840F0010018600B913B6803F002030F
:100190000C930B9B01330B930C9B1BB90B9BB3F57F
:1001A000A06FF2D13B68990739D501230D93514BCC
:1001B000514D196841F010011960196821F00301CF
:1001C0001960196841F0020119607B687B607B68E7
:1001D0007B607B6843F480637B60484B1968043B19
:1001E00021F07041596046492960796821F47C11F9
:1001F0007960596841F000415960D96821F40041A3
:10020000D9609B681B0449BF3E4B4FF4E0132B6041
:100210004FF480130E930D9B012B01D117E0FEE7E5
:10022000022B18D16AB10E9BB3F5801F02D14FF497
:10023000A01305E00E9BB3F5E01F02D14FF40013AD
:100240000E937A680E9B134343F4803302E07B687D
:1002500043F460137B603B6843F080733B603A6813
:10026000224B9401FBD55A6822F003025A605A6867
:1002700042F002025A607B681C4A03F00C03082B10
:100280000793F8D15168204B01F00C01042903D0E9
:10029000082904D01A4A00E02A681A6011E051685F
:1002A0005068C1F38341C00301F1020101D4174A30
:1002B00005E0526812F4003F2A6818BF5208514303
:1002C00019607A68C2F303122A4492F804B01A68DB
:1002D00022FA0BFB0A4AC3F800B02B68934217D1ED
:1002E000012219E0D15D00083C0600200010024008
:1002F0008022002000200240240000200410014041
:1003000000127A00001BB700A000002000093D0089
:10031000A34A934202D10222A24B1A70DFF8D4A260
:10032000A14B22ACCAF80C30BB69DFF8AC9243F0A9
:100330000103BB617B6A4FF0000843F080737B626E
:10034000BB699A4843F01C03BB614FF6FF7324F866
:100350002C3D21468DF85E8004F056FF484621462C
:1003600004F052FF2146924804F04EFF914B204684
:100370005A6842F000725A600BF07EFC179B8E4A5E
:10038000B3FBF2F34FF47A72B360BBFBF2FB8B4B1F
:100390000BF1FF325A60F0228AF823200722C3F8BB
:1003A00008801A60864B0FCB84E80F00BB69179852
:1003B00043F00803BB61BB6918A943F00803BB61A4
:1003C0000823C9F810301023C9F8103004F01CFFBE
:1003D00019981AA904F018FF7A4B9A68120752D597
:1003E00093F81821012A4ED8774A784993F81901D1
:1003F000B1F800E01388924643EA0E4E744B9E45D6
:100400009B4640F04F824346002B3CD07149DFF8B9
:10041000C8910868DFF894811022C9F81420214699
:1004200017904046059204F0EFFE0821C8F810101E
:100430003C2005F0A6FB059AC9F810204FF00009F2
:10044000604991F81931994514DA634908230B6121
:100450007820C8F814300591039305F087FB0599BF
:10046000039B78204B61C8F8103005F07FFB09F141
:100470000109E5E7554B1A88BAF8003043EA024310
:100480005B4540F01782642005F07BFBA0225348B7
:10049000002112F066FDFB69002243F00703FB61B7
:1004A000BB6943F4006343F00C03BB614C4B002079
:1004B00003F10C01505401320E2AF7D1FF229A7633
:1004C000DA761A775A77374B21461A789846012AF6
:1004D0008CBF102314238DF85E304FF002038DF88B
:1004E0005F30BB698CBF4FF00109814643F00403C4
:1004F0004FF4805200F18040ADF85C2000F584306C
:10050000BB6104F081FE374BB9F1000F01D0364AD0
:1005100000E0364A00201A6005F03DFB344B93E8BA
:100520000300BB6984E8030043F0080318A9BB611A
:10053000179804F069FE0AF0E9FD9F238DF8443016
:10054000322000238DF845308DF846308DF8473045
:1005500005F017FB204B4FF480525A61A3F554432A
:1005600011AA9B8905204FF47A73214691460138E0
:1005700048D01AB192F800A0013208E04FF0FF0A0B
:1005800005E003F1FF3E1FFA8EFEBBB37346DFF8B2
:1005900068E0BEF808B01BF0020FF2D091E100BF96
:1005A000001BB7003E2A00200005FA0500080140A4
:1005B000001001400000014040420F0010E000E048
:1005C000DC57010880220020086C0040106C0040BD
:1005D00007B0F750EC570108000C01402C21002017
:1005E0003C060020382A0020595400086D540008A9
:1005F000F057010800ED00E000380040F38B0133B4
:100600009BB2F383BD4E4FF4805AC6F810A09DF8FC
:100610005E209DF85D30120242EA03429DF85F3091
:100620001A43B74B9A4212D0C6F814A0F52007F02F
:10063000CDFBFF2007F0CAFB7028C6F810A006D13A
:1006400098F80030022B02D1AE4B03221A7098F8B2
:100650000030032B02D001200CF0D0FDAA49AB4E94
:100660008B6898F800B04FF010080021424603F460
:10067000004A304603F40063069312F072FC002334
:100680008DF84730042333700123022207219B4554
:100690008DF84620ADF84480B370F17009D9302050
:1006A000ADF84400052030727372B372F172904657
:1006B00000E09846BAF1000F10D0BDF8443086F83B
:1006C000058043F00203ADF84430012308EB030238
:1006D0003371B3710723F3715FFA82F88C4849468E
:1006E0000BF01CFB069B93B1022384484946ADF8EE
:1006F00044300BF013FB092301223373B27308F16A
:100700000103072286F80D80F2735FFA83F87B6994
:10071000804843F001037B61BB69DFF8F89143F443
:100720000073BB6104F0ECFE7B4B002717937B4BFF
:10073000B8F1010F18930CBF3B4680231C934FF474
:1007400080731D934FF480631E93202321461F93D3
:1007500048464FF4005320931997CDF868801B97B3
:10076000219704F0AFFED9F80030B8F1010F43F043
:100770000103C9F800306A4B98BF00215A6888BF4E
:10078000012122F4702222F4807242EA01225A608E
:100790009968644A38460A4042F4602242F00202F4
:1007A0009A60D96A08F1FF3221F47001D2B241EAAD
:1007B0000252DA62012331188A78002A5AD0325C58
:1007C0005C1C092A91F803E0E4B2554911D9A2F161
:1007D0000A0707EB47074FF0070C0CFA07FC0EFA65
:1007E00007FED1F80C8028EA0C0C4CEA0E07CF600B
:1007F0000EE002EB42074FF0070C0CFA07FC0EFA72
:1008000007FED1F8108028EA0C0C4CEA0E070F61A5
:10081000062B43490ED8013B03EB83034FF01F0E19
:100820000EFA03FE9A404F6B27EA0E0747EA0203CF
:100830004B6320E00C2B0ED8073B03EB83034FF0F8
:100840001F0E0EFA03FE9A400F6B27EA0E0747EAC7
:1008500002030B630FE00D3B03EB83034FF01F0E0E
:100860000EFA03FE9A40CF6A27EA0E0747EA020310
:10087000CB6200E01C460430102801D023469AE7E2
:10088000274B9A6842F480729A609A6842F001029B
:100890009A609A6842F008029A609968204A0F07A5
:1008A00044D5FAE700F1FF38B8F1090F8CBF0023F7
:1008B0000123A9E5144B002283F819210CF0F8F864
:1008C000E1E5AEF80CA0DFF860E0BEF808A01AF091
:1008D000010F08D103F1FF3E1FFA8EFE002B3FF4FB
:1008E0008DAE7346EFE7BEF80CE01FFA8EFE0029CE
:1008F0003FF43DAE81F800E0013138E6000C0140E4
:10090000152020003E2A002080220020280E0020F2
:1009100000080140080002404C240140380E00202D
:1009200000240140FDF7F1FF00380040936843F0D8
:1009300004039360A74A936813F00403FAD1916803
:1009400041F4A0019160A44AB2F8E60050B9B2F9AE
:10095000E83033B9B2F9EA30D3F1010338BF0023EC
:1009600000E0034613F0010340F081802B7500B2D4
:100970000FF060FB99490FF0B1FB974C0646B4F9B4
:10098000E8000FF057FB95490FF0A8FB0546B4F9B6
:10099000EA000FF04FFB91490FF0A0FB04463046F0
:1009A00012F00EFD0746304612F07EFD80462846C6
:1009B00012F006FD0646284612F076FD0546204652
:1009C00012F0FEFC8246204612F06EFD394681464A
:1009D00050460FF083FB3946834648460FF07EFBB6
:1009E0005146069040460FF079FB49460890404634
:1009F0000FF074FB3146099050460FF06FFB784CB6
:100A00004946206206F100400FF068FB294660620B
:100A1000A56208980FF062FB014606980FF056FA9F
:100A20002946E06209980FF059FB014658460FF03D
:100A30004BFA3146206308F100400FF04FFB294686
:100A4000606358460FF04AFB014609980FF03CFAE4
:100A50002946A06306980FF041FB014608980FF065
:100A600035FA3946E06330460FF038FB20645A4FC0
:100A70005B4CBB6813F4003F1AD0C82005F081F826
:100A80000BF099FCC82005F07CF807F5887300216D
:100A90000C2204F14800636412F063FA022384F824
:100AA0004B3007F051FF04F055FF4E4B03442365D4
:100AB0004D4B00211A68994642F00E021A604B4ACB
:100AC0004B4B1268B7F8EE60B2F8562097F8ED80FD
:100AD0000692484A97F8F5A011704749A3F10C0215
:100AE00008788B46012898BF134663650BF03AFEE1
:100AF000424D0346DFF824C100B3414B414ABB2EAF
:100B00001A60414AC3F80CC05A6001D901230EE0B3
:100B1000612E01D902230AE0292E01D9032306E020
:100B2000132E01D9042302E0092E05D90523314AE9
:100B30006B75012313702CE00623F8E71920CDF81C
:100B400010C0039305F01DF8039B68201A46152179
:100B50000BF074FB039BDDF810C0002801F0BC8192
:100B6000274A2A49622E11602949C2F80CC05160F7
:100B70002849916000F03D8340F23483BC2E00F0A0
:100B80003683B6F5807F40F036831A49AB75012372
:100B90000B70D9F8003043F00103C9F800301E4D46
:100BA00000232B70B8F1090F00F2F080DFE818F095
:100BB000380038005900B500D700EE00EE00EE0016
:100BC000EE000A00D9F8003023F00203C9F8003023
:100BD000DCE000BF002401408022002035FA8E3C7A
:100BE0003C060020404B4C0050020020A802002090
:100BF000D0570108C20200203E2A00202400002015
:100C0000AC0200201D6E000861BF000899C60008F4
:100C1000D3BF0008A1BF00082A03002090C1793D7E
:100C20009BF80030012B1CD8002622AB03F82C6D5A
:100C30005320314601220CF0E1FB90B19DF85C306D
:100C4000E52B0ED19D4B9E4A84F858601A609D4A50
:100C50005A60042301222B709B4B90451A7000F0C0
:100C600095809A4B9BF80010A3F10C02012998BFC4
:100C70001346974E63650BF075FD00284DD0062195
:100C800017AB68200A460CF0B9FB9DF85F309DF861
:100C900061C003F001035B000CF0010C43EA8C0C13
:100CA0009DF85D3003F001035CEA030C08D0BCF151
:100CB000010F01D100231BE0BCF1020F0FD116E0A0
:100CC00011AB68200C210122CDF810C00CF096FB6E
:100CD0009DF84430DDF810C013F00F0302D1052059
:100CE00001F0FBB8042B02D186F859C002E00123C1
:100CF00086F85930714B774A1A60774A5A6094F8EF
:100D00005920002A14BF6E226F221A720123022278
:100D10002B706D4B90451A7038D09BF80030012B2A
:100D20001DD8002222AB03F82C2D1C200D210122FE
:100D30000CF064FB98B19DF85C302A2B01D01A2B83
:100D40000DD15E4A654984F85A3011606449022326
:100D500051602B7003225C4B90451A7016D0002115
:100D600022AB03F82C1D182001220CF047FB68B1C0
:100D70009DF85C30FB2B09D1504B5A4A1A605A4AF5
:100D80005A6001232B70504B04221A704E4B1B7873
:100D900063B908F1FF38B8F1070F01D89846FEE6AD
:100DA000D9F8003023F00203C9F800309BF8003076
:100DB000012B05D10CF0CCFB4C4B4FF400525A6187
:100DC0000A2004F0DEFE7720A021012211AB0CF0F6
:100DD00015FB38B994F86CB03D4DBBF1000F00F035
:100DE000918064E11E21012277200BF027FA4FF455
:100DF0002F6004F0BBFE0025A5F160010026C9B2FA
:100E0000022217AB77208DF85C608DF85D600CF0E6
:100E1000F5FA9DF85D309DF85C1043EA01212C4BFA
:100E200003F15C02A9520235102DE5D1B3F86AE056
:100E300001210EF00F050EF47F4EA3F86AE0324652
:100E4000334622F001002044B0F85C00002818BFAF
:100E50000021D60703D5C0B24340082002E083EA50
:100E60001023FAE71E0448BF83F4C05301384FEA49
:100E70004303F7D10132102AE3D145EA0E0E144A9A
:100E8000A4F86AE00029A5D1C3F303339D42A1D1A0
:100E900042F21073A2F89430A2F89630144BC2F8C4
:100EA0009830144BC2F89C30134BC2F8A030134B4F
:100EB000C2F8A430124BC2F8A830F8E018030020A2
:100EC0000DC70008ADC00008372A0020D057010820
:100ED0003C060020896E000821BF0008C16E000892
:100EE00011C00008E9C6000869C0000800100140F0
:100EF00059C6000879BE000851C6000889BE00081E
:100F000091450008BF4E0CF023FB4FF4804411A91B
:100F100004233046ADF844408DF846304FF4005875
:100F200004F072F9B84BC6F810805A6917A822F479
:100F300070625A615A694FF0030942F400725A61B3
:100F40000823179401248DF861308DF860B08DF876
:100F5000624005F057FC282310A88DF840308DF82A
:100F600041908DF842B08DF8434005F02BFC1420E1
:100F700004F007FE11AB7720D02122460CF03EFA98
:100F80009DF84430A5F89090552B85F8873040F0B7
:100F90008780D121224611AB77200CF02FFA9DF8E3
:100FA0004430772003F00F021B0985F8882085F86C
:100FB0008930162217ABAA210CF020FA9DF85C208C
:100FC0009DF85D3043EA0223A5F870309DF85E205D
:100FD0009DF85F3043EA0223A5F872309DF8602047
:100FE0009DF8613043EA0223A5F874309DF8622031
:100FF0009DF8633043EA0223A5F876309DF864201B
:101000009DF8653043EA0223A5F878309DF8662004
:101010009DF8673043EA0223A5F87A309DF86820EE
:101020009DF8693043EA0223A5F87C309DF86A20D8
:101030009DF86B3043EA0223A5F87E309DF86C20C2
:101040009DF86D3043EA0223A5F880309DF86E20AC
:101050009DF86F3043EA0223A5F882309DF8702096
:101060009DF8713043EA0223A5F8843041F2707391
:1010700085F86C40A5F8943046F67813A5F89630BC
:10108000624BC5F89830624BC5F89C30614BC5F88F
:10109000A030614BC5F8A430604BC5F8A83006E01D
:1010A0005F4BC6F814801A6822F004021A605C4B89
:1010B0001A68984612F0020F02D05A4B1B689847E4
:1010C000594C23689847594B1B78012B07D80823A4
:1010D00017934FF48053ADF86030554B09E010235F
:1010E00017934FF48043ADF8603003F1804303F56C
:1010F0005043504C17AD1993C4F8AC500022BAF1CC
:10110000010F4C4E84F8B020DFF848B109D9BAF18C
:10111000030F21D1D8F8003023F00803C8F80030BD
:101120001AE022AB03F8442D1E200A210122C6F842
:10113000B4500CF063F978B19DF84430482B0BD1D2
:101140003D4BC6F8B8303D4BC6F8BC30032384F89D
:10115000B03001238BF800309BF8003063B90AF1FE
:10116000FF3ABAF1010F01D89A46C7E7D8F8003024
:1011700023F00803C8F80030314E96F8E2300BB186
:10118000304A137096F8E3300BB12F4A137096F87B
:10119000E4300BB184F8B030D8F800301A071DD510
:1011A00006994FF0640B0BB293FBFBFA5046039386
:1011B0000EF040FF039B81460BFB1A3000B20EF08D
:1011C00039FF22490EF08AFF014648460EF07EFEA6
:1011D0001F490EF083FFC4F8C0003DE00023C4F8AF
:1011E000C03039E00A2E0AD0142E06D003E00123C5
:1011F000CBE40223C9E40323C7E40423C5E40523A5
:10120000C3E400BF001001400000014085C6000893
:10121000E9BE000861C6000899BE0008E94600085A
:101220005002002018030020AC0200203E2A0020BB
:10123000000C01403C060020B1C40008DDBD0008E0
:1012400080220020C20200202A0300208988883CD6
:1012500000002041362A0020A04B10225A610822AB
:101260001A614FF00A0BDFF874A21920DAF80C307B
:101270000BF1FF3B83F01003CAF80C30DAF80C30A6
:1012800083F00803CAF80C3004F07BFC012004F062
:1012900082FC192004F075FC002004F07CFC1BF09B
:1012A000FF0BE0D10823CAF810301023CAF8103021
:1012B0008B4BDFF870A21B6893F90C000EF0BAFE9E
:1012C00088490EF00BFF12F07BF88346BAF8000055
:1012D0000EF0B0FE59460EF001FF12F0A7F8824B57
:1012E0001880BAF800000EF0A5FE01467F480EF007
:1012F000A9FF7F490EF0A6FF7E4AC4F8C4007949D1
:10130000D0680EF0EBFE7C490EF0E8FE7B4B717965
:1013100018607B4B7B4A19707B4B02EBC10191F843
:101320003510C4F8C830794B92461960B1689946B7
:1013300011F0200F1CBF0123C9F80030D8F800308D
:101340001B070DD5DFF894814FF0100BD4F8B8309F
:10135000C8F814B098470123C8F810B084F8CC300E
:1013600006F082FF11A80021162211F0FAFD737910
:101370000E2B01D0082B02D101238DF85030BB6811
:10138000D9F80000C3F340028DF84A20C3F380125D
:101390008DF84C20C3F3403200308DF84420C3F365
:1013A000C03218BF01208DF84720C3F3C0228DF84A
:1013B00048208DF84E00C3F3004255488DF84D206B
:1013C000C3F380428DF84B2003F00101C3F3C00248
:1013D00000688DF845108DF8462090F8B401C0F3F0
:1013E00080008DF84F00B7F8DE00B7F8E070ADF878
:1013F0005200ADF854704FF47A77ADF85670DF04B0
:1014000004D5444BB3F8DA30ADF85630B0F5FA7F76
:1014100084BF0023ADF85630B6F81A313E48ADF817
:10142000583096F8223184F8CD30002384F8CE303D
:1014300043709DF85030002B14BF0223002301B9E4
:1014400002B101330AEB8303D3F8F4304FF0000B01
:101450000893CDF818B0089B4FF6FF7233F80B8055
:1014600090455FFA88F30CD194F8CE3084F8D030F0
:10147000234B93F80090B9F1170F40F080810027BB
:101480006FE1264A9DF849104FEA031A02EB0A075A
:1014900019B1991E012940F24E819DF84C1029B1D5
:1014A00052F80A101E48814200F045819DF84D1007
:1014B00029B152F80A101A48814200F03C819DF887
:1014C000471011B1012B00F036814FEA1828B8F10E
:1014D000020F29D19DF844102BE000BF000C014001
:1014E0006403002035FA8E3C880300200AE81C4182
:1014F00000401C46AC020020BD378635600300204A
:1015000080040020C4570108902200207C040020A1
:10151000A8020020802200200A0700204075010850
:101520000004004000000020B8F1010F04D19DF834
:101530004510002900F0FF809DF84E1069B19DF81C
:10154000501051B9A3F10801012906D852F80A1028
:10155000B348814208BF4FF004089DF84F1031B1E5
:101560009DF8501019B9043B032B40F2CD80B8F11F
:10157000010F40D1FF23F97B84F8183184F8193129
:10158000BB684FF00009786884F81C91C4F8287192
:10159000ADF85C308DF85E10022329468DF85F307F
:1015A00084F8D490C4F8D890C4F8DC90C4F8E090E3
:1015B000C4F8149184F81A9184F81B91059203F0F1
:1015C00023FE059A397B52F80A004A460AF00AFBC4
:1015D00038464946424605F00FFD924B9249C4F801
:1015E0002C31924BC4F83491C4F8303138460A1D7E
:1015F00004F0A4FF9FE0B8F1020F4AD1DDF818E033
:101600001C215FFA8EF359438948002300EB01093E
:101610004FF0010C89F8023089F80A3089F801E0AE
:1016200000F801C0B96897F80FE07868C9F80C7045
:10163000ADF85C1029468DF85EE0CDF810C005923B
:1016400003938DF85F8003F0DFFD059A039B52F84A
:101650000A00397B1A460AF0C5FA039BDDF810C070
:1016600019466246384605F0C7FC724A039BC9F822
:101670001020714A09F11001C9F81420C9F8183076
:10168000384609F1140204F059FF06990131069118
:1016900051E0B8F1030F34D19DF84B20BDF856301E
:1016A00032B194F8CF80384608214FF6FF721AE025
:1016B000BDF8522094F8CF80B2F5FA7F0DD95F497A
:1016C0003846B1FBF2F292B2082107F0C7FC04EBF6
:1016D0008803C3F8FC015A4B0CE05A493846B1FB69
:1016E000F2F292B2012107F0B9FC04EB8803C3F8CF
:1016F000FC01554BC36094F8CF30013384F8CF30F0
:1017000019E0B8F1040F16D1BDF854304D4A3846EF
:1017100092FBF3F20121BDF8583092B294F8CE80DA
:1017200007F09CFC04EB8803C3F82C0294F8CE303D
:10173000013384F8CE300BF1020BBBF11C0F7FF4A8
:101740008AAE91E6414B07EB030E98E80F008EE856
:101750000F003F4B10371A78C02F02F101021A70A8
:1017600009D0D4F8C8300021D85903EB07080EF08F
:1017700049FE0028E6D0B368DB0420D419E0354BDD
:10178000334A03EBC90393F834C0D3F8388082F8A6
:1017900000C0B8F1000FEED000276745EBDA2B4A06
:1017A0003B0103EB020E43440FCB01378EE80F00E1
:1017B000F3E7B9F1080FDFF8A48028D12AE0244B21
:1017C00093F800A0BAF1010FF3D9234F4FF00008AE
:1017D000D04507F11007ECDA57F8100C4FF07C51A8
:1017E0000EF07CFC4FF07C5147F8100C57F8140CAD
:1017F0000EF074FC4FF07C5147F8140C57F80C0CA9
:101800000EF06CFC08F1010847F80C0CE0E7B9F1A8
:101810000E0F25D198F8003043F0100324E000BFEC
:10182000002C014071440008680700204D45000865
:101830005807002021BC00084544000800127A0027
:101840006D45000840420F005D45000888080020F3
:10185000402A0020C457010890080020A10200205F
:1018600098F8003023F0100388F800300BF0C6FF22
:101870008D4A8E488E498F4B02608F48C4F81033D2
:1018800001600023B6F81A01C4F80C13A4F816334B
:1018900084F81833C4F81C23884958520233242B87
:1018A000FAD1874B1A60B3681F0740F19780854BC8
:1018B000002293F81831052B00F28A80DFE803F04C
:1018C0000303284D5C6D012B4FF003017E4A08D1C4
:1018D00084F82013072184F8223384F821130C2381
:1018E00008E0022384F82033002384F8223384F8AC
:1018F0002113072313700023009310200123734941
:101900004FF4E13209F09CFB714BC4F8240359E019
:101910000123704A704900931020052309F090FBC1
:10192000C4F82C030746B6F81A010EF083FB6B4986
:101930000EF0D4FB6A490EF0C7FA0EF0BBFD00238F
:10194000684A98500433402BFAD1674B1022C4F8F0
:1019500028335D4B381C1A7037E0009201234FF496
:10196000E1321020614909F06BFB614BC4F8300390
:10197000C4F8283310220DE0009201234FF4E13225
:1019800010205C4909F05CFB5B4BC4F83403C4F8DD
:10199000283308224C4B1A7016E04B4B0C221A705D
:1019A000564A0023137084F8383384F839331020F2
:1019B0000093534901234FF4E13209F041FB514BAD
:1019C000C4F83C03C4F82833003018BF012028B9FC
:1019D000082003F074F90023C4F82833B3683A4AA6
:1019E00013F4804F04D0082111704749C4F828131C
:1019F00042F20101194051B144499804C4F8281336
:101A000044BF08211170D90744BF0C21117011780F
:101A10001B06A1F10401517040F196803C4BD6F8B1
:101A20003C11DFF80491C4F840330023394A02EB3B
:101A3000031040689346884204D00133DBB2042B84
:101A4000F4D90023002739461522334889F801309C
:101A5000DFF8D8A0C9F80470C9F8087011F081FA4D
:101A60002E4B3846CAF8003006F07AFA2C4B99F81B
:101A700001201B680BEB0212C9F80C30DAF80030B9
:101A800020201B783946BB420CBF0123032300975B
:101A9000526809F0D5FA234B1860002848D18020FD
:101AA00003F00DF947E000BF4C0900204C0E002068
:101AB00090230020C85801083C010020FE050020AA
:101AC00044020020802200208D170020D9590008F0
:101AD00055530008A0860100F95A0008CDCCCC3F30
:101AE0000000B0446001002015540008815A00082D
:101AF00005540008315A0008F15300084002002044
:101B00007D52000831530008415400084D5400082C
:101B1000B0230020E055010880090020A9230020FF
:101B20007C220020780200207C0200209C02002001
:101B3000012006F015FA8D4B18688D4B00F5DB720D
:101B400004301A6003F060FAB3689F050DD598045D
:101B50004CBF884888480AF00BFB884B1A6842F053
:101B600010021A60864B00221A60864B8649D4F810
:101B70001C230B608033C4F85C33844B844C1A60A4
:101B8000B3680027D903277040F1B28003F07EF9D3
:101B900003F0B6F903F092F97E4BDFF8289240F299
:101BA0002A3B4FF0010A184639465A4684F800A0ED
:101BB000039311F0D6F9D9F81820774842F00402BF
:101BC000C9F818204022ADF83C2018228DF83F209B
:101BD0000FA903228DF83E200AF0A0F8D9F81C20A6
:101BE0006E4C42F00202C9F81C206D4AA9F69479A5
:101BF00011686C4AB1FBF2F12288013922F45C725F
:101C00001204120C228089B21D22A2852185A4F81B
:101C100014A0228C22F001021204120C2284228CC5
:101C2000A088218B22F0020221F073010904120422
:101C3000090C120C41F0600180B242EA0A02A08055
:101C40002183A7862284228B22F008021204120C20
:101C500042F008022283B4F844206FEA42426FEA5D
:101C6000524292B2A4F84420D9F8A82F42EA0A02BC
:101C7000C9F8A82F484603F043FC4B4A039B179230
:101C800080221C924FF4807218931D9210234FF4FF
:101C90000052484629461993209203931B971E979A
:101CA0001F972197CDF868B003F00CFCA289039B25
:101CB00092B242F40072A281D9F8002010A842F03A
:101CC0000202C9F800208DF840308DF841A08DF84F
:101CD00042708DF843A004F075FD344B1A68344B04
:101CE000FA500437802FF8D104F095FC04F093FCEF
:101CF000B368304C13F4806F00F0968003F0ACF8BA
:101D000008B1082000E00420012107F07AF9B36847
:101D100084F88A0613F4806F274D01D100201DE05E
:101D20002B681B78032B05D12B681B78032B0BD05A
:101D3000012013E0042005F0BDFA0146042007F05D
:101D40000FF90028F0D1E9E7082005F0B3FA0146C1
:101D5000082007F005F9003018BF0120174B2D6847
:101D600018702B7883BB164B1D6051E0A802002031
:101D70006C040020F0580108FC58010850020020B3
:101D8000A4000020D8230020780500202806002089
:101D90006E0500209C09002000080140000400405E
:101DA000A000002000366E0134040040885701086E
:101DB0007C0500203C0600208C04002088040020C4
:101DC000BC04002000100240012B21D1454F00210E
:101DD00038462C22C4F88C5611F0C3F88E237B7041
:101DE0004FF07C0AE0234FF07D09FB7087F800A0DC
:101DF00087F82B903C4F002138462C2211F0B1F887
:101E00008A237B70A02387F800A0FB7087F82B90B3
:101E10002B78022B08BFC4F8905603F01DF808B1C8
:101E2000C4F8945606F0DEFAB36813F4002300D029
:101E3000012384F8983603F08DFD2C4B18607379DC
:101E4000052B03D12A4B4FF4C8721A80294B4FF44B
:101E50007A721A80284BC8221A8098F8003043F012
:101E6000080388F80030254B1A7822F002021A7015
:101E7000B3689A0723D5224B224A1D461A6003F005
:101E80006FFC282003F07DFE079901390791F6D1F8
:101E90002A681D4B50781F78014601238F4203D3D7
:101EA0000133082B0144F9D11849D07892780B708E
:101EB0009BB2584353431649164A08801380B368AF
:101EC0009B030CD594F84B3043F0010384F84B305E
:101ED000042384F84C3002E0032003F089FE23B091
:101EE000BDE8F08FD0040020FC040020D8030020BF
:101EF0002C0300202C2A00203C2A0020352A002018
:101F0000A804002084230020AC0400209C000020B2
:101F100026060020240600209F4A2DE9F04F136872
:101F20009E4903F59C439E4D20330B60AB6887B000
:101F300013F4807F174604D09A4B1B681B681B69FB
:101F40009847AB6842F201041C405CB9964E337866
:101F500073B1944B1B681B681B6898470BF05CFBC4
:101F6000347005E0914B1A7801321A700BF054FB73
:101F7000AB68DA0405D58E4B1B68DB0701D40DF086
:101F800083FA8C4B3C681868037C83B18A4A013B16
:101F900032F91300A0F57A70B0F57A7FA8BF4FF43C
:101FA0007A7020EAE0700EF045F884492FE0AA68C4
:101FB000160435D57D4A5168611A002930DB04F5D5
:101FC0009C41203151607E494E797E4931F816603E
:101FD000417CB6B296FBF1F0117A013101F00F01AC
:101FE00011720A4450721846774A9A5C01331044C1
:101FF000102B80B2F8D100B290FBF3F000B264284D
:10200000A8BF642020EAE0700EF014F86F490EF0CB
:1020100019F96F490EF062F80EF04CFA6D4B18800A
:10202000AB68D80510D56C4B9C426C4C08D9236822
:102030001B681B6A984718B923681B685B6A984736
:1020400023681B685B699847A968DFF86CB111F4D5
:10205000805F534BB5F8DC00BBF9062007D0B3F81E
:102060001A311C1AA24207DD1844824202E0B3F87A
:102070001C319A42C0F291840126594B1A78984635
:1020800012F0040F1CD0C9061AD5564B1B78DA067D
:1020900016D495F825219AB1534B1B7883B1434B45
:1020A00052493EB90A68DB699B1A002B08DA0DF029
:1020B000EBF905E009684FF47A7000FB0212DA616F
:1020C000002295F8239195F82411B5F81C41B5F834
:1020D0001E7113463BF902009B08A042C4BF63F087
:1020E0007F03DBB20232B842B8BF43F04003082A94
:1020F000F0D12E4C94F820209A4205D194F821205A
:10210000F92A04D8013200E0002284F8212084F862
:102110002030354B264F1A789A46A2B93B68DB0728
:1021200007D586B998F80030DE070CD506F0E8FA36
:1021300009E098F80030580705D511B10DF0A4F961
:1021400001E0002EFAD094F82130184A142B284EC2
:1021500040F09B8098F8003019F1000903F0040367
:1021600018BF4FF0010903F0FF00002B42D09AF88E
:102170000030002B00F0898092F820305F2B01D1D5
:102180000DF082F9B9F1000F7FD094F820307D2B4B
:102190007BD10DF079F978E0202A00204802002058
:1021A000802200204402002038010020EC0C002096
:1021B000540200203C010020FE05002000007A446B
:1021C000280E0020380E0020F50C00200000C84228
:1021D00000C07F4490170020404B4C00580900205D
:1021E000352A0020A10200203C0000207C22002093
:1021F000A802002092F82030572B0BD1AC4B4FF4A3
:102200007A721A80AB4B1B6813F008033DD1AA4ABF
:1022100013803AE0A968490714D55A2B12D1A74B6D
:10222000197819B118700122A54B1CE092F8221000
:10223000A44B81F0010182F8221009B1042212E0BE
:10224000062210E05D2B00F02D835B2B00F02C8329
:102250005E2B0AD1032228E3A72B40F071839A4B0F
:102260001A7842F004021A700FE0562B01D10AF0DE
:102270001FFC9AF80030002B00F0588394F82030AF
:102280006F2B40F04D8306F03BFAAB685B0733D50C
:1022900094F82230A3B198F80030580710D58B4B32
:1022A000BBF90620B3F81C319A4209DD3B6813F0F4
:1022B000010305D1864A32211180864A82F82230F4
:1022C0003B68D9030AD5844B1A782AB97B4A12781D
:1022D00012B97F4A3221118001220CE0774B1A7823
:1022E00052B198F8002002F0040202F0FF011AB97E
:1022F0001970734B01221A70D6F80090002309F16F
:10230000790A3B6009F17B0698460AF1020303EB68
:10231000080113F808204B7816F8010C9A420AD2EB
:1023200031460BF087FC30B116F8023C01229A408E
:102330003B6813433B6008F10408B8F1A00F06F1B5
:102340000406E2D1654B1B7843B13B68DFF864813A
:1023500013F0020F624E40F0A28197E109F21912C8
:10236000039209F58D769846039A16F8010C531CD2
:1023700003EB080113F808204B789A422DD231461E
:102380000BF058FC48B396F802C0564B0CF1FF3CDA
:102390000CEB4C0C6344019333794FF00C09009320
:1023A00000984C4B09FB00F903F1240A0AEB0901E0
:1023B0004A68019896F803C082420ED000220AF8BB
:1023C00009C048608A600099012202FA01F093F87E
:1023D000542022EA000083F8540008F10608B8F1FE
:1023E000480F06F10606BFD13F4B404A1E68D2F89F
:1023F00000A0DFF8FC804FF00009D8F80030002B77
:1024000000F03B811978002900F03781D8F80420CA
:10241000C2EB0A02002A0CDB0AF5FA72C8F80420A3
:10242000012202FA09F294F8540020EA020284F828
:10243000542018F8042C58780432D2B2002840F006
:10244000E180B5F81A013BF9122000F1C80C624591
:1024500001DD9B7813E0C838824202DA9B785B4248
:102460000DE0012303FA09F394F8542022EA030350
:1024700084F854300AF5FA73C8F80430FDE094F893
:10248000542042FA09F2D20700F1F780002B0D4ADE
:10249000CCBF02200120013910700A2900F2E5802A
:1024A000DFE801F028313D4A535C6E80929CA60023
:1024B0002C2A002050020020AA03002059030020EB
:1024C0005B0300205A030020A1020020802200208C
:1024D00040030020EC0C002058030020342A002088
:1024E000580200203C5E0108780400207C22002075
:1024F000140D002032781344FA2BA8BFFA2323EAE4
:10250000E373337007E072781344642BA8BF64232D
:1025100023EAE3737370304603F0F4F9A5E0F27830
:1025200030461344642BA8BF642323EAE373F3709B
:10253000A16D03F0A3F998E032791344642BA8BF8E
:10254000642323EAE37333718FE072791344642BBD
:10255000A8BF642323EAE373737186E0E16D4A78D0
:102560001A44C82AA8BFC82222EAE2724A700A782E
:102570001344C82BA8BFC82323EAE3730B7074E08D
:10258000E16DCA7A1A44C82AA8BFC82222EAE272B8
:10259000CA728A7A1344C82BA8BFC82323EAE373FC
:1025A0008B7262E0E16D4A7D1A44C82AA8BFC82236
:1025B00022EAE2724A750A7D1344C82BA8BFC823D9
:1025C00023EAE3730B7550E0E26D91780B44C82B5E
:1025D000A8BFC82323EAE373937046E0E26D117B42
:1025E0000B44C82BA8BFC82323EAE37313733CE052
:1025F000E26D917D0B44C82BA8BFC82323EAE37387
:10260000937532E0012830D13BF912209878B2F569
:10261000617F05DB40F633039A42B8BF134601E001
:102620004FF461730C2920D14FF4966292FBF0F0C5
:10263000A3F5617393FBF0F394F86020DBB29A4248
:1026400013D0032BA14994BF1A4602220A2084F812
:10265000602000FB02129E4806320260029303F0E3
:102660006BF9029B9B4A01331370012303FA09F3B0
:1026700094F85420134384F8543009F10109B9F156
:10268000040F08F10C087FF4B8AE5EE6AB68D8051D
:1026900014D5914B1B681B689B68984770B1D8F89C
:1026A00000309B070AD5338813F001020CD18B4907
:1026B00043F001036266A2660B8006E033880122C4
:1026C00023F00103338000E000223B68590710D556
:1026D0007AB1328822F0010102F0020289B292B28C
:1026E000318052B96266A2667C4A41F002011180D3
:1026F00003E0328822F0020232803288784912F0F8
:10270000030F4FF0100014BF48610861D8F80010A3
:1027100011F00A0F21D0DC0609D550070AD442F087
:10272000040232806F4A10886F4A108002E022F063
:10273000040232809C06328806D5500607D46748CA
:1027400042F04002028002E022F0400232805A064B
:1027500003D5644A1088654A10808C0607D43B680C
:10276000180540F19080338843F480738EE0604A0E
:102770001278910752D55F4A1278042A4ED913F481
:1027800000700ED03388DA06E9D45B48534A23F050
:10279000200343F01003011D138006F09BFB02226F
:1027A00045E0318801F0100292B232B14B4A21F07B
:1027B00010011180514A107001225C0528D5504B40
:1027C0001B6859894F4BB3F900000028B8BF40423D
:1027D000884209DAB3F90230002BB8BF5B428B4262
:1027E000ACBF0023012300E000238BB1338898069F
:1027F00020D43A4A43F020031380434B43481A68DD
:102800005B68011D0260436006F064FB01220EE07C
:10281000338899060ED523F0200305E0338813F0A2
:10282000300F9CD023F030032C4A13800022334B0E
:102830001A7001E0002A92D000231A463449002081
:1028400050523449344C5052344904EB030C50522A
:10285000002119510232CCF80400CCF8081004F120
:10286000280C503443F80C1019519C441C44042A81
:10287000CCF80400CCF808106060A16003F11403E8
:102880003FF46DAFDAE7338823F4807333806B79DC
:10289000082B02D00E2B40F09380338823F04003A6
:1028A00033808DE0012200E002225FFA82F909F113
:1028B000FF3385F8643704F09DFD0CF055FB0220D2
:1028C00028214A4603F06EF9DFE400BFE02900202A
:1028D000780400205A0300205809002058020020E4
:1028E000000C0140AA03002056040020180E00200E
:1028F000A1020020A0020020100F0020200F0020C5
:102900006C04002066020020C4040020180F002080
:10291000242A002070040020580D00207404002098
:10292000B9F1000F02D07E2B3FF4ADAC94F820300B
:10293000972B7FF491AC244B4FF4C8721A80A4E417
:102940000022BB2B059201D1022303E0B72B04D157
:102950004FF6FE73ADF816300AE0BE2B01D102230C
:1029600004E0BD2B7FF491AC4FF6FE73ADF814304C
:102970003368BDF81410B3F858200A44A3F858205F
:10298000BDF81610B3F85A200A44A3F85A200AF0EA
:102990008FF8002384F8213077E40C4B00260022C6
:1029A0005E669E66C3F8E460C3F8E860C3F8EC6056
:1029B000C3F8F020C3F8F420C3F8F820FFF75DBB9C
:1029C00007B0BDE8F08F00BF2C030020EC0C002006
:1029D000AC4B2DE9F04FB3F90600AB4B87B01D6847
:1029E0002B8998420EDBB0F5FA6FAF7907DAC21A7D
:1029F0005743A3F5FA6397FBF3F7643703E0C7F196
:102A0000640700E06427A14BA14AB3F81A1193F9B7
:102A1000EC3016685B4204919BB20021059334466A
:102A20000A46984BDDF810C0CB5E40F2E63E0393B9
:102A3000CCEB030303F2F31CF44503D8002BB8BF1F
:102A40005B4201E04FF4FA73022ADFF8548231D07E
:102A500096F861E1BEF1000F04D07345CCBFCEEB18
:102A6000030300234FF0640EDFF82CA293FBFEFC5F
:102A70006FF0630B3AF81C900BFB0C3B0CF1010C54
:102A80003AF91CA00FFA89FCCCEB0A0C0CFB0BFCEE
:102A90009CFBFEFCCC4428F801C095F804C003FB65
:102AA0000CFC7C4B9CFBF3F373449BB27B4393FB8A
:102AB000FEFE1BE096F862E1BEF1000F04D0734504
:102AC000CCBFCEEB03030023DDF814C003FB0CFEE8
:102AD000A8F804E095F805E0002BB8BF5B4203FBC3
:102AE0000EFE6C4B9EFBF3FE0EF1640EB31893F8D2
:102AF0000480DFF8C8C10EFB08F8642398FBF3F8E4
:102B000002F80C8094F80E900CF103080EFB09F902
:102B100099FBF3F902F8089094F818800CF1060C70
:102B20000EFB08FE9EFBF3F302F80C30DDF80CE020
:102B3000049B9E45DFF868E104DA3EF801305B4211
:102B40002EF801300132032A01F1020104F10104DF
:102B50007FF467AF4D4EB6F81C31984205DBB0F5F7
:102B6000FA6FA8BF4FF4FA6000E01846C01A4FF49D
:102B70007A725043C3F5FA63B0FBF3F36427464C13
:102B800093FBF7F204EB42016FF0630000FB0233AA
:102B9000098B04EB4202B2F91A000AB2821A5343BB
:102BA00093FBF7F739443D4F3D4D3B88AEF8061097
:102BB0005A063CD53B4B1888238EC01A00B20DF044
:102BC00039FA39490DF08AFA804610F0F9FB81464E
:102BD000404610F069FC8046B5F902000DF02AFA73
:102BE0008246B5F900000DF025FA494683460DF0FE
:102BF00075FA41460346504602930DF06FFA029B68
:102C0000014618460DF060F90DF02EFC494628806B
:102C100050460DF063FA4146814658460DF05EFA83
:102C2000014648460DF052F90DF01EFC6880B2686E
:102C300040F602031340002B7ED01C4B06211D885A
:102C4000636B1D4494F8383065630133DBB2B3FB2A
:102C5000F1F084F8383001FB103313F0FF0F6BD123
:102C6000930730D502F07CFD114B124A1B78128875
:102C70009A4225D2104A12889A4234BF0023012377
:102C80001FE000BFFE050020780400208022002005
:102C9000A80200200CFEFFFFE80D002058020020D3
:102CA00066020020AA03002035FA8E3CD4030020DF
:102CB000AC0400202406002026060020F60D00208B
:102CC000022384F83930B368180533D594F84D30B1
:102CD000E16B04EB4303B3F85000082391FBF3F2DC
:102CE00080B28A1A0244E26392FBF3F292B240F697
:102CF000E4435A438E4B40F6FF71B2FBF1F2196880
:102D00004FF47A73C8888988121A5A4392FBF1F2F9
:102D10005543884995FBF3F30A60D4E91601C018BE
:102D200041EBE371C4E916010023834A0DF0E2FB95
:102D3000824B1860002363638149824A0B6894F8D0
:102D400039A013F4805318BF012382F86030B368B0
:102D5000894613F4807F7C4D2AD0636E28781B68E7
:102D6000C0F380005B68DFF8DC81984758B101232D
:102D700088F86830D8F864301B68DB68984710B171
:102D8000022388F86830636E1B689B68984730B1EF
:102D90002B78590703D46B4B022283F86820636EAB
:102DA0001B689B69984718B1664B002283F868201E
:102DB000664B1A6892060DD5D9F8003013F4C06F2F
:102DC00005D0634B1B789B0701D4012300E000234F
:102DD00084F8693094F868205A4B022A02D14C20BA
:102DE0004E2126E0012A06D153204D214C220B46CC
:102DF00005F0F0F831E093F86920012A03D153205F
:102E000001464E2206E093F86020012A04D15320A7
:102E1000014602464D23EBE7BAF1020F04D15320DD
:102E200001464D224423E3E7BAF1010F03D15320B9
:102E30004D210A46F6E73A88170603D553204D215F
:102E40000246D4E7434A107818B1192005F096F8E5
:102E500003E083F86A0002F09EFE2B78580703D542
:102E60003D4B08225A615AE0D9F80020D10703D41B
:102E7000354943F001030B7034490B6813F002032A
:102E800002D036490988A1B93549098801B12BB961
:102E9000344B1B88003318BF012300E0012343B1EA
:102EA0002D4BD96881F00801D9602B7823F00103FC
:102EB0002B70274B1B781F0703D42B7823F00103BB
:102EC0002B70D00203D52B7823F001032B702B78C5
:102ED000254A13F0010F05D00023E3661E4B08219D
:102EE00019610BE0E16E136841B9164903F5F4234B
:102EF00003F59073CB66184B08215961E36E126895
:102F00006BB1D21A002A0ADB134A03F5F423D16805
:102F100003F5907381F00801D1600A4AD36605F089
:102F200061FA124B1B781BB308F046F900F089BC1C
:102F3000A8040020B0040020407E0500B404002056
:102F400054020020E80D0020352A00205002002005
:102F5000A10200205A030020000C01403C2A00205E
:102F60002C0300202C2A0020202A0020342A0020B4
:102F7000012006F057F8002800F06384DFF8409342
:102F800099F84A30012B40F05684DFF838A3C34F3C
:102F9000D9F80030CAF800903B60D046386802F09B
:102FA0005DFE002800F03984BC4B186802F051FE29
:102FB000D8F8003093F84820D2B9B0F124014A4241
:102FC0004A4183F84820002AE8D12B785B07E5D4F2
:102FD000232802D108F0F0F8E0E7D4F808311B7D8F
:102FE0008342DBD1AE4AAF4B1A6009F043FDD5E70F
:102FF000012A04D14D2814BF002202221AE0022A1D
:1030000004D13C2814BF0022032213E0032A09D173
:1030100040284FF000020DD81A71DA71587198717A
:10302000042207E0042A08D19A7983F84900504025
:103030009871052283F84820B0E7052AAED11A79A5
:103040005979914207D9997941409971511C197167
:1030500013441872A2E79A79824240F0D98393F818
:10306000490006F08BF9002840F0CD83DAF8002003
:1030700092F84930442B00F0C08340D82D2B00F04B
:103080000F8321D8252B00F0F58206D8212B00F0E4
:103090004882232B00F0CB80F4E3292B00F0F2824E
:1030A0002B2B00F0F882272B40F0EC8302F0AAFBD8
:1030B0007D4FA7F8E60002F0A5FBA7F8E80002F0B4
:1030C000A1FBA7F8EA009BE3352B00F097810CD811
:1030D000312B00F06283332B00F0F7822F2B40F06E
:1030E000D183714F07F1400847E3412B00F0F38291
:1030F000432B00F0FB82372B40F0C4831AE3D02B24
:1031000000F01D8260D8CC2B00F0A38109D8C92B18
:1031100000F03782CA2B00F0D780C82B40F0B28372
:103120007CE0CE2B00F01F8240F2148202F06AFB9A
:103130006FF4AF6E00EB0E039BB25B4FC62B98BFD4
:10314000A7F81A0102F05EFBA7F8D00002F05AFBC4
:10315000A7F8D20002F056FBDFF86081A7F8D40090
:10316000D8F800B002F04EFBABF8AC0102F040FB27
:1031700087F8290102F03CFB02F03AFB87F82A01AC
:1031800002F036FB87F80C0102F032FB87F82001D1
:1031900002F02EFBD8F8008002F034FB00EB800038
:1031A0004000A8F8560002F023FB87F8040102F063
:1031B0001FFB87F8060102F01BFB87F8050102F0F0
:1031C00017FB87F807011BE3D42B00F0748108D8A4
:1031D000D22B10D040F2128202F014FB334B188035
:1031E0000EE3EF2B4DD0FA2B00F0C781D62B40F029
:1031F0004983002757E12B7803F0040303F0FF070E
:10320000002B40F0FD8202F0F3FA274B022883F8EE
:10321000640740F29A8183F8647796E192F805801A
:103220004FEA5808B8F1120F1CD800271DE002F031
:10323000DFFA272816D8DFF8848000F11E02D8F8BC
:10324000003003EB820B02F0D3FA194B0BF10107AC
:1032500003F58A7193F808E0864500F0BB800C33D3
:103260008B42F7D108F0A8FBCAE2474506D202F02C
:10327000C9FA104B23F817000137F6E701220E4B6D
:1032800079E10E4FD7F8008002F0BCFAA8F85A0096
:103290003F6802F0B7FAA7F85800B1E24C050020E9
:1032A000EFBEADDEF04F002080220020560400204B
:1032B000605E0108FE05002041020020A8020020F7
:1032C000580E002048050020C04B00271A68984679
:1032D0001278022A65D1D8F800B002F089FA07F115
:1032E00008020BEB820B0CF0A1FEB9490CF0AAFF0F
:1032F000CBF80400D8F800B002F07AFA07F10A021D
:103300000BEB820B0CF092FEB2490CF09BFFCBF85A
:103310000800D8F800B002F06BFA07F10E020BEBD0
:10332000820B0CF083FEAC490CF08CFF0137032FAD
:10333000CBF80400CFD1072FD8F800B01AD102F093
:1033400057FA0CF073FEA2490CF07CFFCBF8480052
:10335000D8F800B002F04CFA0CF068FE9C490CF072
:1033600071FFCBF84C00D8F800B002F041FA8BF8AE
:10337000500012E002F03CFA0BEB07031871D8F88A
:1033800000B002F035FA0BEB07039873D8F800B0E1
:1033900002F02EFA0BEB0703187601370A2FCAD179
:1033A0002EE2D8F800B002F023FA0BEB07031871F5
:1033B000D8F800B002F01CFA0BEB07039873D8F8AA
:1033C00000B002F015FA0BEB070301370A2F18764D
:1033D000E7D115E21B788BF8013002F009FA78701A
:1033E00002F006FAB87002F003FAF870D8F800108C
:1033F00001F17900043108F039FA01E202F0F8F93C
:103400000B283FF62FAF4FF0060808FB00F06F4B7C
:1034100000F58C701B6803EB000802F0E9F9032843
:103420003FF620AF88F8060002F0E2F988F80100C4
:1034300002F0DEF988F8020002F0DAF988F80300F9
:1034400002F0D6F988F8040002F0D2F988F80500F5
:10345000D6E1624FD7F8008002F0CAF988F8000080
:10346000D7F8008002F0C4F988F80100D7F800808E
:1034700002F0BEF988F80400D7F8008002F0B8F92D
:1034800088F80500D7F8008002F0B2F988F8060045
:10349000D7F8008002F0ACF988F802003F6802F02B
:1034A000A7F9F870ACE102F0ADF94D4BD8530237F3
:1034B000102FF8D1A4E14FF00008444F08F12D0B74
:1034C0003968019102F09EF901994FEACB0211444B
:1034D000488039680292019102F094F9029A0199A8
:1034E00011448880029202F08DF90728029A02D8CE
:1034F00039680A445072A0F57A7292B2B2F57A7FB6
:1035000003D83A6802EBCB02D0803F6802F070F932
:1035100008F1010807EBCB03B8F1080F1872CCD102
:103520006EE10027294BD3F8008002F061F908EB27
:10353000C7030137082F83F87101F3D160E12B78BD
:103540005F0700F15D810AF03BFD03F053FF0BF0D4
:103550000BFD55E12B78580700F15281214B4FF4B8
:10356000C8721A804CE12B78590700F149811E4B33
:103570001A7842F004021A7042E12B785A07E4D517
:1035800080E102F035F9184B1A7810B142F00202CE
:1035900001E022F002021A7002F02AF9134B144FD4
:1035A000187002F039F9386002F036F9786002F0EC
:1035B00029F9104B188002F025F90F4B188094F868
:1035C000243143F0020384F8243119E1A8020020D9
:1035D000000020410000C84200007A447804002026
:1035E000F40E00202C030020A1020020A0020020E5
:1035F000C4040020BA040020B804002002F0F8F847
:10360000019002F009F9029002F006F9804602F0FA
:1036100003F9074602F0F6F802F0F4F802F0E8F8D1
:1036200001999B4B029A99B9C3F82821C3F82C81C0
:10363000984B1A8822F010021A80974B1A7842F0A1
:1036400001021A70002F00F0DB80944B1F60D7E05E
:10365000102940F0D580C3F83021C3F834810FB170
:103660008E4A17608E480222011D83F8382105F02A
:1036700031FCC5E00023B36002F0CEF8B368184314
:10368000B060BDE002F0BEF8A6F8080102F0BAF89A
:10369000A6F80A01B4E002F0ABF8824B5871AFE033
:1036A00002F0A6F886F8180102F0ACF8A6F81E01A0
:1036B00002F0A8F8A6F81A0102F0A4F8A6F81C0176
:1036C00002F096F886F819019AE002F091F8754B2D
:1036D00083F8200194E0002702F08AF8714B3B4404
:1036E0000137082F83F81001F6D189E002F080F845
:1036F0006C4F0023BB60787102F08EF8BB681843F2
:10370000B86002F075F887F8180102F07BF8A7F8A6
:10371000E60002F077F8A7F8E80002F073F8A7F8DF
:10372000EA0002F06FF8A7F8080102F06BF8A7F8BA
:103730000A0165E05379142B7FF494AD4FF0000833
:1037400002F056F8574F08EB070308F10108B8F1EB
:10375000040F83F83001F3D102F05EF8C7F83401AA
:1037600002F05AF8C7F8380102F056F8C7F83C01E1
:1037700002F052F8C7F8400142E002F043F8A7F81F
:10378000D80102F035F887F8DA0102F031F8043791
:1037900087F8D7014745F0D132E002F029F81F2819
:1037A0003FF660AD404B1B685B79072B7FF45AAD49
:1037B0003C4F00F1560807EB8803029302F022F811
:1037C000029B00F03F005880029302F01BF8029B1E
:1037D0008001598800F4F8620A435A8002F008F820
:1037E000000107F8280002F003F817F8283000F06D
:1037F0000F00184307F8280002E0012384F839314C
:10380000002002F071FADAF80030987902F03DFAFF
:10381000DAF80030002283F8482094F8393153B1A7
:10382000D9F8000002F00BFA18B9322002F0A9F919
:10383000F6E709F01FF91D4A09F14C0991457FF49B
:103840009FAB1B490B689B0616D51A4BD4F83C213D
:103850001B689A1A002A0FDB174A1278042A0BD920
:103860000B4A03F5123303F5F873C2F83C31134BDE
:10387000DA6882F01002DA60114B9B682BB11148B4
:10388000984702E008F098F8BDE707B0BDE8F08F70
:10389000E80D002058020020A10200205C02002058
:1038A000180F00208022002048050020F00E002084
:1038B00050020020202A0020A0020020000C01401D
:1038C000AC020020280F00202DE9F04F944D8BB062
:1038D0002B78023B072B00F2A584DFE813F00800E9
:1038E0002E00510069007E0007015F018E048D4BA0
:1038F0008D4E1A68736864339A4240F293840024B0
:103900008A4B8B4A1B789C420ADA3368864FD05C1C
:1039100030B102F073FA3B68013401333B60EFE7EA
:103920003168814B525C002A40F07C841A604FF071
:10393000FF325A60032300F074BC232300937D4BB5
:10394000062103F10C0201930292A3F12100A3F1DD
:103950000902033303F012FC002840F06384764B25
:103960009B6813F08002704B06D04FF0FF32186056
:103970005A60042300F055BC1A60062300F051BCC5
:1039800002236E480093002301930293042100F167
:10399000100200F1180303F0F1FB002840F042840C
:1039A000614B4FF0FF3218605A60052300F039BCBC
:1039B000634800230624019302930094042100F13C
:1039C000100200F1180303F0D9FB002840F02A840C
:1039D000554B2C70186000F025BC534C236813B96C
:1039E000636001232360514B1A7863681344402BB2
:1039F000A8BF4023132B636040F314844A4B1B6819
:103A00000C2B00F20D84DFE803F06D070D141C276A
:103A100031363F474F5865004A4802F097FF6368C8
:103A20001C3B5EE04848494902F090FF63681E3B3A
:103A300057E047484749484A02F088FF6368293BF6
:103A40004FE03D4B454893F8841793F8852702F0E3
:103A50007DFF6368133B44E0374B0A2193F86427EA
:103A60003F4801FB023393F8661718E0324B3D489C
:103A7000B3F8D01003E0304B3B48B3F8D21002F05B
:103A800065FF6368113B2CE0384B3948D96802F078
:103A90005DFF6368183B24E0364B3748198802F015
:103AA00055FF63680C3B1CE0234B344893F804112A
:103AB00002F04CFF63680F3B13E01F4B304893F854
:103AC000061193F8072193F8053102F03FFF636870
:103AD0001B3B06E02B4B2C48198802F037FF63682C
:103AE0000D3B63602368013323609BE3274B002475
:103AF0001C60274B1C60274B1C6008232B7001F0B7
:103B000029FF0AAD45F8140D012002F044F8224BBC
:103B10000122204629461A7002F085F982E300BF8F
:103B2000D40C00207C220020E40C00203D0000206A
:103B3000745F01080960010880220020A461010867
:103B4000C4610108D9760108F67601080E770108EC
:103B5000167701082D7701083977010842770108A7
:103B6000567701086377010875770108AC020020D9
:103B700087770108000000209A770108A7770108DD
:103B8000B7770108300F0020D3770108E00C002040
:103B9000DC0C0020D80C00205A030020C74B18680A
:103BA000002840F0B480C64D01F092F849206C68BE
:103BB00002F024F9C34B0D26186802F025F920689D
:103BC00002F022F9606802F065F9A06802F062F97B
:103BD000E06802F05FF9206902F05CF9606902F0C8
:103BE00059F9A06902F056F90122B2402B691A4234
:103BF00005D004EB860353F8180C02F04BF901369C
:103C0000102EF1D1B4F9280002F044F9AE4EB4F907
:103C10002A0002F03FF9B4F92C0002F03BF9B6F8A3
:103C2000D030B4F92E00C01A02F0EEF82B69DF0490
:103C300008D5A34B1888B4F86430C01AC0F30D003F
:103C400002F0E2F82B69580506D42B69190510D546
:103C5000A06E02F01FF90CE0B4F96C0002F01AF942
:103C6000B4F96E0002F016F9B4F9700002F012F91E
:103C7000EBE7B4F9300002F00DF9B4F9320002F0CC
:103C800009F9B4F9340002F005F9B4F9360002F08C
:103C900001F9B4F9380002F0FDF8B4F93A0002F085
:103CA000F9F8B6F8D030B4F93C000126C01A02F099
:103CB000ABF8864B1B789E420ADA04EB4603B3F955
:103CC0003C00B4F93C300136C01A02F0E3F8F0E7EA
:103CD0002B699A0507D57A4B5B68B3F95E00A0F2B1
:103CE000DC5002F0D7F86B68794A7A49AB60EB6038
:103CF0009B1A9B104B430321013393FBF1F101EB22
:103D000041015B1A742101FB03226A6065E26E4B7C
:103D1000013893F8842793F885171044B0FBF1F429
:103D200001FB1401914280F01C82654D00F0D0FF30
:103D30005020D5F80480AF6802F060F8EA686B683C
:103D400010681B6800241844AB681B68A0EB430094
:103D500002F0A0F808EB04023B1950685B680434D9
:103D6000C01A02F097F80C2CF4D1002308EB0301E1
:103D7000FA180969126905AC8A1A1A5104330C2B16
:103D8000F4D100221346A15801F120003F2820D889
:103D900001F108000F2806D80231032904D9002BAD
:103DA00008BF012300E0022304320C2AEBD1012BCF
:103DB000059813D0022B1FD0069B00F0030003F0E0
:103DC00003039B0043EA0010079B03F0030318431F
:103DD0001EE007AB04A94FF0000B1DE000F00F0040
:103DE00040F0400002F00AF8079B03F00F02069B28
:103DF00042EA0310C0B20BE000F03F0040F0800048
:103E000001F0FCFF9DF8180001F0F8FF9DF81C0080
:103E100001F0F4FF0D265FE053F804294FEA8B0B05
:103E200002F18000FF2810D902F50040B0F5803F74
:103E300002D24BF0010B08E002F50002B2F1807FE4
:103E400034BF4BF0020B4BF0030B8B42E4D16BF011
:103E50003F00C0B201F0D2FF00260BF00303022B9B
:103E6000A05D09D0032B12D0012B1ED101F0C6FF9B
:103E7000A059C0F3072018E001F0C0FFA059C0F31B
:103E8000072001F0BBFFA059C0F307400DE001F08F
:103E9000B5FFA059C0F3072001F0B0FFA059C0F34F
:103EA000074001F0ABFFA059000E043601F0A6FF59
:103EB0000C2E4FEAAB0BD0D1ACE700BFDC0C0020DE
:103EC000300F0020E00C002080220020402A00203B
:103ED000440F002035C2724F0122B2402B691A42B2
:103EE0000AD0B30008EB03023B4452F8180C53F815
:103EF000183CC01A01F0CEFF0136102EECD1002381
:103F000008EB0302B2F92810FA18B2F928208A1A2D
:103F100044F813200233082BF2D108AA04A84FF06A
:103F2000000952F804194FEA89035FFA83F969B16D
:103F300001F108060F2E02D849F0010906E0803190
:103F4000FF2994BF49F0020949F003098242E8D1F0
:103F5000484601F053FF0026B246B34609F003017C
:103F6000022916D003291DD0012936D1BBF1000F3B
:103F700005D1A2598B4612015FFA82FA2DE0A059B1
:103F80004FF0000B00F00F0040EA0A0001F036FF8E
:103F900023E0BBF1000F0DD0A059C0F3031040EA9D
:103FA0000A0014E0A059BBF1000F07D1C0F30720AD
:103FB00001F024FFA05D01F021FF0EE0C0F303300B
:103FC00040EA0A0001F01AFFA059C0F3071001F0FF
:103FD00015FFA25912015FFA82FA0436102E4FEA39
:103FE0009909BBD1BBF1010F02D1504601F006FF88
:103FF0002A6912F4805606D0B8F86410B7F8643015
:104000000126CB1A0593530511D504EB8601002335
:1040100008EB0300B0F96CE0F818B0F96C00C0EBE5
:104020000E0041F813000233062BF1D103361005C0
:104030000AD50AAB03EB8601D8F86820BB6E0136BF
:10404000D31A41F8143C00E026B1012E04D10598A2
:1040500001F020FF00241AE0731E04EB860200200A
:1040600052F8041D4000C0B209B140F00100013B0C
:10407000F6D501F0C3FE4FF0000B54F82B0008B149
:1040800001F008FF0BF1010BB345F6DBE2E76A68CC
:1040900004F1180332F91300AA68013432F913103D
:1040A000EA6832F9133002220B4493FBF2F3C01A90
:1040B00001F0F0FE032CEAD100246A6804F1180331
:1040C0005B001A44B2F90600AA6801341A44B2F936
:1040D0000610EA681344B3F9063002220B4493FB3E
:1040E000F2F3C01A01F0D6FE032CE6D100244F4BA8
:1040F0001B789C4217DA6A6804F11C035B001A44BF
:10410000B2F90400AA6801341A44B2F90410EA684A
:104110001344B3F9043002220B4493FBF2F3C01AA8
:1041200001F0B8FEE3E72B69990506D5B8F95E0002
:10413000B7F95E30C01A01F0ADFEAB686A68EB609B
:104140003B4B3C49AA60D21A92104A4303210132E8
:1041500092FBF1F101EB4101521A742101FB023390
:104160006B6035498B681A0637D5344C344D22685C
:10417000D5F870319A420CD16268D5F874319A4200
:1041800007D1304A1368102B13D12F4B1B685B06E5
:104190000FD1482001F032FE206801F07BFE6068FC
:1041A00001F078FE2368C5F870316368C5F8743192
:1041B00011E0264A224B117895F8802191420AD1CC
:1041C000234AD3F878111068884204D15268D3F892
:1041D0007C319A4201D001F061FE1E4B1A68013217
:1041E0001A60184B1A680132202A04D100221A6082
:1041F000154B1A6801321A6014E0174B1A68174BF6
:104200005B68C8339A4203D904F00EF8012308E032
:104210000B4BD3F8840101F012FD0028F4D101E02A
:1042200007232B700BB0BDE8F08F00BF402A0020A1
:10423000440F002035C2724F80220020100F002052
:10424000300F0020DC0C0020D80C0020A002002041
:10425000C4040020E00C00207C220020E40C00209C
:10426000032810B50F4B0DD80F4A126894888C4262
:1042700008D2D2888A4205D9012202FA00F01A78BF
:10428000104318701B780F2B0BD1064B00221A70AD
:10429000064B998808B2142802DD1439998010BDA4
:1042A0009A8010BDB8100020782200204C09002010
:1042B000024B9A8801329A80704700BF4C09002057
:1042C000074B1A68074B1178B3F9040053780B4475
:1042D00003EB83039842D4BF00200120704700BF46
:1042E000782200204C090020064BB3F90400064B4D
:1042F0001B681B7803EB83039842D4BF0020012086
:10430000704700BF4C0900207822002010B50446F9
:10431000FFF7EAFF002814BF2046002000F001004C
:1043200010BD024B01221A72704700BF4C090020D9
:10433000014B187A704700BF4C090020034BB3F9BA
:104340000400D0F1010038BF002070474C09002064
:10435000014B00229A8070474C09002003685A1CC8
:10436000026019707047016B0346C26810B540695E
:1043700041B1196C541A005D013918BF0A46C0B228
:104380001A6410BD196A405C0131914228BF0021B6
:10439000C0B2196210BD036B13B15A68036C01E01F
:1043A000C269036A9A4237BFC068C3EB0200801833
:1043B000C3EB0000C0B27047436B13B190F84400E8
:1043C0007047826A436AD31A58425841704743790A
:1043D0009B070AD5436A8269D154426A0369013254
:1043E000B2FBF3F103FB112343627047437913F0EF
:1043F000010307D0C368C169026A013B881A1840EB
:10440000C0B2704718467047437910B513F00103E6
:1044100004460DD0FFF7EAFF58B1226A6369985C41
:10442000E3680132B2FBF3F103FB1123236210BDF9
:10443000184610BD426A806A131A584258417047A4
:104440004171704710F80A3C0133DBB20A2B00F8C7
:104450000A3C0AD910F8123C23B910F8131C034A7D
:1044600022F81130002300F80A3C7047841E002017
:10447000334A10B5136C90681944081A40F68C231F
:1044800098429160D060516013463CD9127893F9FC
:1044900045108A420BD1111F082908D893F84610FD
:1044A000182901D8013103E083F8442002E00021FB
:1044B00083F8461093F944108A421CD1204991F8A0
:1044C0004710C1B1002191421E4806DA03EB810476
:1044D000246920F811400131F5E7511E00EB41013C
:1044E0001630814203D0002421F8024FF9E7164923
:1044F00008780130087083F84520002201211A70E5
:1045000083F8471010BD92F84710B9B1A0F2EF241C
:1045100040F2DA518C4208D811780B2905D80B1DCE
:104520000131117042F8230010BD002283F84720AA
:10453000991804320020302A0861F9D110BD00BF5B
:1045400010070020841E0020E51F0020024B1A6C7B
:10455000013211441964704710070020024B53F8D0
:1045600020301B681980704738080020074BA1F5E0
:104570007A7153F820304FF47A701A681B894B43D4
:1045800093FBF0F39BB21380704700BF3808002004
:104590002DE9F04F504A514E17687389844630898F
:1045A000A7EB032785B0039187FB0001B288CB11ED
:1045B0001404C209F08842EA416287FB000114EB4F
:1045C000020872884FF000054FEAC2344FEA102209
:1045D000B08945EB030942EA01620B1287FB000137
:1045E00014EB020A4FEAD05242EA41224FF0000592
:1045F00045EB030B12F5FA604FEAE15343F100017A
:10460000CDE90001B0F5FA6F71F1000147DAA2FBC4
:10461000024502FB03F1052605EB4105A4FB06015B
:1046200006FB05114D104FEA3004B8EB040869EBA6
:10463000050984082A4844EA81748D104FF0FF313F
:10464000BAEB040A6BEB050BDDE9004584428D41B2
:1046500025DA40F6AC5012184FF0000143EB01038D
:1046600002FB03F1A2FB02236FF0060003EB410300
:10467000544200FB0344A2FB000118EB0008214454
:104680004FF00B0449EB0109A2FB040104FB0311E9
:1046900049104FEA3000BAEB000A6BEB010B114BEB
:1046A0001A68A2FB0A0102FB0B11420D42EAC12269
:1046B0004B15B2EB080263EB0903D00B40EA434011
:1046C000BCF1000F01D0CCF80000039808B10099AC
:1046D000016005B0BDE8F08F9C1E00209806002008
:1046E00024FAFFFFA01E0020324B2DE9F0411C8868
:1046F000314B0A265A89B3F91250A41A1A89ED02CD
:104700005443B3F91420E413224495FBF2F22244FB
:10471000DA615643A2F57A6202FB02F4B3F904802F
:10472000B3F902C0B3F90E7002FB0CFC02FB08F2F5
:10473000B3F90C802413674304FB08F4241404EB3E
:1047400062320232DC88921002F50042B3F9205046
:104750006243B3F900304FEAEC2404EBE72404EBA6
:104760008304AC40154B02341B68D20BA3EBA404AA
:104770004CF250332B41634355BF5B00B3FBF2F364
:10478000B3FBF2F35B001A12524340F6DE3462438D
:104790000B4C08365C43241404EB224202F6CF6231
:1047A000361103EB221300B1036001B10E60BDE8C6
:1047B000F08100BFAC1E0020AC060020A81E002027
:1047C00043E3FFFF0A4B1A6802EBC002D379FF2BC9
:1047D00007D008490978994203D9074A32F81300EB
:1047E00004E00728D4BF908840F2DC5000B2704744
:1047F000042100208D170020FE0500202DE9F04F38
:104800000C68836889B0D0F800A0D0F80480064610
:10481000204603938B460EF0D3FD074620460EF04C
:1048200043FEDBF80440814620460EF0C9FD0546F4
:1048300020460EF039FEDBF80820044610460192AF
:104840000EF0BEFD019A834610460EF02DFE39464D
:10485000029058460BF042FC3946049002980BF047
:104860003DFC5946059048460BF038FC02990690ED
:1048700048460BF033FC2946079058460BF02EFCB7
:10488000014650460BF02AFC2146834606980BF061
:1048900025FC014605980BF019FB014640460BF03C
:1048A0001DFC014658460BF011FB21468346049837
:1048B0000BF014FC014607980BF006FB0146039829
:1048C0000BF00CFC014658460BF000FB30600299DF
:1048D00005F100400BF002FC014650460BF0FEFBD8
:1048E0002146834607980BF0F9FB014604980BF02C
:1048F000EBFA014640460BF0F1FB014658460BF03F
:10490000E5FA2146834605980BF0E8FB0146069838
:104910000BF0DCFA014603980BF0E0FB0146584629
:104920000BF0D4FA2146706050460BF0D7FB2946B5
:10493000044609F100400BF0D1FB014640460BF064
:10494000CDFB014620460BF0C1FA39460446284605
:104950000BF0C4FB014603980BF0C0FB0146204658
:104960000BF0B4FAB06009B0BDE8F08F2DE9F84F54
:104970002E4E0446376838460EF022FD054638466E
:104980000EF092FD7668804630460EF019FD8346A3
:1049900030460EF089FDD4F8049006462946484674
:1049A0000BF09CFBA7688246414638460BF096FB0D
:1049B000014650460BF088FA2168824658460BF0B3
:1049C0008DFB4146044648460BF088FB31460BF010
:1049D00085FB014620460BF079FA314604463846FD
:1049E0000BF07CFB29460BF079FB014620460BF0CF
:1049F0006DFA014650460EF0E5FD0D490BF06EFBD9
:104A00000C490BF01FFC0C4B19680BF05FFA0B49BB
:104A10000BF018FC0EF00AFD83B21A0444BF00F537
:104A2000B4739BB218B2BDE8F88F00BF8C030020AE
:104A30000000E144DB0F4940FC060020000020415B
:104A4000064B1B7803F0040303F0FF001BB1044B7B
:104A50001888C0F3C01000F001007047352A00200C
:104A6000580200202DE9F04102780346202A00F187
:104A70000100F9D0092AF7D02D2A02D10346414D71
:104A800004E02B2A08BF03464FF07E551E46002443
:104A9000334616F8012BA2F13007F9B209290DD8D7
:104AA000394920460BF01AFB044638460BF0C2FA8F
:104AB000014620460BF00AFA0446E9E72E2A17D1F0
:104AC000314F334616F8010B3038C2B2092A0FD8DD
:104AD0000BF0B0FA39460BF0B5FB014620460BF05F
:104AE000F5F92949044638460BF0F8FA0746E8E795
:104AF0001A7802F0DF02452A38D15A782D2A02D1DD
:104B00000233012604E02B2A14BF013302330026AE
:104B1000013B002713F8012F303AD1B2092903D8FD
:104B20000A2101FB0727F5E7B7F59A7F28BF4FF465
:104B30009A77B8464FF07E51B8F1070F07D908466B
:104B400012490BF0CBFAA8F108080146F4E707F088
:104B5000070737B108460C490BF0C0FA013F014680
:104B6000F7E72EB120460BF06DFB04E04FF07E51CD
:104B700020460BF0B3FA014628460BF0AFFABDE829
:104B8000F08100BF000080BF0000204120BCBE4C6F
:104B9000F0B50124B0FBF4F58D4201D34C43F9E7A5
:104BA0000026DCB1B0FBF4F504FB1500B4FBF1F416
:104BB0001EB9002D01DC002CF3D1092D03F10107F2
:104BC0005FFA85FC04DD002A0CBF5725372500E07D
:104BD000302565441D7001363B46E2E71C70F0BD90
:104BE000F0B50124B0FBF4F58D4201D34C43F9E755
:104BF0000026DCB1B0FBF4F504FB1500B4FBF1F4C6
:104C00001EB9002D01DC002CF3D1092D03F10107A1
:104C10005FFA85FC04DD002A0CBF5725372500E02C
:104C2000302565441D7001363B46E2E71C70F0BD3F
:104C300070B50646B6FBF2F40846154614B1204698
:104C4000FFF7F6FF05FB1464024B1B5D00F8013B08
:104C500070BD00BF337A01082DE9F041069C002B9E
:104C600006460F460CBF4FF020084FF03008234691
:104C700013F8011B09B9154603E0002AFBDD013AD0
:104C8000F6E7002D04DD30464146B847013DF8E720
:104C900014F8011B11B13046B847F9E7BDE8F081BF
:104CA00080EAE073A3EBE0738B4206DB002801DDB2
:104CB000401A704702D00844704700207047034BE9
:104CC0009A6822EA00009860704700BF80220020A6
:104CD0002A4B2B4A1B68126810B51A60294A1168C2
:104CE0005960516892689960DA60274A11681961C1
:104CF0005168926859619A61244A1168D961516872
:104D0000926819625A62224A118819855188598518
:104D10009188D2889985DA851E4A1188198651882A
:104D2000598692889A861C4A1188D9865188928819
:104D300019875A87194A117800228A4207DA184CD3
:104D400003EB420034F8124001328487F5E7154A3C
:104D50001288A3F86420144A1188A3F86C105188B3
:104D60009288A3F86E10A3F87020104A12689A6611
:104D70000F4A5289A3F85E2010BD00BF340F0020F7
:104D8000202A002094200020A0200020AC20002019
:104D900066020020CC03002074030020402A00207B
:104DA000082A00207C160020A4030020A004002074
:104DB000120000200E4B1B78BBB10E4B1B681A78FB
:104DC000032A06D10C4B187802288CBF0020012042
:104DD00070475B7823B1094B1868C0F3C040704737
:104DE000074B1878C0F3800070470120704700BF60
:104DF000C60C00208C040020540500205402002022
:104E0000352A0020114A30B50028B8BF4042104C66
:104E100090FBF2F304FB03003C2568430D4D90FB2F
:104E2000F2F22D682D7B25B903EB830303EB83039B
:104E300001E0C3EB031302EB830304FB02020B80CC
:104E40004FF47A7392FBF3F24A8030BD809698005B
:104E5000806967FFBC040020034B1B681878C31EE1
:104E600058425841704700BF8C04002008B50648DE
:104E70000EF0B8F8C0B2142805D8034A431C20210C
:104E80001154D8B2F7E708BD85160020094A0A4830
:104E9000002310B5116803701A46CC1864880CB949
:104EA000CC5C24B104330132802BD2B2F5D1027034
:104EB00010BD00BF78050020FC05002010B50B4B8D
:104EC0000B4859789A784B085C1E047001F0010178
:104ED00008480B44037008495308581E087002F034
:104EE0000102064913440B7010BD00BFB81000202A
:104EF0003406002036060020370600203506002044
:104F0000F0B50E4A0E4816780E4A002317688370D3
:104F10001A461946D4B2B4420CD217F822400132D4
:104F200025099D4204F00F04A8BF6B1C8C42A8BF4A
:104F3000611CEFE783704170F0BD00BFFC050020ED
:104F4000B810002078050020F8B5101A0C461F464E
:104F50000BF070F80546381B0BF06CF8174B079EEA
:104F600019680BF0BBF82946044628460BF0B6F842
:104F70002146074620460BF0B1F8014638460AF0B4
:104F8000A5FF0EF0A9FC0E490BF0A8F80BF092FA61
:104F9000069B2146186005F100400EF013FB0949FD
:104FA0000BF09CF808490AF091FF0BF05DFA00281D
:104FB000BCBF00F50C40A0303060F8BD7000002090
:104FC0002C7D8E3FA00CB34500A00C4610B50BF015
:104FD00031F8002104460BF03DFA08B1204601E00B
:104FE00004F1004005490BF02DF905490BF076F866
:104FF0000EF0E6F9034B186010BD00BF8096184B09
:1050000035FA8E3C7000002070B5044600790BF034
:105010000DF81E490BF016F91D4D1E4E2860A07BA1
:105020000BF004F819490BF00DF9EE606860607937
:105030000AF0FCFF18490BF005F9184D2860E07BD9
:105040000AF0F4FF11490BF0FDF86860607E0AF089
:10505000EDFF13490BF0F6F8EE60A860A0790AF0B6
:10506000E5FF0D490BF0EEF80E4D2860207C0AF0AC
:10507000DDFF06490BF0E6F86860A07E0AF0D6FF77
:1050800007490BF0DFF8EE60A86070BD0000C84271
:10509000641800200000FA44000020417418002029
:1050A00000007A449818002044F25063984203DDCF
:1050B000A0F50C40A0387047034B9842BCBF00F5E8
:1050C0000C40A030704700BFB0B9FFFF2DE9F041A0
:1050D000038A87890446BFB20D461F40002F36D091
:1050E000B7FA87F34FF00042DA40D24391B21B3B4C
:1050F00021821740042BF1D8DFE803F0221F1C198E
:1051000003006B6A33B103F1FF3800231FFA88F8FC
:105110006B6203E0B4F82C801FFA88F82E6A002E28
:10512000DCD033683046414698477668F7E7286810
:10513000A18E08E06868218F05E0A868A18F02E0D1
:10514000E868B4F84010036889B29847C6E7BDE83C
:10515000F0810C4B800A98420CD003D8B0F5801F28
:105160000ED00BE0084B984206D04933984205D147
:10517000002070470220704703207047FE207047D0
:1051800001207047010010000200100090F83B322F
:1051900010B57BB990F83A3290F83922934209D28F
:1051A00001219940B0F8404201332143A0F8401258
:1051B000DBB2F3E710BD8379012B03D1D1F10101FB
:1051C00038BF0021D0F834315A681B8909B1136106
:1051D000704753617047044B53F820301BB10728C8
:1051E0009CBF1B68198070476808002010B5054CEB
:1051F00000202188FFF7EFFF61880120BDE8104003
:10520000E9E700BF120000202DE9F0410F880023DC
:1052100047FA03F2D2072BD58A7803F0070512F07C
:10522000100F18BF91F803C002F00F0618BF46EA2E
:105230000C06AD004FF00F0C0CFA05FC06FA05F554
:10524000DC0850F82480282A28EA0C0C45EA0C05D2
:1052500040F8245005D101229A40C46824EA020291
:1052600005E0482A04D101229A40C4682243C26062
:105270000133102BCCD1BDE8F08100BF70B5274CB5
:10528000274D23781BB9A12804BF01222A702A7850
:1052900022B1244AC0B2D0540133237023781B2B8F
:1052A0003AD1002213461F49885C83EA0023082074
:1052B00013F4004F4FEA430318BF83F4815300F106
:1052C000FF3018BF83F0010310F0FF009BB2EFD155
:1052D0000132192AE7D1487E8A7E02EB002292B27F
:1052E0009A4216D101235A1CCE5C885C0E4A00EB10
:1052F000062080B24FF4AF6670431A4400130233A5
:1053000000F54870192B22F8010CECD1074B012253
:105310001A7000232B70237070BD00BF7509002028
:1053200074090020C0100020DC1000204002002082
:10533000064B1A780AB100221A7003788B4283BF99
:10534000034B03EB4101888B002070474002002093
:10535000C0100020214B2DE9F0471A781E4632B3C9
:105360001F4B90F800C01F781E4B93F8008002235B
:105370001D4A03F1010AD51895F834403C4104F068
:105380000F0464450ED20B2C0CD895F8349002EB28
:105390000A0595F8345002EB840209EA080405EB8B
:1053A000042454640233102BE2D1002333700378B9
:1053B0008B420FD90C4B93F8740060B10B4A8900F3
:1053C00012780B44586C02B1400800F5777080B237
:1053D000BDE8F0870020BDE8F08700BF4001002055
:1053E0005C0900205D090020C01000205E0900203B
:1053F00007299ABF024B33F821000020704700BFF5
:1054000020020020024B53F82100C0F3CF00704768
:10541000C801002008B5074B53F821000AF006FE2A
:1054200005490AF05BFE05490AF050FD0BF042F811
:1054300080B208BD600100200000203F00005C44F5
:10544000014B33F811007047FE050020014B33F883
:1054500011007047841E0020034B4FF4805208B1A6
:105460001A6170475A61704700080140034B4FF4BE
:10547000805208B15A6170471A61704700080140B4
:1054800038B50C68054620460DF0ACFD21460246B5
:105490002868BDE838400DF0ADBD094BDA68D1078A
:1054A00009D4DA68520708D4DB6813F0100F0CBF78
:1054B000042003207047012070470220704700BF7E
:1054C000002002408A6810B50C6A036814430A6918
:1054D00023F4FF4314434A6923F0700314438A6999
:1054E0001443CA6914434A6A14438A6A2243134321
:1054F0000360CB6843600B6883604B68C36010BD7A
:1055000002684FF6FE73134003600023036043609C
:105510008360C3602A4B984222D02A4B984229D0FC
:10552000294B984230D0294B984237D0284B98428B
:105530003ED0284B984206D153F8682C42F47002B2
:1055400043F8682C7047244B984206D153F87C2CC2
:1055500042F0706243F87C2C7047204B984206D191
:1055600053F8042C42F00F0243F8042C70471C4BF4
:10557000984206D153F8182C42F0F00243F8182C48
:105580007047184B984206D153F82C2C42F47062A5
:1055900043F82C2C7047144B984206D153F8402CFA
:1055A00042F4704243F8402C7047104B984205D1AA
:1055B00053F8542C42F4702243F8542C704700BF27
:1055C000080002401C00024030000240440002403B
:1055D000580002406C000240800002400804024073
:1055E0001C040240300402404404024058040240BB
:1055F0002DE9F843574B0C460168013AC3F8761081
:105600008188A3F87A10072A42D8DFE802F0040A5A
:10561000101822292F35B3F876202280B3F878208D
:1056200013E0B3F878202280B3F8762005E0B3F8D1
:10563000762052422280B3F87820524205E0B3F837
:10564000782052422280B3F876206280B3F87A3014
:105650001DE0B3F8762052422280B3F8782012E0A1
:10566000B3F878202280B3F876200CE0B3F87620E7
:105670002280B3F8782005E0B3F8782052422280E7
:10568000B3F8762052426280B3F87A305B42A3804E
:10569000314B1B78002B5AD1B4F900000AF0CAFC38
:1056A0008046B4F902000AF0C5FC0746B4F90400CC
:1056B0000AF0C0FC294D0646296840460AF00EFD56
:1056C000E968814638460AF009FD014648460AF075
:1056D000FDFBA969814630460AF000FD01464846B7
:1056E0000AF0F4FB0DF0A2FE6968208040460AF043
:1056F000F5FC2969814638460AF0F0FC0146484627
:105700000AF0E4FBE969814630460AF0E7FC01460D
:1057100048460AF0DBFB0DF089FEA9686080404630
:105720000AF0DCFC6969804638460AF0D7FC01467D
:1057300040460AF0CBFB296A074630460AF0CEFC09
:10574000014638460AF0C2FB0DF070FEA080BDE8AD
:10575000F88300BFC0100020380000205C06002045
:1057600010B51A4B93F87C104A1C83F87C20184A19
:1057700001F007015078174A03EB410332F810207B
:10578000154892B2A3F87E20002302801846134ADF
:105790009A5A02331044102B80B2F8D1C0080AF094
:1057A00049FC0F490AF09AFC0E490AF04BFD0E4BDA
:1057B00004461B6818780AF03DFC014620460AF0B2
:1057C0008DFC0AF077FE094B187010BDC010002048
:1057D000280E0020380E00207C1600203E110020EC
:1057E0003333534000F07F45A8040020AC04002070
:1057F000034B1B68DA79511CD9711344187A70472E
:105800004805002010B5FFF7F3FF0446FFF7F0FF4F
:1058100004EB002080B210BD10B5FFF7F3FF044683
:10582000FFF7F0FF04EB004010BD0B4AA2F130037C
:10583000197A81420BD00C339342F9D1074B197A74
:10584000014004D10C339342F9D1084603E01846D5
:105850000BB158687047704770000020400000206E
:1058600000230549DAB2595C814203D001330C2B85
:10587000F7D11A46104670475F8101082DE9F047BD
:105880008278C6781E4BC2F1640802EB820C544247
:105890005FFA88F84FEA4C0CC6F16409A4B203F130
:1058A0001807A5B228B2002804DC002D14BF154645
:1058B000012500E0454600FB00FA6D430AFB06FAAD
:1058C0009AFBF5F54D4468434FF00A0A90FBFAF055
:1058D000604480B258800D88B1F802A000B2C5EBD8
:1058E0000A0A00FB0AF04FF47A7A90FBFAF00544BA
:1058F00023F8025F0A34BB42A4B2D2D1BDE8F087DC
:10590000FE0D002010B544780078002303FB03F15E
:105910001939614301F6C4115943414340F6C41299
:1059200091FBF2F1034A22F813100133072BEDD15A
:1059300010BD00BFE80D002010B5044C2068FFF733
:10594000E1FF20680249BDE8104097E77804002095
:105950005023002010B5094A094913688C68126861
:105960009342F8D1074A106811684FF47A72504395
:10597000001BB0FBF1F002FB030010BD7C220020F5
:1059800010E000E04406002038B50E4B0E4C99683C
:105990000E4B1A681D465288114204D0FFF7DAFFF9
:1059A000C4F8900008E0FFF7D5FFD4F89030984293
:1059B00002D9074AC31A13602B685A68054B5A610B
:1059C00038BD00BF000C0140C0100020E01F0020C7
:1059D000940000200004014038B5134C012384F8E2
:1059E00074300546FFF7B6FFD4F8943041F28832A0
:1059F000C31A9342C4F8983084BF002384F89C30C3
:105A000094F89C30C4F89400EDB21C440F2B84F839
:105A1000345003D1054B01221A7038BD024A0133BC
:105A200082F89C3038BD00BFC0100020400100202B
:105A300010B50446FFF78EFF0E4B41F28831D3F8C4
:105A4000A020C3F8A000821A8A42C3F8A42084BF11
:105A5000002283F8A82093F8A830074A142BD454C6
:105A600003D1064B01221A7010BD024A013382F89D
:105A7000A83010BDC010002009020020080200203C
:105A800010B50446FFF766FF174AD2F8AC30C2F8EB
:105A9000AC00C31AB3F57A6F84BF002382F8B0302C
:105AA00092F8B03023B9A82C1CD110490B7006E035
:105AB000022B02D10E490C7001E0242B01D80D49B4
:105AC000CC540133DBB282F8B030094A127852006C
:105AD0000532934206D1044B002283F8B020034BD9
